:100000000C9464000C948C000C948C000C948C0068
:100010000C948C000C948C000C948C000C948C0030
:100020000C948C000C948C000C948C000C948C0020
:100030000C948C000C948C000C948C000C948C0010
:100040000C948C000C9466260C948C000C948C0000
:100050000C948C000C948C000C948C000C940C254B
:100060000C948C000C948C000C948C000C948C00E0
:100070000C948C000C948C000C948C000C948C00D0
:100080000C9456250C948C000C948C000C948C00D1
:100090000C948C000C948C000C948C000C948C00B0
:1000A0000C948C000C948C000C948C00D5F08D1466
:1000B000A1C881CFD9F1AF2000C0A0D92181FFA86C
:1000C00000A800A83F00A12611241FBECFEFDAE050
:1000D000DEBFCDBF11E0A0E0B1E0E0E3F3E702C096
:1000E00005900D92A630B107D9F72AE0A6E0B1E05D
:1000F00001C01D92A330B207E1F710E0C4E6D0E0E2
:1001000004C02197FE010E949039C336D107C9F778
:100110000E9401270C9496390C940000982FE5E575
:10012000F9E080E02081291729F08F5F39968E3021
:10013000C9F78FEF0895AC01E5E5F9E080E070E0E4
:1001400090819F3381F0218132812417350739F462
:100150002381022E000C330B2617370729F08F5FFF
:1001600039968E3069F78FEF08959091770825E2E0
:1001700030E0291B310997FD339543E035952795EC
:100180004A95E1F7062E000C770B620F711D77FD83
:1001900022C04091FC095091FD0921E430E0241B6C
:1001A000350B48E08402C0011124820F931F23E025
:1001B000959587952A95E1F78231910574F022E3B0
:1001C000269FF001279FF00D1124E80FF91FE55C31
:1001D000FA4F8081089581E0089580E00895863285
:1001E000A1F4E5E5F9E090E080812BEC280F2230C6
:1001F00038F08953823020F09F5F39969E30A1F706
:1002000081E09E3059F480E00895982F977F9130D7
:1002100031F095EE980F81E09230A8F7089581E0D3
:10022000FDCF0F931F93CF93DF932091FC09309163
:10023000FD09C0E4D0E0C21BD30B28E08202C0015C
:100240001124C80FD91F2091770885E290E0821B06
:10025000910927FD939523E0959587952A95E1F7D8
:10026000680F162F110F110F110F00E013FF02C0BE
:10027000185001E0CE0187709927892B09F0249747
:10028000CE018F709927892B09F02897612FCE0115
:100290000E949B00002359F08F3F49F460E1610FF9
:1002A000CE01DF91CF911F910F910C949B00DF91B4
:1002B000CF911F910F910895962F6436B9F02EEDCE
:1002C000280F243098F4642F892F0E9411018F3F4A
:1002D00059F099E0899FF0011124EB5AF64F808183
:1002E0008E32C9F08033B9F080E00895982F9F7D59
:1002F00091F0833081F093EE980F923060F09AED98
:10030000980F943040F0843331F092ED980F81E0F3
:10031000923050F7089581E0FDCF823109F446C054
:100320009091770825E230E0291B310997FD33953C
:1003300093E0359527959A95E1F7222309F44FC06C
:100340008130A1F1893209F44AC0823211F084323D
:1003500061F4633009F443C0611104C041E060E01E
:100360000C945C0140E061E0FBCF833211F08532F8
:1003700039F46130A1F1662389F340E06FEFF0CFEB
:1003800098EE980F923090F08A3191F460E080E01E
:100390000E9411018F3F51F099E0899FF0011124D3
:1003A000EB5AF64F81E094819430C1F080E00895DB
:1003B000982F9F7DA1F0982F9F7E973081F094EF2A
:1003C000980F933060F090EF980F923040F08533A3
:1003D00031F093EE980F81E0923040F7089581E07C
:1003E000FDCF44E664E60C945C01CF93DF938091EB
:1003F000770825E2281B30E08091FC099091FD09E7
:1004000068E370E0681B790BEBECF8E08FEFA0E895
:10041000B0E090E040814330B9F44381042E000CF9
:10042000550B4217530781F441815281EB01C41BE4
:10043000D50BAE01D7FF03C05195419551094A171D
:100440005B0714F4892FDA019F5FBE96933011F792
:10045000DF91CF910895482F2091470530914805AD
:1004600086B52827C9019695879520FF02C024EB01
:1004700092279093480580934705641B770B0E9451
:100480006839840F08959C019091CA08933269F0ED
:10049000E92FF0E0EE0FFF1FEC57F74F3183208379
:1004A0009F5F9093CA0881E0089580E008952AEB49
:1004B00034E0E9E4F5E0A0E0B0E0BD0180E00E94B6
:1004C000B4020E94A302BD011296A20FB31F8217AD
:1004D000930799F38F5F9F4F21F4AF5FBF40DB011C
:1004E00078F00E94680440E050914505609146050F
:1004F00080E20E94A802599A0E942C03A0E0B0E07A
:100500007CEF0E9468044A2F509145055B0F609173
:100510004605611D82E00E94A802832F71FD822F93
:1005200070FD81910E94C002759518F421503040F1
:1005300019F01196AA2389F7599A0E942C032115C4
:100540003105F9F608950E94EB02982F0C94F10200
:1005500059980E94C002862F0E94C002852F0E94D7
:10056000C002842F0C94C002462F50914505570FAE
:1005700060914605681F83E00E94A8021EBC089592
:100580008EBD00008EB50DB407FEFCCF0895E9E4E2
:10059000F5E0AAEBB4E060E070E080E00E94B40215
:1005A0009D01AF0160E00E94E6028217930751F4BB
:1005B000D901FA0160E00E94EB0281931197D9F70B
:1005C00061E0F1CF0E94F102862F08950E94EB02B4
:1005D000982F0C94EB020DB407FEFDCF8EB51EBC18
:1005E00008950DB407FEFDCF8EB5599A0895E5E044
:1005F000F0E00E940C03319728F068517C4F8F4F38
:100600009F4FF9CFAB01FC010E940C0364177507E3
:100610008E079F07C8F30895AAE3B5E02FB7F894B3
:100620007D918D919C9166B52FBFA89B05C06F3FB2
:1006300018F47F5F8F4F9F4F22E0660F771F881F50
:10064000991F2A95D1F708958FB18095807F669B79
:1006500088601C9B84600895599885E00E94C002C0
:1006600080E00E94C00280FDFBCF599A0895FC01F2
:100670000E94EB02819361507040D1F7089590E0A1
:10068000409F09F4142E5527090E151E600D711D8B
:10069000851F11240C9487030F9303E020E00E9430
:1006A0003F030E94E602782F0E94F102682F892FF3
:1006B0000F9108950F9301E020E00E943F030F91F6
:1006C0000C94F102CF93DF93C091E409CF3FE9F09E
:1006D000D091E309DF3FC9F04C2F8EE0D89F400D49
:1006E000112467EA7AE380E00E945A03CD1BDD0BF8
:1006F000D7FF03C0D195C195D10990E0219709F4A6
:1007000092E0890FDF91CF91089580E0FBCF462FD3
:1007100050913E05570F60913F05681F83E00E948E
:10072000A8021EBC08950F931F93CF93DF9300D0B0
:1007300000D0CDB7DEB7E091CA08E150E093CA0817
:10074000F0E0EE0FFF1FEC57F74F0081118110937F
:10075000700800936F08B801660F771F660F771F48
:1007600080E06D5D774D8F4F0E94870364E070E0FD
:10077000CE0101960E9437030E94F1028091770812
:100780009981891B809377082B818091FC09909136
:10079000FD09820F911D27FD9A9581312EEF920759
:1007A00084F480E19EEF9093FD098093FC09C801D9
:1007B0000F900F900F900F90DF91CF911F910F919D
:1007C00008959093FD098093FC098A81082E000CFE
:1007D000990B2091E8093091E909280F391F3093CE
:1007E000E9092093E8092091EA093091EB09280FE3
:1007F000391F3093EB092093EA092091EC093091DD
:10080000ED09280F391F3093ED092093EC09209151
:10081000E6093091E709820F931F939560E072E03B
:100820000E947C399A959093E7098093E6098C8120
:10083000082E000C990B2091F0093091F109280F36
:10084000391F3093F1092093F0092091F20930917A
:10085000F309280F391F3093F3092093F2092091EF
:10086000F4093091F509280F391F3093F5092093C9
:10087000F4092091FA093091FB09820F931F803807
:1008800029F09093FB098093FA0991CF1092FB090C
:100890001092FA098CCF0F931F93CF93DF93EA0145
:1008A00089010E948703FE010150104021F00E943F
:1008B000EB028193F9CF0E94F1028083DF91CF9107
:1008C0001F910F91089559980E94C002599A089556
:1008D00086E00C946304FC0110820895FC01908171
:1008E000992311F0915090830895FC018081861B1B
:1008F00087FD07C0808381E0908119160CF480E0A9
:1009000008951082F8CFFC01208131812F5F3F4F85
:100910002617370721F03183208380E00895118264
:10092000108281E0089530E73CBDDC0130E8439F50
:10093000C0011124A80FB91F5E91352F6111372F07
:100940003C93C89500C052235EBD0197A9F704D01F
:1009500003D030E50DB43CBD089580913305882364
:1009600029F081508093330581E0089580E0089557
:10097000CF93C0914405C09340050E942403809307
:100980004405C0958C23CF9108959091FE0990382D
:1009900069F490916D089093020A93E09093010A94
:1009A00080936D088EE78093FE090895903641F498
:1009B00080936D0881E08093010A81E28093020AAE
:1009C0000895CF93DF93EC018FE30E948E0099E0AE
:1009D000899FF0011124EB5AF64F89819A81928305
:1009E00081838B81838314821682158283E090E059
:1009F00098878F83DF91CF910895883029F481E023
:100A0000683039F080E005C08132E1F781E0613281
:100A1000C9F708959C018B33910599F08D349105A8
:100A200081F08634910569F08835910551F02233C3
:100A300082E0380731F081E02E32324019F080E058
:100A4000089581E008959C018731910589F08932EC
:100A5000910571F08232910559F0C49749F081E017
:100A60002338310539F02F37310521F080E0089522
:100A700081E008950895109271001092C1001092C3
:100A8000220510922F05089580912205882309F4EC
:100A90002CC080912905811128C060912A05709190
:100AA0002B0580912C0527E030E043E255E00E94C1
:100AB0004B04E3E2F5E0219181919191892B11F4AE
:100AC0001092220590E080E02695821B91092191E9
:100AD00041915191452B11F4109222052695821BCC
:100AE000910990931A018093190180912F05882311
:100AF000C1F080911401811114C060913005709192
:100B000031058091320524E030E041E151E00E945E
:100B10004B048091120190911301892B11F41092D2
:100B20002F0580912205811106C080912F0581112A
:100B300002C00C943B050895CF9390914B059923E7
:100B400041F190912E05992321F1482F6AE975E131
:100B500080E00E944C0360933005709331058093D0
:100B60003205C1E0C0932F050E94440580917100B9
:100B700081110FC080E094E09093990080939800D9
:100B80001092950010929400C093C10082E080936F
:100B90007100CF910895FC018085823371F481E367
:100BA00080878181928109979287818783818F5F76
:100BB0008387148687E00C949C0508958091220514
:100BC000811104C080912F05882341F080910E018E
:100BD0008F5F833020F480930E0181E0089510929E
:100BE0000E010E94440580912905882399F08150C7
:100BF0008093290581110EC080912A0590912B05C3
:100C0000A0912C050796A11D80932A0590932B0592
:100C1000A0932C05809114018823F9F281508093D0
:100C200014018111DACF8091300590913105A091A6
:100C300032050496A11D8093300590933105A09351
:100C40003205CBCFCF92DF92EF92CF9380932D05D9
:100C500090914A05992351F190912E05992331F1F4
:100C6000482F64E975E180E00E944C036B01E82E97
:100C70000E943B05C0922A05D0922B05E0922C05DC
:100C800010922905C1E0C09322050E94DE0580E094
:100C900094E09093990080939800109295001092A0
:100CA0009400C093C10082E080937100CF91EF90D7
:100CB000DF90CF9008953F924F925F926F927F9214
:100CC0008F929F92AF92BF92CF92DF92EF92FF925C
:100CD0000F931F93CF93DF9300D01F92CDB7DEB752
:100CE0003A01862EABE1B1E0B701E02FDD24382ECA
:100CF00096959695969531E061FD34E060FD330F51
:100D000062FD32955FEF539F7001E094F09475950A
:100D100067957595679575956795462F4F3F4CF488
:100D20004095941B20FD440F489F600C711C8D1C46
:100D30004FEF17FF0BC0300E20FF02C0000F111F36
:100D4000601A710A8D0817FD8394EE2750E8450359
:100D50000E0EA00DB11D5E1B351608F0352E57E0A6
:100D6000541B591714F4952FD39450E85319482E57
:100D7000552421FD02C04318550820FF02C0440C31
:100D8000551C11245B824A82932E00903E05700C04
:100D900000903F05801C19C0599833E03EBD640C9B
:100DA000751C811CAA24831509F0A3940CD08EBC59
:100DB00007D07EBC05D06EBC03D01EBC03D0089506
:100DC000C8950000C895C8950895641875088108ED
:100DD000E3DF41151CF0992371F564C0A058BF4FA3
:100DE000C32C20FD0CC06EB51EBC699DBC90BF20FD
:100DF000B128BD92C89500C0CA94A9F711C06EB5BC
:100E00001EBC699DB001DEDFEEB41EBCE99C700122
:100E1000BC90F094BF20B72ABD92C895CA9479F7C8
:100E20001124A319B1099A9509F45CC0AA2019F0FC
:100E30000DB4599AB1DFFD01E058FF4FC32C20FDDE
:100E40000EC06EB51EBC699DBC90BE20B028BD9280
:100E5000B080BF20B128B192CA9499F716C06EB580
:100E60001EBC699DB001BC90F080AEDF00C0EEB446
:100E70001EBCE99C0094B020B62ABD921094F120CB
:100E8000F72AF1920000CA9451F71124A50FB11D61
:100E90009A9561F6DD2031F1AA2021F00DB4599A1E
:100EA0007BDFC89520FD0CC06EB51EBC699DBC9053
:100EB000BE20B028BD92C89500C03A94A9F712C0D0
:100EC0006EB51EBC699DB0017DDF9EB51EBC999DAF
:100ED000902DBC909095B922B62ABD92C8953A94AF
:100EE00079F7C8951124599A0DB40F900F900F906F
:100EF000DF91CF911F910F91FF90EF90DF90CF90F6
:100F0000BF90AF909F908F907F906F905F904F9029
:100F10003F9008956F927F928F92AF92CF92DF921F
:100F2000EF92FF920F931F93803891050CF03AC017
:100F3000603471050CF036C0A42FB0E0FD01E80F5D
:100F4000F91F1E161F060CF02DC0E22FF0E03F0126
:100F5000660E771E161417040CF024C03701802E7D
:100F60007B018C019E2F8827842B9B2BC114D104DD
:100F7000A1F0269526952695A0FC220F249FF0012E
:100F8000ED9D700C811CFC9D700C811CFD9D800CE6
:100F9000EC9D600C711C1124811C2A2D682DA3016D
:100FA0000E945B061F910F91FF90EF90DF90CF9012
:100FB000AF908F907F906F9008957F928F929F92C5
:100FC000AF92CF92DF92EF92FF920F931F93CF9346
:100FD000DF93EC014B016901E42E842FB9010E94DB
:100FE00087030E94EB02782E0E94F1024E2D96019B
:100FF0002E5F3F4F4F4F93E0A92E68017901042FD8
:10100000282F472DB401CE010E948A07DF91CF918E
:101010001F910F91FF90EF90DF90CF90AF909F9036
:101020008F907F9008950F931F930091210510E0FA
:1010300070E024E939E44FE090E00E94DD071F9161
:101040000F9108950F931F930091210510E093E0F5
:10105000899F000D111D11248091FE0929EF3FE7A2
:1010600049E070E060E090E00E94DD071F910F9181
:101070000895BF92CF92DF92EF92FF920F931F934A
:10108000CF93DF93B82E6B01C0912105D0E0E42E01
:10109000F12C8EE090E0821B91098C01000F111F52
:1010A000080F191F0C0F1D1FB7016550710925E0AE
:1010B0003EE54AE0C6010E94DD078E0183E0B89E4E
:1010C000000D111D112427E533E54EE0B701C601DF
:1010D0000E94DD07DF91CF911F910F91FF90EF905C
:1010E000DF90CF90BF900895BF92CF92DF92EF92A2
:1010F000FF920F931F93CF93DF93B22E00912105A0
:10110000C02ED12CC42FD0E0E62EF12C860193E026
:10111000899F000D111D112425E537EE4DE0BE011C
:10112000C7010E94DD078EE090E08B1991098C01C8
:10113000000F111F080F191F0C0D1D1DBE0165505A
:10114000710925E03EE54AE0C70101970E94DD07ED
:10115000DF91CF911F910F91FF90EF90DF90CF9093
:10116000BF900895CF92DF92EF920F931F93CF938A
:10117000DF93182FD62FC42F482F68E871E181E143
:101180000E944C036B01E82E412F6BE472E181E178
:101190000E945A0300912105080F1127111F6C2F7F
:1011A00070E04E2D96018D2F90E00E94DD07DF91BB
:1011B000CF911F910F91EF90DF90CF9008950F93F3
:1011C0001F93082F10E023EC36EC47E070E060E05E
:1011D00089E490E00E94DD071F910F9108957F92AE
:1011E0008F929F92AF92CF92DF92EF92FF920F93E6
:1011F0001F93CF93DF93EC014B016901E42E842F01
:10120000B9010E9487030E94EB02782E0E94F1022E
:101210004E2D96012E5F3F4F4F4F92E0A92E680151
:101220007901042F282F472DB401CE010E948A078F
:10123000DF91CF911F910F91FF90EF90DF90CF90B2
:10124000AF909F908F907F9008950F931F93009180
:10125000210510E093E0899F000D111D112480915C
:10126000FE0990E021E035E540E068E370E00F968C
:101270000E94EF081F910F910895FC0184819581D0
:10128000853DF3E09F0748F08E3024E0920738F068
:101290008734944010F483E0089584E0089581E059
:1012A0000895FC0194819F5F9483278130852115E7
:1012B000310549F0977039F421503109308727837F
:1012C00081E0232B09F080E00895CF93DF93FC01A8
:1012D0002081203408F059C0EC01E22FF0E0ED58F5
:1012E000F64F0C949039D609C509A00AB309000A33
:1012F000510AC509510AC509D609C509B90AD6094D
:10130000C509D10AC509C509C509EE0AC509EB0910
:10131000C5090A0BC5090A0BC509510AC509C50942
:10132000C509260B260B260BC509C509C509C50924
:10133000C509630B630BC509F309C509510A510AB5
:101340000D0A250A0D0A250AE90AC509570AC50921
:10135000620A620A570AC5097E0A7E0A5E0AC50940
:10136000C909C509E30A60E071E007960E94830499
:101370008F8198858833910530F453E09695879551
:101380005A95E1F701C087E08C8380E0DF91CF912F
:10139000089560E670E007960E9483048F81988527
:1013A0006CE070E00E9468396C83EFCF8C818F5FB6
:1013B000803879F08C838F819885009731F32C8168
:1013C0002F7019F7019798878F83892BF1F682E0A8
:1013D000DDCF1C82F0CF60E370E007960E948304AB
:1013E0008F819885CACF60EC70E007960E948304D5
:1013F0008F81988524E0969587952A95E1F7C4CF4B
:101400008F8198859C01215031092631310508F0E2
:10141000BCCF019698878F83B0CF8C818150883064
:1014200008F0B3CF68E070E0CE0107960E94830415
:10143000882309F4AACF8C818F5F8C83893009F0CF
:10144000A4CF88818F5F8883A0CF8C81813008F4FE
:101450009CCF8930A8F0893009F097CF8F8198858B
:10146000019698878F834D815E818417950709F0D7
:101470008CCF203309F089CF18861F8288E084CF73
:1014800068E070E0CE0107960E948304882309F487
:101490007CCF8C8181508C83811177CF8881815062
:1014A000D2CF0E945109882309F46FCF90CF0E94B8
:1014B0005109882309F469CF84E068CFDF91CF9187
:1014C0000C9451098C818C3008F05FCF8F81988506
:1014D000019698878F836CE070E00E9468396C8376
:1014E0006C3009F052CF86E3253309F04ECF888364
:1014F00089819A8140979A83898347CF3C814F8124
:101500005885CA01019698878F833C3068F46CE057
:1015100070E00E9468396C836C3009F036CF293353
:1015200009F033CF8AE3E3CF8132934008F42DCF23
:10153000333120F4CA018F58924032CF88E383CFF1
:101540008F8198859C01215031092E3D310508F08D
:101550001CCF019698878F839C0145E0369527958F
:101560004A95E1F72C838F3D910509F00ECF85E078
:101570000DCF2F813885C90101978F3B910508F068
:1015800004CF2F5F3F4F38872F83C90168E170E098
:101590000E9468396C83203C310509F0F6CE83E067
:1015A000F5CE8F8198859C01215031092E39310566
:1015B00008F0EBCE019698878F8335E09695879556
:1015C0003A95E1F7E1CE8C81803708F0DECE8F5F6F
:1015D000DBCE8C818730D8F382E335CF8F8198853D
:1015E0008F3521E0920798F4019698878F83803B8E
:1015F000910511F48AE0C8CE803B910508F4FACE3B
:1016000020E631E0A901481B590BCA01F3CE188628
:101610001F82BBCE4FEF263109F041E08F819885C4
:10162000049798878F83E4E04E02A001112469811A
:101630007A81460F571F5A834983892B09F0A5CE1B
:1016400087E1263109F4FFCE89E1FDCE4F8158852F
:101650004115510561F167E57AE380E00E945A0384
:101660004F8158854150510958874F839B81890F7D
:101670008B8388818F3141F02CEF803249F020E05C
:101680008E3131F42BEF04C0842F81702CEF281B96
:1016900089819A81820F911D27FD9A95452B89F0AA
:1016A0009A8389838F819885892B09F06ECE8C81EE
:1016B0008F5F8C83893009F068CE81E288831C8239
:1016C00064CE0C97EDCF60E170E007960E94830432
:1016D000882309F45ACE8C818F5F803109F054CE73
:1016E000EECF0F931F93CF93DF93EB018A01222359
:1016F00021F0855A9F4F0E946B040C171D0790F034
:101700008091CA08833259F0E82FF0E0EE0FFF1FF6
:10171000EC57F74F118300838F5F8093CA08015005
:101720001109EBCFDF91CF911F910F910895AB017C
:1017300020E0BC018FE698E00C94710BEF92FF92D1
:101740001F93CF93DF93EC0160E080E00E94B5002F
:10175000182F62E080E00E94B5000E94F10188230A
:1017600009F451C01130D9F085EE810F8230B8F004
:1017700010511230F0F564E080E00E94B5008F3027
:1017800091F5CE018C5C9E4F9093810880938008E8
:10179000CB5ADE4FD0938308C093820824C07E01C9
:1017A0008FEBE80EF11CC654DF4FD0938108C09335
:1017B0008008F0928308E092820869EA71E086EA84
:1017C00091E01C3131F01B3171F468E573E085E57F
:1017D00093E00E94970BD0938108C0938008F09209
:1017E0008308E0928208DF91CF911F91FF90EF90E4
:1017F0000895CE0180559F4F909381088093800873
:10180000CA54DF4FC7CFCE0189549F4F90938108B0
:1018100080938008C754DF4FBDCF2091FC093091E1
:10182000FD0927703327232BB1F00E94F101882393
:10183000A1F065EA70E080EA90E00E94970B1092B8
:10184000780861E080E070E060587F4F90E0805859
:101850009F4F0C94970B63E0F5CF67E082E0F3CFE6
:101860002091FC093091FD0927703327232BB1F01B
:101870000E94F1018823A1F064E572E08FE492E018
:101880000E94970B1092780861E080E070E0615D43
:101890007D4F90E0815D9D4F0C94970B63E0F5CFF9
:1018A00067E082E0F3CF5F926F927F928F929F9278
:1018B000AF92BF92CF92DF92EF92FF920F931F935E
:1018C000CF93DF93B82EF62E23E0EE24EA94CFEAEE
:1018D000D1E0621721F0EE24E394D0E0C0E060E0B4
:1018E0008E2D0E94B500182FCE2CCC0C60E08C2DD4
:1018F0000E94B500982E6FEF8E2D0E94B500082F24
:101900004FEF6E2D0E945C01D82E6FEF8C2D0E9440
:10191000B500882EDD2049F1812F0E94F101882336
:1019200021F1B3FC40C06FEF80E00E94B500D82EDB
:1019300061E08E2D81950E94B500182F61E080E056
:101940000E94B500082F61E08C2D0E94B500E82EA2
:1019500023E0F21252C186E0D81256C1BE01615690
:101960007F4FCE0184569F4F9CC060E080E00E9474
:10197000B500D82E61E080E00E94B500A82E6EEF81
:101980008C2D8E0D0E94B50010927808113209F04E
:1019900066C181E080937808BE016A527E4FCE0115
:1019A00081539E4F7EC0A0906F08B0907008EC0CE1
:1019B00060E08E2D0E94B500582E6EEF8C2D0E9497
:1019C000B500D82E6FEF8E2D0E94B500782E6EEFE9
:1019D0008E2D0E94B500682E6DEF8E2D0E94B500F1
:1019E000082F83E0F8121BC092E6A91A93E0B90A07
:1019F0001E31F1F0892D0E94F10181117CC0DF912F
:101A0000CF911F910F91FF90EF90DF90CF90BF90FB
:101A1000AF909F908F907F906F905F90089581E03E
:101A2000F812E8CF1D3131F793EBA91A91E0B90A0A
:101A300024E1A216B104F0F282E10E948E0099E046
:101A4000899FF0011124EB5AF64F2781308583E0FE
:101A5000F81238C02059310924353105E0F486EBFD
:101A600090E09087878321E045E753E062E673E0EA
:101A70008FE698E0DF91CF911F910F91FF90EF904B
:101A8000DF90CF90BF90AF909F908F907F906F909E
:101A90005F900C94710B109278086AE972E080E90B
:101AA00092E0DF91CF911F910F91FF90EF90DF9027
:101AB000CF90BF90AF909F908F907F906F905F90EE
:101AC0000C94970B2433310528F02C5231402433E9
:101AD000310550F486E090E09087878321E046EC62
:101AE00051E063EB71E0C4CF109278086BEE70E0C8
:101AF00081EE90E0D6CF852D0E94F101182F88232A
:101B000099F04FEF6C2D882D0E945C01882361F0C5
:101B1000872D0E94EF00882339F0BE0160527F4F6D
:101B2000CE018A529F4FBDCF882D0E94F101112313
:101B3000B1F0882309F463CF872D0E94F101882337
:101B400089F0862D0E94F10181110CC01092780855
:101B5000BE016A507F4FCE0184519F4FA2CF882390
:101B600009F44DCF872D0E94F101882309F447CF56
:101B70008AED8D0D8330E8F4E5E5F9E08081863368
:101B800009F4C4C18A3309F4C1C1399699E0E33D2F
:101B9000F907A1F7BE01645E7D4FCE018A5E9D4FBD
:101BA0000E94970BBE0161507F4F23C0B701C8014F
:101BB00078CF109278082091770885E290E0821B18
:101BC000910927FD939523E0959587952A95E1F74F
:101BD000823029F0802F0E94EF00811107C0BE01E2
:101BE0006B557F4FCE0180569F4F5BCFBE016F5F1D
:101BF0007E4FCE0189509F4F54CF91E0F91204C01F
:101C00002BE0D21609F4AACE882D0E94EF0088237B
:101C100079F0892D0E94F101882351F08E2D0E94C8
:101C2000F101882329F0802F0E94F101811107C062
:101C30001D50123058F082E080937808D0CFBE015A
:101C40006B527F4FCE0182539F4F2BCF0F3099F7AE
:101C5000BE01635F7E4FCE01895F9E4F22CF1F3151
:101C600009F497CE93E0F9120FC0063109F054C081
:101C70000E94EF00BE01882309F448C061577E4FDF
:101C8000CE018D579E4F0DCF21E0F21225C00431B9
:101C900079F3033109F442C0143009F448C0163016
:101CA00009F44EC08D2D8D7F843009F454C00A3064
:101CB00019F09BE0D91255C18091770885320CF458
:101CC0005AC0093009F460C08BE0D81609F466C028
:101CD0002AE0D21609F441C189E2D81264C0B3FEE9
:101CE00077C08EE280936D088FE2DF91CF911F91D4
:101CF0000F91FF90EF90DF90CF90BF90AF909F90AB
:101D00008F907F906F905F900C94C50463597E4FC5
:101D1000CE018F599E4FC5CE053139F4BE01605AB0
:101D20007E4FCE018A5A9E4FBCCE1A3039F4BE0186
:101D300065577F4FCE0188579F4FB3CE1B3039F484
:101D4000BE016D567F4FCE0180579F4FAACE86EFC2
:101D50008D0D823038F4BE0161577F4FCE0184571C
:101D60009F4F9FCE043019F086E0D812F0C08091CA
:101D7000770885323CF4BE0165567F4FCE01885608
:101D80009F4F8FCE053039F4BE0165567F4FCE018F
:101D90008C569F4F86CE26E0D212DCC08091770809
:101DA00085320CF4DBCD193209F499CF89EF810F1C
:101DB0008230C8F01C30B9F093E0F91261C063E0E2
:101DC000812F0E948D01882309F463C0802F24C0D5
:101DD0006F2D812F0E948D01882309F410CEBE0142
:101DE0006D577F4FB0C08091FC099091FD098770BD
:101DF000992723E0F21221C0892B31F461E0812F71
:101E00000E948D018111E2CF63E0892D0E948D0136
:101E1000882309F4F4CD812FDF91CF911F910F9189
:101E2000FF90EF90DF90CF90BF90AF909F908F90FA
:101E30007F906F905F900C94300C892B31F461E0AF
:101E4000812F0E948D01811109C061E0892D0E94BE
:101E50008D01882309F4D3CD882D01C0812FDF9116
:101E6000CF911F910F91FF90EF90DF90CF90BF9097
:101E7000AF909F908F907F906F905F900C940D0C1F
:101E800081E0F81206C061E0812F0E948D0181116E
:101E900008C0143341F48CE280936D081092410520
:101EA000AECD802FDCCFB3FE19C064E0812F0E943D
:101EB0008D018111A4CD812F0E94EF00882309F4A8
:101EC0009ECD8A2D0E94F101882309F498CDBE0190
:101ED0006B537F4FCE0180549F4FE3CD93E0F912B7
:101EE00009C086EF810F823008F421CF193009F044
:101EF00086CD31CF21E0F21282CD812F8D7F8430CB
:101F000009F415CF153009F07ACD25CF6EEF80E0BA
:101F10000E94B5007E0190EEE90EF11C8E010A527E
:101F20001F4F863209F042CEBE016D577F4FCE0162
:101F30008E579F4F0E94970BB701C8010E94970BC5
:101F4000BE016F577F4FCE0180589F4FAACD0530FD
:101F500009F41ACF94E0D912BFCEBE0169567F4F63
:101F600016CF093009F0B4CE0FCFFC0180819181EA
:101F70008D31F2E09F0768F4843121E0920738F454
:101F80008730E1E09E07C8F48F379105B0F081E01B
:101F90000895863BF2E09F0728F48E32924058F075
:101FA00083E00895833CE2E09E0738F08C3C934048
:101FB000B8F384E0089582E0089580E008958FE604
:101FC00098E00E94B50F63E072E0833011F462EB99
:101FD00073E0AB014D5F5F4F21E08FE698E00C941A
:101FE000710BAF92BF92CF92DF92EF92FF920F935D
:101FF0001F93CF93DF93182F80E894E0909381088C
:10200000809380089093830880938208C0916F0822
:10201000D0917008E090FC09F090FD0987E0E8227B
:10202000FF2417FF00C18FE698E00E94B50F082F2C
:10203000813039F0E8F0823009F4D0C0833009F003
:102040007DC060E080E00E94B500C82F60E081E0C4
:102050000E94B500C73009F0A8C0873009F0AAC0B7
:10206000EF2809F09DC067E170E081E190E031C0A8
:1020700060E080E00E94B500082F60E08FEF0E94D2
:10208000B500B82E60E081E00E94B500F82E60E057
:1020900082E00E94B500C82E61E080E00E94B50099
:1020A000A82E62E080E00E94B500E82E62E081E0A8
:1020B0000E94B500D82E0830C1F460E08E2D0E9439
:1020C0008D01882391F016FF28C06EE170E088E151
:1020D00090E0DF91CF911F910F91FF90EF90DF90F3
:1020E000CF90BF90AF900C94970B81E2A81238C0AC
:1020F00015FF05C08B2D0E94F10181112AC016FF2A
:102100001DC08C2D0E94F1018823C1F01092780827
:102110006EEC71E087EC91E0DCCFCE010E942305EC
:102120008111D3CF15FF05C062E470E08CE390E02D
:10213000D0CFCE010E940A058111F6CFDF91CF9159
:102140001F910F91FF90EF90DF90CF90BF90AF90D5
:102150000895109278086DE773E086E793E0B9CFB1
:1021600081E2E81202C0D816D9F00C3019F48CE0E4
:10217000F81639F00F51023008F781EE8F0D8230DA
:10218000E8F6CE010E94230581110AC0CE010E940B
:102190000A05882399F266E470E083E490E099CF21
:1021A00062E270E08FE190E094CFCC3069F48C3043
:1021B00009F456CF6C2F0E94FD04882309F4BECF8A
:1021C000033009F082CFB0CFC03219F4803291F7DA
:1021D00047CFCF3179F78F3169F742CF60E08FEF8A
:1021E0000E94B500C82F60E080E00E94B500D82FA3
:1021F00060E081E00E94B500D73059F4873009F4DF
:1022000032CFC73009F09ACF6BE370E085E390E0FE
:1022100060CFD03209F092CF803209F424CFC0329F
:1022200009F08CCFF1CF14FFFCC08FE698E00E943C
:10223000B50F082F813039F078F1823009F4CDC024
:10224000833009F07BCF6FEF80E00E94B500C82F8C
:102250006FEF81E00E94B500D82F8FEF013009F4B5
:1022600081E06FEF0E94B500D82E81E0013009F4C3
:102270008FEF6FEF0E94B500182F6D2D8C2F0E94ED
:10228000FD04882309F488C0013009F48EC06DE490
:1022900070E087E490E01DCF6FEF80E00E94B50012
:1022A000082F6EEF80E00E94B500F82E6FEF81E0FE
:1022B0000E94B500073081F4873081F516FD1CC0FF
:1022C000CE010E940A05811117C015FF1AC064E5EE
:1022D00070E08EE490E0FDCE0032D1F48032F1F473
:1022E0008F2D0E94F101882371F1109278086AE520
:1022F00070E089E590E0EDCE60E370E08AE290E086
:10230000E8CECE010E942305882309F417CFDFCF42
:102310000C3031F10F3111F48F3121F1CD3081E0EA
:10232000D807A9F582E0809378088AE590E0DF91EC
:10233000CF911F910F91FF90EF90DF90CF90BF90C2
:10234000AF900C94430216FDD7CFCE010E94230517
:102350008111D2CF15FDBBCFCE010E940A05D4CF8B
:102360008C30E1F6CE010E942305882329F064E336
:1023700070E081E390E0ADCECE010E940A05882393
:1023800009F4DCCE68E570E085E590E0A2CECC3BB8
:10239000D24009F0D3CEC6CF612F8C2F0E94FD040E
:1023A000882341F0033009F072CF69E270E083E2E4
:1023B00090E08FCE89EF8C0F823018F0CC3009F08E
:1023C000BDCE89EF8D0F823018F0DC3009F0B6CE2B
:1023D000EF2859F30130B1F6CACF6FEF8FEF0E94AB
:1023E000B500C82F6FEF80E00E94B500D82F6FEFC7
:1023F00081E00E94B500D83031F48830B1F2C830A5
:1024000009F09CCE44CFD13211F4813271F2C83040
:1024100009F494CEC13209F091CED13209F08ECEBA
:1024200036CF15FF88C08FE698E00E94B50F813047
:1024300009F490C0A0F0823009F461C063E08330F9
:1024400009F07CCE812FDF91CF911F910F91FF90EA
:10245000EF90DF90CF90BF90AF900C94530C60E062
:1024600080E00E94B500E82E61E080E00E94B500A7
:10247000D82F60E08FEF0E94B500082F6FEF8FEF2D
:102480000E94B500D82E61E08EEF0E94B500182F93
:1024900061E08FEF0E94B500C82F60E081E00E94EC
:1024A000B500F82E64E08C2F0E948D01811105C0CB
:1024B000CF3019F0DF3009F441CE81E2E8120CC0D0
:1024C000F8120DC0802F0E94F101882309F436CE46
:1024D00081E0809378083FCE8FE1E81689F3DF3002
:1024E00029F4CF3019F41D50123060F0CD50C230B5
:1024F00070F464E0802F0E948D0181110FC08EE284
:1025000092E015CF62EC72E08DEB92E0E2CDDF302D
:1025100081F76CEB72E089EB92E0DBCD8D2DDF91E2
:10252000CF911F910F91FF90EF90DF90CF90BF90D0
:10253000AF900C94300C16FF63C08FE698E00E94B9
:10254000B50F813051F058F0823009F456C0833015
:1025500009F0F4CD8DE192E0EACE61E073CF60E066
:1025600080E00E94B500F82E60E081E00E94B50096
:10257000082F61E080E00E94B500182F61E081E043
:102580000E94B500D82F60E082E00E94B500E82EDE
:1025900061E082E00E94B500C82F64E08D2F0E94A8
:1025A0008D01811105C0DF3019F01F3009F4C6CD4F
:1025B00081E2F8120CC0013279F48E2D0E94F101F3
:1025C000882309F4BBCD81E080937808A1CD8FE109
:1025D000F81202C00F3189F31F3079F4DF3069F44B
:1025E000CD5063E171E08EE091E0C23008F471CD2E
:1025F0006DE071E08AE091E06CCD8FE790E097CEDE
:1026000013FF9CCD8FE698E00E94B50F182F813004
:1026100039F038F1823009F466C0833009F08ECD8C
:1026200060E080E00E94B500C82F81E0133009F41B
:102630008FEF60E00E94B500C93219F0893209F0CD
:1026400040C08EE280936D088FE2DF91CF911F91A1
:102650000F91FF90EF90DF90CF90BF90AF900C94D0
:10266000C504C334D105E0F4C533D10508F066CD07
:10267000C131D10540F0CF31D10508F45FCDA3972A
:102680002E9708F45BCD84E090E0909381088093CE
:1026900080088AE090E090938308809382084ECD72
:1026A000C43181E0D80740F4C73081E0D80708F092
:1026B00045CDC754D109E4CFC65BD2402D9718F75A
:1026C0003DCD8FEA91E0133011F090E080E0DF9192
:1026D000CF911F910F91FF90EF90DF90CF90BF901F
:1026E000AF900C949E0B60E080E00E94B5008111D9
:1026F00009C081E292E0909381088093800887E28C
:1027000092E0C9CF88E292E090938108809380089C
:102710008DE292E0C0CF0F931F93CF93DF93082FEA
:10272000162F803409F473C02091FC093091FD0903
:10273000C8E3D0E0C21BD30B8FE698E00E94B50F30
:10274000282F80E190E0233011F488EF9FEF8C0F69
:102750009D1FAC014F705527452B39F0233009F4EC
:1027600068C028EF3FEF820F931F2091770865E242
:10277000621B362F3F7011F06DE1621B0E949B00BF
:102780008F3F09F444C099E0899FF0011124EB5A6E
:10279000F64F808108133BC081E090E090878783EB
:1027A0006381062E000C770B83E0759567958A95FB
:1027B000E1F77727818192818059910923E09595EE
:1027C00087952A95E1F79927A2E3A69FA001A79FE5
:1027D000500D1124475B5A4FFA01E80FF91F14827C
:1027E000FC0131964E0F5F1FEA011C826F5F7F4F25
:1027F000A69F9001A79F300D1124275B3A4F820FAF
:10280000931FDC0114961C92E20FF31F148281E0E7
:102810008093010A1093020A8091FF098250E82FE9
:10282000F0E0EF58F74F853038F4918191938F5F46
:10283000FACF28E030E097CF80E48093760880914B
:1028400079088150809379081092000A1092FF094C
:10285000DF91CF911F910F910895FF920F931F93D6
:10286000CF93DF93C82F8B01FF24F394833011F4AF
:10287000FF24FA9460E08F2D0E94B500D82F6EEFF0
:102880008F2D0E94B500F82E83E0C33009F48DEF40
:102890006EEF0E94B500E091FF0990E4E23028F06D
:1028A000E250F0E0E159F74F92812AED2F0D2330ED
:1028B00040F48652833028F49333D1F0973309F4EF
:1028C00040C0D83109F044C0953009F0A4C0B80127
:1028D00066567E4FC80180579E4F0E94970B61E25B
:1028E00082E0DF91CF911F910F91FF900C948B1399
:1028F00084E3C13041F51AE3933309F416E30E94EF
:102900008E0099E0899FF0011124EB5AF64F108355
:1029100014821086178286E490E0C33011F48EE1B1
:1029200090E02091FC093091FD09821B930B92836A
:1029300081839091770888E2891B838361E280E438
:10294000D0CF88E3D6CF19E39333C9F615E3D7CFB9
:10295000D93171F4993009F05EC0B8016B557E4FE2
:10296000C80185569E4F0E94970B61E28BE0B9CF5C
:10297000973021F488E680937F08E0CFDA3111F4B4
:102980009923A1F09A31A9F40E94F50180937B0864
:102990008F3FC9F1C80189529E4F0E944302C093E4
:1029A000010A8CE18093020A6CE1C9CF61E28EE0FA
:1029B00098CF9C3041F580917A088A3054F58B5F2E
:1029C00080937A0861E280E40E948B138FE30E9477
:1029D0008E0099E0899FF0011124EB5AF64F209167
:1029E000FC093091FD098CE390E0821B930B9283EC
:1029F00081839091770885E2891B8383148281E02B
:102A000090E096838583DF91CF911F910F91FF9086
:102A100008958EE0D5CF973009F0B4CFABCF83FFC8
:102A20003DC0E0916D08E252E93008F048C0F0E0A6
:102A3000E45EFA4E0C949039251544154615481558
:102A40004C1548154A1548154A158091FF098823E9
:102A500059F0813069F08FE698E00E94B50F81301F
:102A600051F0833069F0089583E280936D0827C0A8
:102A700082E20C94C50470E060E081E00C942D14B7
:102A80006FEA71E083E0FACF85E2EFCF89E2EDCF24
:102A900082E2EBCF85E0E9CF0C94C70287FF31C01B
:102AA00080916D08863229F030F4823249F0843208
:102AB00031F48150DACF8832E1F38A32D1F30895CC
:102AC0008091000A811104C08FEF99E00C946E048C
:102AD0008230A8F32091FF092150330B909179089F
:102AE0009217130689F381508093000A8FEF99E0C3
:102AF0000E946E048091FF09823009F71092000A4B
:102B0000089584FFDCCF80916D08853229F030F480
:102B1000823249F0833299F68F5FA7CF8732E1F393
:102B2000893269F6F9CF8091FF09682F70E04091F2
:102B30007908242F30E0F90131966E177F0709F4E8
:102B4000BECF9091000A91110FC0811104C081E0A5
:102B50008093FF090895F90131976E177F0734F4C8
:102B6000423021F48F5FF4CF882389F3813011F450
:102B7000423080F4215031099217130699F38230C4
:102B800059F493E09093FF09433008F4B7CF809352
:102B9000000A089582E0DCCF9F5F9093000AE2CFA5
:102BA0005C98FC012591CF012EBD00000DB407FEFD
:102BB000FDCF6150B1F75C9A0895DC0146175707C5
:102BC000A0F09D969C919D979E3061F0E92FF0E0DA
:102BD000EE0FFF1FEA0FFB1F528B418B9F5F9D96ED
:102BE0009C939D9741505109E9CF08952F923F92B0
:102BF0004F925F926F927F928F929F92AF92BF920D
:102C0000CF92DF92EF92FF920F931F93CF93DF93B8
:102C100000D000D000D0CDB7DEB70091D50910911B
:102C2000D6090F5F1F4F1093D6090093D509037083
:102C300011270115110509F016C1F09044050E94F5
:102C4000B8042091CA0890916D08211186C2E4EE63
:102C5000E90FE83108F027C0F0E0EF5CF94E0C9482
:102C600090398B1771175316531653164E174F166C
:102C7000481748174817481748174817481748175C
:102C80005817491653165316341834183418341874
:102C9000341882FF08C082E20E94C50404C082FD8D
:102CA000FACF0E940F158091770895E2C92EC81AB5
:102CB000D12C05E519E04601B0E18B0E911CAA2448
:102CC000A394B12CF80180818F3349F0833009F44B
:102CD00018C2075F1F4FF9E0033D1F0799F7809166
:102CE000CA0881115FC38091800890918108803863
:102CF000944061F0809182089091830800916F0860
:102D0000109170088038944009F04FC30BEC18E024
:102D1000D12CC12C48E3842E912C52E2252E54E074
:102D2000352E69EE462E63E0562E74E1672E712C27
:102D3000D80111962D913C9112972115310509F476
:102D400088C09D96EC919D97EE2311F40C942D2153
:102D5000E1509D96EC939D97F0E0EE0FFF1FE00F82
:102D6000F11FE188F2881596FC92EE921497B70154
:102D7000660F771F660F771F80E06D5D774D8F4F71
:102D80000E94870364E070E0CE0101960E94370341
:102D90000E94F102F80183819981891B83839B81C1
:102DA00021813281290F311D97FD3A95328321838C
:102DB0009081923011F40C940320933011F40C9410
:102DC0004820913089F5F4EEEF16F3E0FF0629F084
:102DD0004DE1E41644E0F40639F593E05DE1E516D3
:102DE00054E0F50609F091E040916D084D31E1F0B5
:102DF000933011F00C94002096E1D80118969C9322
:102E000018971D964D915C911E97440F551F440FC6
:102E1000551F50965C934E931F971A963C932E9392
:102E2000199787501B968C93EE0CFF1CB70180E01E
:102E30006D5D704E8F4F0E9487030E94E6027C01F9
:102E40000E94F102BFEFEB16FB0619F0F801F582C4
:102E5000E482FFEFCF1ADF0A025D1F4F23E0C216A4
:102E6000D10409F065CF8091010A813011F40C94EE
:102E7000DB23833011F00C945E238091FE098136B0
:102E800010F40C945B2382508093FE090C945E2313
:102E900082FF07CF82E280936D0805CF82FDFBCED3
:102EA000809143058111FFCE8F2D0E94F10FFBCE43
:102EB0008C7009F4F8CE8091D3099091D4098F3F9A
:102EC0009F4331F4109249050E94570285E0E3CFF9
:102ED00080917D0890914205890F80937D0884E35D
:102EE000DACF8C7009F4DFCE80917E08823068F0F2
:102EF0000E94C7028EE080937A0880917E088150FC
:102F000080937E080E945702CECE1092490585E03C
:102F100080936D08F7CF80917B088F3F21F40E944A
:102F2000F50180937B08E0917B083FE0C32E37E2F8
:102F3000D32EEF3F99F08091FC099091FD0948E371
:102F4000C42ED12CC81AD90A3EE2E39FF001112405
:102F5000E553F74F81819281C81AD90A60E081E078
:102F60000E94B500B82E60E08FEF0E94B500E82EF9
:102F70008FE698E00E94B50F833071F09E2DEB2C08
:102F8000B92EF3FE0CC0B80164517E4FC8018A51BE
:102F90009E4F0E94970B87CE0FEA11E0F2CFF4FE0E
:102FA00021C081E280936D088FE790E090937008D4
:102FB00080936F08E1E7F8E090E080E02191203411
:102FC00061F48159974F2AE1DC0112962C9380918C
:102FD00079088F5F8093790866CE019685309105D8
:102FE00069F7F5CFF2FE09C0E11007C0B8016352DE
:102FF0007E4FC80188529E4FCCCFF6FE1BC0813059
:1030000091F0833009F04FCE1C141D043CF462E9AA
:1030100073E081E993E0B11046CEBBCF87ED91E03C
:103020000E94430240CE6FED71E08EED91E0E11021
:103030003ACEAFCFF5FE37CE813051F0833009F074
:1030400032CE6EE873E08DE893E0E1102CCEA1CF94
:10305000D7FE07C0B11027CE63EE71E082EE91E09B
:1030600098CF86E893E0DCCF83FF31C0903351F0F6
:1030700020F49F3209F1F12C16CE92539230D8F7FA
:1030800080E32AC080917D08853090F091E3909391
:103090006D08855080937D086AE080E00E942B02D5
:1030A000823020F480E080934205E5CF88E6FBCFB4
:1030B00080E30E94C504DFCF8091440580934005E2
:1030C0000E9424038093440580916D08F2CF87FF0E
:1030D00006C08FE2903379F680936D08CCCF84FFE1
:1030E00007C09F3241F680917D08853020F2C8CF1D
:1030F00082FFC1CF81ED890F823008F0BCCF892FCC
:10310000D8CF218132814091FC095091FD09838102
:103110009481973009F4DDCD65817681672B09F0C4
:10312000D8CD240F351F235331092331310508F041
:10313000D0CD082E000C990B9C012F5F3F4F281516
:1031400039050CF0C6CD0396C816D9060CF0C1CDD2
:10315000B682A5820E94DF0FBCCD913209F0BFCDAF
:10316000F3FEBDCD80916F08909170088E3AB1E06A
:103170009B0709F4BCC090F5863AF1E09F0709F47B
:10318000B6C08A3A21E0920709F4B1C080389105AF
:1031900009F0A5CD6EEF80E00E94B500E82E60E05A
:1031A00081E00E94B500182F6FEF82E00E94B50009
:1031B000082FB6E2EB1609F492CD113009F479C06C
:1031C00085EE810F823008F474C0173109F07BC09E
:1031D00021E040EE50E067ED70E070C0853533E0EF
:1031E000930789F140F58F32924009F078CD6EEF68
:1031F00080E00E94B500E82E60E08FEF0E94B500ED
:10320000182F6FEF8EEF0E94B500082FE6E2EE1642
:1032100009F465CD113009F4A5C085EE810F823027
:1032200008F4A0C0173109F0A3C021E04FE852E034
:1032300066E872E043C0893563E0960721F08D357A
:10324000934009F04CCD60E08FEF0E94B500D82E7E
:103250006FEF80E00E94B500082F6FEF8FEF0E94A4
:10326000B500182F6FEF8EEF0E94B500E82E8D2D60
:103270000E94F101882309F432CD802F0E94F101D0
:10328000882351F0812F0E94F101882329F08E2D8F
:103290000E94EF008111C9CF802F0E94EF00882388
:1032A00009F41DCD812F0E94EF00882309F417CD6A
:1032B00073C021E046E051E062E071E08FE698E003
:1032C0000E94710B0CCD153309F482CF64E0812F7D
:1032D0000E948D01882329F0802F0E94EF00811128
:1032E0003BC021E04DEC50E067EC70E0E7CF60E0E0
:1032F00081E00E94B500D82E6FEF81E00E94B500FA
:10330000082F6FEF82E00E94B500E82E6FEF83E098
:103310000E94B500182F8D2D0E94F101882309F419
:10332000DECC802F0E94F101882351F08E2D0E9467
:10333000F101882329F0812F0E94EF00811148CFED
:10334000802F0E94EF00882309F4C9CC812F0E94AE
:10335000EF00882309F4C3CC21E045ED50E06FEC89
:1033600070E0ACCF21E045EB52E061EB72E0A6CF1C
:10337000153309F45ACF64E0812F0E948D01811129
:1033800006C021E04CE752E066E772E097CF802F5D
:103390000E94EF008823A9F321E044E852E06EE7A1
:1033A00072E08CCF0E9493038C01A5E5AA2EA9E0C0
:1033B000BA2E1D823F2D38703E83B0E84B2EB4E00C
:1033C0005B2E22242394312C80917708F5E28F2EF6
:1033D000881A912CD5018C918B3009F06BC0149612
:1033E0009C91983009F069C0FD81FF5FFD8329E061
:1033F000A20EB11CFE3041F76091800870918108E7
:10340000603834E07307D1F040918208509183080E
:10341000403884E0580791F020E08FE698E00E9461
:10342000710B80E894E090938108809380089093DA
:103430008308809382080E9493038C010C3192E0F0
:10344000190709F451C308F066C30B37B1E01B0735
:1034500008F069C20937E1E01E0708F0D4C40D3C4A
:10346000110509F435C208F028C20738110509F41E
:103470002FC208F0F1C10A35110509F454C403380C
:10348000110509F425C2000F111FB80180E06D5D20
:10349000704E8F4F0E9487030E94E6028C010E94AB
:1034A000F1020F3F100709F431CC1093700800931C
:1034B0006F082CCC8F3309F49FCFF501C180D280E7
:1034C0002091FC093091FD09C20ED31EE3800E2C21
:1034D000000CFF083701FFEF6F1A7F0A843109F4EF
:1034E00056C108F06EC0853009F445C0E8F5882360
:1034F00009F441C0843009F077CF80916F08909132
:103500007008853862E0960708F438C18039924027
:1035100008F46ACF8FE698E00E94B50F813009F475
:1035200063CFF50187819085892B09F05DCFF4E3A6
:10353000CF1AD10828E0C216D10408F055CFC40133
:103540004096681679060CF04FCF33E0E30EF11C7D
:103550008E149F040CF048CFD50118963C922E9201
:1035600017970E94DF0F40CF893029F08C3019F077
:10357000873009F039CF80917908863008F034CF50
:10358000F1E3CF1AD10827E1C216D10408F02CCFFD
:10359000C4014096681679060CF026CF3FE0E30E92
:1035A000F11C8E149F040CF01FCFD50117968D913E
:1035B0009C91892B09F018CFC5010E94E10485E098
:1035C00083C08D3208F050C08B3208F080C08A3141
:1035D00091F2893209F008CFB1E3CB1AD108E7E1C3
:1035E000CE16D10408F000CF9401205F3F4FC701F1
:1035F0000996821793070CF0F7CEFBE0EF0EF11C53
:103600008E149F040CF0F0CE80916D088B3209F47B
:10361000EBCE20E120934305509281084092800830
:1036200050928308409282088BE280936D088091CB
:10363000E309A10102C0440F551F8A95E2F7CA01B0
:103640002091D3093091D409822B932B9093D409E4
:103650008093D3091092410563E188E00E942B0218
:103660008093420581E030C0873309F484CF8B33E7
:1036700021F0833309F0B8CE7ECF21E3C21AD108FE
:1036800037E1C316D10408F0AFCEC40140966816E6
:1036900079060CF0A9CE4FE0E40EF11C8E149F04C5
:1036A0000CF0A2CED50117968D919C91892B09F033
:1036B0009BCEC5010E94E10480917D08F5019581B2
:1036C000890F80937D0886E00E949C058DCE51E392
:1036D000C51AD10867E1C616D10408F085CE940159
:1036E000205F3F4F621673060CF07ECE9FE0E90E1E
:1036F000F11C8E149F040CF077CEAE81AA2309F43E
:1037000073CEB0E1B0934305509281084092800897
:1037100050928308409282088B3249F58CE2F50181
:10372000808390E080E04D814F5FF50125813681F7
:10373000082E02C0359527950A94E2F720FF11C0A4
:10374000E42FE80F29E0E29FF0011124EB5AF64F35
:103750001086178220812D3211F02F3261F431E072
:10376000348301968F30910501F783E0ADCF8BE272
:10377000D5018C93D6CF58E05483F3CF863D910585
:1037800008F4C8CE813E910508F42ECEC3CE8091B8
:103790006F08909170088538B2E09B0708F450C01C
:1037A0008039924008F420CEF7E3CF1AD1082BE0FD
:1037B000C216D10408F018CE9401205F3F4FC70114
:1037C0000E96821793070CF00FCE30E1E30EF11C3A
:1037D0008E149F040CF008CE80917A0818160CF015
:1037E00003CE10927A088FE698E00E94B50F8130E0
:1037F00081F1EFEAEE2EFF24F394833009F0F4CD4B
:10380000D50113968C91B5E2B81BB093770821E0EF
:10381000A70148505E4FB70163517E4F8FE698E095
:103820000E94710BF50181819091FC09890F8770CD
:1038300009F0DACDC70186509E4F0E944302D4CDD5
:10384000863D910508F4B0CF813E910508F4CCCDBA
:10385000ABCFF12CE12CD4CF073A110541F00E3A51
:10386000110509F483C1053A110509F00CCE6FEF7B
:1038700080E00E94B500182F6EEF80E00E94B50036
:10388000082F4FEF60E0812F0E945C01882309F42C
:103890005DC24EEF60E0802F0E945C01882309F436
:1038A000CAC267EA70E086EA90E00E94970B8091B6
:1038B00078088F5F8093780829CA0B3E1105B9F20A
:1038C00018F5053D110521F0003E110509F0DBCD8D
:1038D0006FEF80E00E94B500F82E6FEF81E00E944C
:1038E000B500082F6FEF8FEF0E94B500182FACE1E5
:1038F000FA12E0C10C3109F0E7C169EA71E086EA29
:1039000091E00E94970B02CA0036F1E01F0709F40C
:10391000AECF0D3621E0120709F475C2063F11053E
:1039200009F0B1CDA4CF083F31E0130709F4DCC0A2
:1039300008F0CDC0013B51E0150709F498CF58F4C9
:10394000023881E0180709F45EC2093A91E01907CC
:1039500009F4BECF98CD0E3CA1E01A0709F487CF39
:103960000A3DB1E01B0709F08ECD00917B08EEE225
:103970000E9F800111240553174FD8011396FC9018
:10398000139711962D913C91C90137FD079673E06D
:10399000959587957A95E1F7E12C82319105A4F010
:1039A0004F2D0F2C000C550B63E0559547956A95EC
:1039B000E1F762E3649FF001659FF00D1124E80FC9
:1039C000F91FE55CFA4FE080C901409697FD079624
:1039D00043E0959587954A95E1F7B12C82319105A1
:1039E000A4F04F2D0F2C000C550BB3E055954795C7
:1039F000BA95E1F762E3649FF001659FF00D112431
:103A0000E80FF91FE55CFA4FB080F801878181115A
:103A10007DC9C090FC09D090FD09C20ED31EC8011B
:103A20000E943D09813019F4F2E0CF0ED11C809143
:103A30006F08909170084CE450E08A3D914011F07D
:103A400043E350E0809177084C155D050CF45EC9A6
:103A500036E0C30ED11C4C155D050CF057C92F2D57
:103A6000FF0C330B082E000C990B49974427552760
:103A7000421B530B841795070CF448C940E150E0F2
:103A8000421B530B841795070CF040C98CE0D801FA
:103A900017968C9384E00E949C0562E0C80106960C
:103AA0000E94750481114AC2C8010E943D098130FB
:103AB00009F43CC2833009F029C94FE354E06CE3B8
:103AC00074E0B11023C9C8010E947D261FC90630C9
:103AD000E2E01E0749F088F40E3F21E0120721F0D2
:103AE0000230100709F0CFCC10927A088DE1809354
:103AF0006D081092410580E056C00E3042E0140778
:103B000099F3053152E0150779F30A3062E01607A0
:103B100009F0B9CCE9CF0A3283E0180708F083C076
:103B2000083293E0190708F0B6C10C37A2E01A0773
:103B300009F4CECED8F50435E2E01E0709F454C0EE
:103B400058F4023322E0120709F4C2CE063332E001
:103B5000130709F4BDCE97CC063542E0140709F4EB
:103B600043C00D3552E0150709F08DCC8FE30E945C
:103B70008E0099E0899FF0011124EB5AF64F2091B5
:103B8000FC093091FD098CE390E0821B930B92833A
:103B900081839091770885E2891B8383148282E078
:103BA00090E0968385830E949C05B0C80A3962E044
:103BB0001607D1F058F4043892E0190709F488CEBA
:103BC0000F38A2E01A0709F483CE5DCC0F30B3E0C2
:103BD0001B0751F00C31E3E01E0709F45CC1053A04
:103BE000F2E01F0709F04FCC6FEF80E00E94B500B4
:103BF000182F6EEF80E00E94B500082F4FEF60E0B5
:103C0000812F0E945C01882309F48DC14EEF60E092
:103C1000802F0E945C01882309F455C166E572E09B
:103C200085E592E042CE0D3A23E0120709F45CCF1D
:103C300000F5003643E01407B9F258F4013363E0AD
:103C4000160709F428C1083583E0180709F440CEA7
:103C50001ACC093893E0190709F487CE073AA3E094
:103C60001A0709F441CF0D37B3E01B0709F4BCCFA5
:103C70000ACC093BE3E01E0709F436CF58F4013BB8
:103C800023E0120709F430CF053B33E0130709F4B2
:103C90002BCFF9CB043C43E0140709F425CF0B3CB0
:103CA00053E0150709F420CF0D3B63E0160709F038
:103CB000EACB1ACFBBE1FB1229C88B3179F468E556
:103CC00073E085E593E01DCE802F0E94EF008823EE
:103CD00071F06DEA71E08AEA91E013CE0E94EF0084
:103CE000882399F06CE573E089E593E00ACE802F94
:103CF0000E94F101882311F40C9486161092780822
:103D000061EB71E08EEA91E0FCCD812F0E94F10120
:103D1000882311F40C9486161092780860E673E0FC
:103D20008DE593E0EECD6FEF80E00E94B500182F97
:103D30006EEF80E00E94B500F82E812F0E94F10105
:103D400081110CC080EF810F823040F081E890E05B
:103D50009093700880936F080C94861600917808F1
:103D60000F5F009378088F2D0E94F10181110DC023
:103D700080EF8F0D823048F080EF810F823050F459
:103D80006EE770E083E690E0BCCD6AE570E089E51F
:103D900090E0B7CD133039F01652133020F00330D5
:103DA00038F00330C1F066E072E083E092E00CC0CE
:103DB0008091FC099091FD0987709927892B31F03A
:103DC00063E870E082E890E00E94970B6EE570E097
:103DD0008BE590E096CD8091FC099091FD0987706C
:103DE0009927892B31F063E870E082E890E00E9427
:103DF000970B62E08AE798E00E94750462E670E043
:103E00008FE590E07ECD6FEF80E00E94B500182F27
:103E10006EEF81E00E94B500143109F028CD8431A5
:103E200009F025CD8AEC98E00E946B0462E871E00D
:103E30008BE791E066CD133059F466E072E083E0E1
:103E400092E00E94970B6BEA70E088EA90E059CD0F
:103E5000165265E172E08FE092E0133008F451CD24
:103E600080917808833078F3853050F462E08AE7F7
:103E700098E00E9475046FEA70E08CEA90E041CD12
:103E800066E072E083E092E00E94970B67EA70E0E0
:103E900086EA90E036CD6FEF80E00E94B500182FE3
:103EA0006EEF8FEF0E94B500163109F09DCE86317E
:103EB00009F09ACE8AEC98E00E946B0461E373E00B
:103EC0008AE293E01ECD133059F465EB73E082EB88
:103ED00093E00E94970B6AE572E087E592E011CDCE
:103EE000165264EC73E08EEB93E0133008F409CDC6
:103EF00080917808833078F3833059F065EB73E074
:103F000082EB93E00E94970B66E572E085E592E014
:103F1000F8CC62E08AE798E00E9475046EE572E0F2
:103F20008BE592E0EECC80E392E012CFE1100C94AE
:103F3000861646E054E063E074E0C5CD8091FC094C
:103F40009091FD09A8E3EA2EF12CE81AF90AF8018C
:103F500081819281E81AF90A81E280936D088FEFDE
:103F600099E00E946E04C8018D960E946B048FE652
:103F700098E00E94B50F4EE252E0833011F04FE717
:103F800050E02091CA082332D9F0822F90E0880FA8
:103F9000991F875B9A4FF5E089349F0751F0FC0128
:103FA000E75CFC4F60817181329671836083029778
:103FB000F2CF50938508409384082F5F2093CA085E
:103FC000C8010E943D091E141F047CF040E654E025
:103FD00064E574E0833021F04DE654E061E674E07E
:103FE000C8010E94DD150C94861643E554E067E491
:103FF00074E08330A9F34AE754E06EE674E0F0CF52
:1040000098E10C94FD16C701835294400E9710F06E
:104010000C9414174DED4E0D68E876E180E00E9497
:104020005A03B82E8CE10E948E00B9E08B9FF001FC
:104030001124EB5AF64FB482E7E2EE16E4E0FE06F6
:1040400011F00C94141763E080E00E942B02825E52
:10405000D80118968C93189750967C926E921F9761
:1040600088E790E01E969C938E931D9713968C91F3
:104070001397825F1B968C931B9711968D919C9141
:10408000129740971A969C938E9319970C94141735
:10409000BBEFEB16B3E0FB0639F0E4E3EE16E4E029
:1040A000FE0611F00C94141780917C0881110C9479
:1040B0001417E0917B08EF3F31F40E94F5018093E3
:1040C0007B080C9414172EE2E29FF0011124E553B3
:1040D000F74F609177088481958146EF5FEF8433D5
:1040E000944011F041E150E080917F08882321F055
:1040F00010927F080C941417218132818091FC0961
:104100009091FD09820F931F840F951FCD970697FD
:1041100010F00C941417062E000C770B23818CE002
:1041200090E0821B910927FD93959B01255231094F
:104130008217930714F40C941417655171098617AC
:10414000970714F00C9414178CE080937C0883E09C
:104150000E949C0580916F0890917008873D41E016
:10416000940708F446C08D3E51E0950720F086582C
:1041700093404697F0F564E081E00E942B02682F9F
:104180008AE798E00E947504882311F40C941417B0
:104190008091FC099091FD095401A81AB90AD8012F
:1041A00011968D919C91A81AB90A8AEC98E00E9408
:1041B0006B04C8010E943D098330F1F48EE094E065
:1041C000F80125A52E3021F137E13C9DF0013D9D00
:1041D000F00D1124E20FF11DEE0FFF1FE452F74F17
:1041E000322F332361F052914291538342833150F5
:1041F000F8CF67E083E0C1CF85ED93E0E1CFD80150
:1042000052969C938E93519781E0820F9D968C934A
:104210008FE698E00E94B50F813099F0833011F05D
:104220000C9414176DEB73E08AEB93E01A141B04E3
:1042300024F069EB73E086EB93E00E94970B0C94FB
:1042400014176EE072E08BE092E01A141B04ACF7D6
:104250006AE072E087E092E0F0CF80917A088823EC
:1042600011F40C94331716968C911697882311F439
:104270000C9429171396EC91C901089797FD07969E
:1042800073E0959587957A95E1F7B12C8231910588
:10429000ACF04E2F0E2E000C550B63E05595479554
:1042A0006A95E1F7F2E3F49FB001F59F700D1124D8
:1042B000860F971FDC01A55CBA4FBC90C9014096E0
:1042C00097FD0796B3E095958795BA95E1F7A12CF0
:1042D00082319105A4F00E2E000CFF0BA3E0F595A2
:1042E000E795AA95E1F762E36E9FA0016F9F500DDD
:1042F0001124840F951FFC01E55CFA4FA080F801A2
:104300004081433009F449C040F5413011F00C942C
:1043100029178091FC099091FD0940E450E0481B69
:10432000590BCA012417350728F4448155814232BC
:10433000544079F18217930710F00C942917D80193
:1043400014968D919C91893E934011F00C942917FD
:10435000F801358224820C942917463010F00C9411
:1043600029178091D5099091D60960E370E00E94E9
:104370006839892B11F00C94291784819581443078
:1043800009F043C38B37944009F092C18CE794E065
:104390008AC1558244820C9429178091FC0990911E
:1043A000FD097401E81AF90AE21AF30AC8010E9429
:1043B0003D09833009F0C7C0B1101EC0D8011D9659
:1043C0008D919C91919581959109E816F90654F08B
:1043D000BBEDEB16BFEFFB062CF449E354E068E3BA
:1043E00074E085C0C70185960A9730F465E080E0E7
:1043F0000E942B02882389F3C7014B96049708F08B
:1044000061C080916F0890917008883DE1E09E073F
:1044100040F08B3DF1E09F0760F18E3D914008F444
:1044200043C0B1100C942917A1100C94291768E10E
:1044300080E00E942B0281110C94291764E00E94F5
:104440002B02811107C04DE354E06CE374E0C80116
:104450000E94DD154DE354E06CE374E0C8010E9456
:10446000DD1547E354E062E374E0C8010E94DD1506
:10447000B4CF65E080E00E942B02811115C047E3B4
:1044800054E066E374E0C8010E94DD1521E04DEDC3
:1044900051E06CED71E08FE698E00E94710BC8016D
:1044A0000E94CB050C942917B1100C94291760E1D8
:1044B000A1100C94291780E00E942B0281110C940A
:1044C0002917C8CFC70147964497B0F4AA2029F00E
:1044D000B1100C9429176CE0EECF65E080E00E94EB
:1044E0002B024DE354E06CE374E08111F1CFC8017D
:1044F0000E94DD150C94291733E0E30EF11C4BEEFE
:10450000E41643E0F40610F00C942917D8019D96A8
:104510008C919D978E3011F40C94291797E19C9DF6
:10452000F0019D9DF00D1124E80FF11DEE0FFF1F0E
:10453000E452F74F28EF33E0318320838F5F9D965D
:104540008C930C942917A1101AC032E2E316F104DF
:1045500064F0D8011D968D919C918E159F052CF0CD
:1045600040E054E06FEF73E0C2CFC70144970E976D
:1045700030F465E080E00E942B02882389F3C701B4
:104580000596499708F055C080916F089091700882
:104590008738B3E09B0738F08A38E3E09E0758F18C
:1045A0008D389340D8F1B1100C942917A1100C94B8
:1045B000291768E180E00E942B0281110C942917D1
:1045C00064E00E942B02811107C044E054E063E0E4
:1045D00074E0C8010E94DD1544E054E063E074E03B
:1045E000C8010E94DD154EEF53E069EF73E0C8018A
:1045F0000E94DD15B5CF65E080E00E942B0281119D
:104600000DC04EEF53E06DEF73E0C8010E94DD1561
:1046100021E04CE853E06BE873E03DCF60E1B1107E
:104620000C94291780E00E942B0281110C94291709
:10463000D3CFC7010C96079790F4AA2029F0B110A8
:104640000C9429176CE0EECF65E080E00E942B020D
:1046500044E054E063E074E08111F1CF48CF29E1F8
:10466000E21A2CEFF20A3BEDE31633E0F30610F00A
:104670000C942917D8019D968C919D978E3011F43A
:104680000C94291797E19C9DF0019D9DF00D11243C
:10469000E80FF11DEE0FFF1FE452F74F21E334E066
:1046A0004BCF8EE794E0F801958384830C9429170F
:1046B0008BE794E0F8CF84E08093010A0BEC18E0DC
:1046C00085E5682E89E0782E95E2592E21E2422E6A
:1046D00033E0C32ED12C44E2A42EB12C57E2852E18
:1046E000912CD80111968D919C91892B09F1C801CB
:1046F00007960E946E047801B8E0EB0EF11CF801F9
:104700008085863138F08A3108F464C08E51883053
:1047100008F47AC0F8018085813208F0A2C08E3199
:1047200008F017C1863109F4A3C0883109F4A0C08C
:10473000025D1F4F60167106A1F68CE798E00E949B
:104740006E04809141058E3038F49091D50990FD2A
:1047500003C08F5F8093410580914305882319F042
:1047600081508093430580917F08882359F02091E0
:10477000D5093091D60923703327232B19F48150A2
:1047800080937F0826960FB6F894DEBF0FBECDBF8C
:10479000DF91CF911F910F91FF90EF90DF90CF901D
:1047A000BF90AF909F908F907F906F905F904F9051
:1047B0003F902F9008958091FE0987FD03C08E5F82
:1047C0000C94441784E08093010A8091020A80933C
:1047D0006D0874CF85A581119DCF6CE80E942B02D6
:1047E000811198CFC8010E943D0969E370E08330D0
:1047F00011F070E060E0AB0147515C4F63527C4FB9
:10480000C8010E94DD1586CF858596851816190684
:104810001CF4019796878587D8011D968D919C91F0
:104820001E97892B09F076CF80916D088D3109F4A0
:1048300071CF9D968C9181116DCF68E20E942B0201
:10484000811168CFC8010E943D0969E370E083309F
:1048500011F070E060E0AB0149505C4F66517C4F55
:10486000CFCF813309F064CFC7010E94650960CFC3
:10487000C7010E94650940917708D8011B962C91C9
:104880001B9719968D919C911A976091FC097091D4
:10489000FD09860F971FC697429708F049CF042E4F
:1048A000000C550B822F220F990BB501681B790B59
:1048B0009A01205F3F4F621773070CF039CFF40164
:1048C000E81BF90B4E175F070CF032CF80917F0881
:1048D000882361F010927F08D80118968C91189760
:1048E000863199F587E118968C9322CF80917A08CA
:1048F000843014F51896FC908FE698E00E94B50F6E
:10490000B8E1FB1212C06BEF71E0813011F06EEA7A
:1049100073E0F394F801F086AB014D5F5F4F21E047
:104920008FE698E00E94710BD7CF6FEF71E0813076
:1049300081F36AEA73E0EDCF9CE090937C081092DB
:104940007B08845080937A08C7CF89E1F80180877B
:10495000EFCEC7010E94650920917708D80119960A
:10496000ED90FC901A971B963C908091FC099091D9
:10497000FD098E0D9F1DCB970D9708F0D9CEB52D53
:10498000B21B2B2F30E0832D032C000C990BA901B7
:10499000405F5F4F841795070CF0CACE0496281726
:1049A00039070CF0C5CEF8018785908901974297A9
:1049B00008F0BECE80917F08882319F010927F08FE
:1049C000B7CE40861486D08AC7868FE30E948E00B9
:1049D000B9E08B9FF0011124EB5AF64FF282E1828D
:1049E000338214828FE698E00E94B50F6BE072E08C
:1049F000813011F066EB73E0AB014D5F5F4F21E05A
:104A00008FE698E00E94710B93CE8D37944009F4A5
:104A100048CE8DE794E047CE0F920FB68F939F93C9
:104A2000EF93FF93809135058D5F8D3708F08D579B
:104A300080933505E6E3F5E080818E4F8083918198
:104A40009F4F918382818F4F828383818F4F838396
:104A5000EAE3F5E080818F5F808381818F4F8183DE
:104A600082818F4F828383818F4F83838FB18F6049
:104A700066991C9B88278F3681F480913405981B9A
:104A8000963068F0E0E0F8E087E78083818388E192
:104A900080936000F0936000FFCF90933405FF9106
:104AA000EF919F918F910FBE0F9018951F920F92CB
:104AB0000FB60F921124AF92BF92CF92DF92FF9266
:104AC0000F931F932F933F934F935F936F937F9316
:104AD0008F939F93AF93BF93EF93FF93CF93DF9306
:104AE00000D01F92CDB7DEB780912E05882391F1BB
:104AF00080912205811104C080912F05882351F1F6
:104B00004091980050919900569547955695479534
:104B100080912205811141C030E020E08FEF9EE3BB
:104B200060912F05662309F4ADC0E1E1F1E06191E8
:104B3000662309F4A7C0A191B191E0910F01F09112
:104B400010014E0F5F1F4A175B0708F475C04A1B20
:104B50005B0BF9CF8FEF9FEF9093990080939800B4
:104B60000F900F900F90DF91CF91FF91EF91BF9138
:104B7000AF919F918F917F916F915F914F913F91F5
:104B80002F911F910F91FF90DF90CF90BF90AF902A
:104B90000F900FBE0F901F901895A0911901B09122
:104BA0001A0122E02983F5E1CF2EF1E0DF2E13E296
:104BB000A12E15E0B12E8FEF9EE3F501F1906191EA
:104BC00071918B015F01F11019C0E2E0CE0ED11C92
:104BD000F981F13081F460911F056A9F90016B9F0C
:104BE000300D1124359527953595279535952795C1
:104BF0003595279595CF31E03983DFCFF6012081B8
:104C00003181240F351F2617370710F0261B370B6D
:104C1000769567952617370718F4AF0DB11D8B01F0
:104C2000F601219331936F01021B130B081719072B
:104C300008F0CECFC801CCCFFD01F695E79570E026
:104C40004E175F0720F0719561957109FD01AFE086
:104C5000B1E04D935D93E41BF50BE817F90708F4F9
:104C6000CF01E0911E05E69FA001E79F500D1124A2
:104C7000559547955595479555954795559547951C
:104C8000240F351F880F991F880F991F813044E02A
:104C90009407A8F0019788279C7F9C5F90939900C8
:104CA00080939800293731056CF428388FEF380746
:104CB0005CF020581092BF002093CF0051CF80E0CD
:104CC00094E0ECCF28E7F5CF28E8F3CF1F920F92BE
:104CD0000FB60F9211248F939F9382E496E09093E6
:104CE00089008093880081E080931B059F918F91BC
:104CF0000F900FBE0F901F901895DC0146175707B5
:104D0000F8F09D968C919D978E30B9F0E82FF0E0E9
:104D1000EE0FFF1FEA0FFB1FAE17BF0731F027850D
:104D20003089328B218B3297F7CF52965C934E931A
:104D300051978F5F9D968C939D9741505109DECF7F
:104D4000089581E080934A0580934B0587E0809326
:104D50004C0510926D0810926E0810927008109217
:104D60006F0886E0E0E0F1E0A1E7B8E001900D9285
:104D70008A95E1F785E28093770880E894E0909344
:104D80008108809380089093830880938208E4E8E8
:104D9000F8E01192119288E0EA3CF807D1F71092FE
:104DA000CA08EBECF8E08EE086831782DF015196AB
:104DB0009F01235D3F4F1D921D922A173B07D9F794
:104DC00015A6BE9699E0E535F90771F71092E2094C
:104DD0001092E1091092E7091092E6091092F90980
:104DE0001092F8091092FB091092FA091092FD092D
:104DF0001092FC0984E08093010A82E28093020A07
:104E00000895CDB7DEB72D97DEBFCDBF91E090936B
:104E1000E0001092E2001092E10080E28093D8005E
:104E20001092D70080916500806880936500789427
:104E300083E084BD83E085BD90936E00E1E8F0E0FF
:104E400083E08083E0E881E08083E1E983E08083A0
:104E5000E0E981E08083E1EC87E08083E3EC81E0BE
:104E60008083E0EC82E08083E2EC81E08083EAE70B
:104E700087E080838068808381EC80937C0081EF71
:104E800085B987EE84B982E38BB982EF8AB9769AC5
:104E90006E9880EF81BB10BA80E58CBD9DBD0E94ED
:104EA000F7025F9A0E94F7025C98ECEAF0E08591C5
:104EB0008EBD00000DB407FEFDCFE93BC1F75C9A43
:104EC00081E88093640011E01093650068E089EB4D
:104ED00090E00E94D0159FB7F89422E436E030931A
:104EE00089002093880083E0809380008BE1809389
:104EF0008100109285001092840080916F00826082
:104F000080936F009FBF5E9AE4E1F0E083EA9EEE3B
:104F100060EF7FEF259135915591459128513549A5
:104F200009F4CA0180933E0590933F052591359180
:104F3000559145912851354909F4BA0160934505C9
:104F4000709346058BEA0E9463040E94C702109288
:104F50006D080E943B0586E582BF82E48093C00015
:104F60001093C30080E48093C4001092BF008FE7C9
:104F70008093D1001092900089E0809391008091FD
:104F80004C0580931F0580931E053E9A3F9A10930F
:104F90002E055E98F89480911B05811109C083B796
:104FA000816083BF7894889583B78E7F83BFF2CF6B
:104FB00010921B057894109120052FE741E050E0F6
:104FC00061E07FEF8BE994E00E94930462E083EC60
:104FD00090E00E94D0152FEF47E051E061E07FEFB5
:104FE0008BE191E00E94930462E081EC90E00E94EA
:104FF000D0158EEF810F1F5F8E3F30F48091330507
:105000008F5F8093330510E0109320055E9A209007
:1050100020052092210580916D088C3140F5883162
:1050200008F022C3853009F413C208F4ABC18631FD
:1050300008F415C2863109F412C30E94DE058111FD
:1050400004C080912D050E94220680914C0590910C
:105050002F05992311F40C943439863008F486E036
:10506000865080931F058AE080931E0592CF84337B
:1050700008F057C1803208F0B3C08E3108F4B0C0D8
:105080008F31D9F681E280936D081092D609109283
:10509000D5091092FD091092FC0983EE9FEF9093C1
:1050A000FB098093FA0989EA9FEF9093E7098093BF
:1050B000E60985E2809377088FE790E09093700887
:1050C00080936F0880E88093FE091092FF09109288
:1050D000000A84E08093010A82E28093020A4091F0
:1050E000E30965EA7BE481E10E944C033B01882EE1
:1050F0001BE3E12E18E0F12E10E002E320E0412F47
:10510000882DB3010E943F0362E370E0C7010E9453
:1051100037030E94F1021F5F82E3E81AF1081031A1
:1051200061F74091E3096FEC7BE481E10E944C035D
:105130000E94870305E519E0AEE0FA2E80E0B0E4B6
:10514000EB2E8111C7C269E070E0C8010E943703ED
:1051500081E0D8019C919F3309F080E0FA94075FC9
:105160001F4FF110EECF0E94F1024091E30969EF69
:105170007BE481E10E944C030E9487036EE270E0B1
:105180008BEC98E00E9437036EE270E089EF98E0C4
:105190000E9437036EE270E087E299E00E943703D5
:1051A0000E94F102F8EEEF2EF9E0FF2E10E002E08F
:1051B00020E0412F6BE67AE380E00E943F030E94EB
:1051C000A302D7018D939D937D011F5F183079F75E
:1051D00081E0809349050E94570280E00E942206E8
:1051E0000E94AD0481110E94F615809177089BEE14
:1051F000980F913108F471C295E3980F9A3408F032
:105200006FC29BE3981B9D83FD80EF2CF12CFF82E6
:10521000EE82370105E2601A71086301D594C794E4
:10522000D594C794E0E8EE2EFF24FA94312C28E0C0
:10523000C21AD1088091FA099091FB09810123EDEE
:1052400039ED4DE0B6018E0D9F1D0E94EF0830E84C
:10525000E30EF11CE11441E0F40661F750EFE52E96
:1052600059E0F52E64E0B62ECE80DF8051E1C51AFC
:10527000D1084B2D60E771E181E10E944C039B0155
:10528000482F8101B601D7018D919D917D010E942A
:10529000DD07B394B8E0BB12ECCF8E809F8044242E
:1052A0004394512C12E1E4E4E887A20141505109F2
:1052B000C4010F968035910508F0FBC3B12E82E33F
:1052C000849F9001859F300D1124A901475B5A4F9F
:1052D0005B874A87849D9001859D300D1124B9011B
:1052E000675B7A4F7D876C877885B71608F0E1C3D6
:1052F0006B2D70E0FB0133E0EE0FFF1F3A95E1F7F5
:105300008091FC099091FD09E80FF91F3497E13F66
:105310008FEFF8070CF0E7C112E01B0DB394B394C4
:10532000E3CF843311F40C94E6348E3308F085CE49
:105330000E94AD04882311F40C943C35109144056F
:105340000E94B804982E8091D5099091D6090196B3
:105350009093D6098093D50920916D08EBECE20F6C
:10536000E93010F00C943C35F0E0E754F64D0C9425
:1053700090398F367D375C375C375C375C37653703
:105380006E37EF34E82EF12C8701000F111F0E0D40
:105390001F1D020D111D29E932EE40E070E060E0B2
:1053A00090E080E00E94EF088091D5099091D609A5
:1053B0000C9761F41092D6091092D5090FEFE01AFC
:1053C000F00A23E0E222FF24E0926D080E94AD047F
:1053D000882309F432CE8091D5099091D60901969F
:1053E0009093D6098093D50980914205803218F4B4
:1053F0008F5F809342050E94B804882309F41DCE74
:1054000080914205803209F018CE809164008E7F31
:105410008093640080917A00806480937A00809108
:105420007A0086FDFCCF00917800109179000E94EF
:105430000C0360277127709348056093470580919E
:10544000640081608093640085E080936D08F5CDF1
:105450008091490581113AC086E080936D08809162
:105460006D081AEF180F883058F090914A05911185
:1054700007C090914B0516E0180F911101C0182F2D
:105480000E94AD04882309F478C08091D5099091D9
:10549000D60901969093D6098093D5090E94B80445
:1054A00083FFBDC0E0916D08E650E93008F05EC0B2
:1054B000F0E0E35AF54D0C949039682AAF2AB62AE9
:1054C0006C2AEB2A0D2BB12A6C2AEB2A8CE0C5CF73
:1054D00089E080936D084AC01092D4091092D309D4
:1054E0001092D6091092D5091092D8091092D709B6
:1054F0001092DA091092D9098EE090E09093DC09BD
:105500008093DB0986E090E09093DE098093DD09CB
:1055100084E08093DF091092E0091092E209109272
:10552000E1098FEF8093E3098093E4091092E50984
:1055300093E090937E0810927808109279089EE08C
:1055400090937A0880937B0810927C0888EC809373
:105550007D08109249050E94570284E3BACF8BE080
:10556000B8CF0E94C70280E88093FE09809142056F
:10557000883418F48F5F80934205312CA10163E0D9
:10558000169F400D511D11248A012BE932E141E0A3
:1055900070E060E090E080E00E94EF088091D50923
:1055A0009091D609969587959695879564E170E0D8
:1055B0000E9468398C01000F111F080F191F020D7E
:1055C000131D2DEF32E14AE066E170E084E190E0E6
:1055D0000E94DD0732CD80914B0590914A059111D3
:1055E00013C0811106C081E080934A0580934B056A
:1055F00002C010924B0580914A05882359F0809192
:105600002D050E942206B2CF8823A9F310924A05E5
:1056100081E0ECCF0E943B05A9CF87E05ACF84FF01
:105620000EC080916D08893008F4A0CF8B3028F02F
:1056300094EF980F923008F099CF8F5F4ACF87FF91
:1056400095CF80916D088A3008F490CF8C3028F087
:1056500093EF980F923008F089CF81503ACF109293
:10566000420588E180936D080E94AD048823F9F01B
:10567000109142050E94B8042091D5093091D609B5
:105680002F5F3F4F3093D6092093D50923703327DE
:10569000232B41F41F5F109342051B3519F49FE142
:1056A00090936D0883FF03C08FE180936D08809114
:1056B0004205022D10E073E0879F000D111D11249B
:1056C0002DE932E342E070E060E090E080E00E948B
:1056D000EF08B3CCF801E08241CDB5E2BD8394CDB3
:1056E000E0E7ED8391CD8091FE098E171F060CF443
:1056F000DFC162517109AA85BB85A60FB71F149639
:105700008C9141E04B0D4251550BAA85BB85A40FEE
:10571000B51F14962C91AC85BD856A0F7B1FDB01EC
:1057200014969C91EC84FD844E0D5F1DDA01149655
:105730006C91823061F4223061F5913051F5613025
:1057400009F08DC0C12C26E639EC40E139C0823128
:1057500009F44CC0873049F4983011F00C94383972
:10576000C12C20EE32ED40E12BC08C3051F498304A
:1057700009F441C09C3069F4C12C26E034ED40E1CD
:105780001FC08133E9F1823309F43FC0833309F448
:1057900041C09C3139F19B3109F041C02CE632EE19
:1057A00040E18091D5099091D60968E170E00E94AE
:1057B000683966E070E00E946839C62ECC0CC60ECF
:1057C000C20CD32CD11C7901042FB2E0EB0EF11CDA
:1057D000011D22E0A22E20E140E1B401CF010E9490
:1057E0008A079CCD2AEE30EE40E1DBCFC12C22E3CC
:1057F00038ED40E1E5CFC12C24EA33ED40E1E0CFC4
:10580000C12C28E83FE041E1DBCFC12C2AEE3FE08C
:1058100041E1D6CFC12C2CE430E141E1D1CF813040
:1058200079F42130C9F4911117C0662309F4E4C05A
:10583000613109F04AC060E020E737ED40E1C8C0BF
:105840008A3209F4DDC08B3209F4DFC08E3209F4EC
:10585000E1C0803309F4E3C0903109F4E5C061315F
:1058600051F3823079F421110C944239913011F0C6
:105870000C944839662309F4DCC0633009F045C054
:105880000C944C3981110EC0223011F00C94423925
:1058900091110C944839613081F760E022E93DECC8
:1058A00040E196C0863049F4653011F00C944239DD
:1058B00060E02EEB3BE041E18BC02B3019F49930D6
:1058C00009F4BBC08B3009F4BDC0633011F40C94F3
:1058D0004C39833009F4BBC0843309F4BDC09D301A
:1058E00039F46F3069F460E028E634ED40E170C0CF
:1058F0009F3031F46E3009F4B4C06F3009F4B6C093
:105900008F3019F42F3009F4B6C0653009F4B8C0EF
:105910006A3009F4BAC0933151F4662309F4BAC06D
:105920006531C1F460E028E13AED40E151C09130C9
:1059300039F46331A9F760E02EE53CED40E148C061
:10594000243119F4943109F4A9C0653159F3953122
:1059500009F4A9C0863149F4663111F00C9452392A
:1059600060E024EA3EED40E133C08F3149F49F31DD
:1059700011F00C94523960E02EEE33EE40E128C075
:10598000803249F4203211F00C94523960E020EB5F
:1059900034EE40E11DC0613211F40C945639863268
:1059A00019F1873229F128E33EEF40E1883209F00E
:1059B000B5CC8091D5099091D60960E370E00E9442
:1059C000683963E070E00E946839C62ECC0C6C0D1B
:1059D0006101C60ED11C7901042F52E0E50EF11CC5
:1059E000011D93E0A92EF7CE24E336EE40E1E1CF8E
:1059F00026E332EF40E1DDCF28ED3FEC40E1E8CF98
:105A000060E02AE33AE041E1E3CF60E02CEF3AE0E6
:105A100041E1DECF60E022E43DE041E1D9CF60E04A
:105A200026EC3EE041E1D4CF60E02EEA36ED40E1E5
:105A3000CFCF20ED3CEC40E1CBCF60E020E83CE074
:105A400041E1C6CF60E02CE531ED40E1C1CF60E03F
:105A500021EC3FE44AE0BCCF60E02EEA30E141E1D6
:105A6000B7CF60E02AE235ED40E1B2CF60E02CEE46
:105A700035ED40E1ADCF60E024E938ED40E1A8CF5D
:105A800060E024E53EEC40E1A3CF60E02EE132EDA2
:105A900040E19ECF26E539ED40E19ACF60E020E27B
:105AA0003DED40E195CF60E022EE3DED40E190CF4D
:105AB000B88660E1861A910872E0470E511C81E1B8
:105AC0004816510409F0F1CB15E5812E19E0912E0D
:105AD000740103E0402E8BEA582ED7014C914F33CE
