:100000000C9464000C948C000C948C000C948C0068
:100010000C948C000C948C000C948C000C948C0030
:100020000C948C000C948C000C948C000C948C0020
:100030000C948C000C948C000C948C000C948C0010
:100040000C948C000C94EF260C948C000C948C0077
:100050000C948C000C948C000C948C000C949525C2
:100060000C948C000C948C000C948C000C948C00E0
:100070000C948C000C948C000C948C000C948C00D0
:100080000C94DF250C948C000C948C000C948C0048
:100090000C948C000C948C000C948C000C948C00B0
:1000A0000C948C000C948C000C948C00D5F08D1466
:1000B000A1C881CFD9F1AF2000C0A0D92181FFA86C
:1000C00000A800A83F002A2711241FBECFEFDAE0C6
:1000D000DEBFCDBF11E0A0E0B1E0E4EFF3E702C086
:1000E00005900D92A630B107D9F72AE0A6E0B1E05D
:1000F00001C01D92A430B207E1F710E0C4E6D0E0E1
:1001000004C02197FE010E94F239C336D107C9F716
:100110000E948A270C94F8390C940000982FE6E589
:10012000F9E080E02081291729F08F5F39968E3021
:10013000C9F78FEF0895AC01E6E5F9E080E070E0E3
:1001400090819F3381F0218132812417350739F462
:100150002381022E000C330B2617370729F08F5FFF
:1001600039968E3069F78FEF08959091780825E2DF
:1001700030E0291B310997FD339543E035952795EC
:100180004A95E1F7062E000C770B620F711D77FD83
:1001900022C04091FD095091FE0921E430E0241B6A
:1001A000350B48E08402C0011124820F931F23E025
:1001B000959587952A95E1F78231910574F022E3B0
:1001C000269FF001279FF00D1124E80FF91FE45C32
:1001D000FA4F8081089581E0089580E00895863285
:1001E000A1F4E6E5F9E090E080812BEC280F2230C5
:1001F00038F08953823020F09F5F39969E30A1F706
:1002000081E09E3059F480E00895982F977F9130D7
:1002100031F095EE980F81E09230A8F7089581E0D3
:10022000FDCF0F931F93CF93DF932091FD09309162
:10023000FE09C0E4D0E0C21BD30B28E08202C0015B
:100240001124C80FD91F2091780885E290E0821B05
:10025000910927FD939523E0959587952A95E1F7D8
:10026000680F162F110F110F110F00E013FF02C0BE
:10027000185001E0CE0187709927892B09F0249747
:10028000CE018F709927892B09F02897612FCE0115
:100290000E949B00002359F08F3F49F460E1610FF9
:1002A000CE01DF91CF911F910F910C949B00DF91B4
:1002B000CF911F910F910895962F6436B9F02EEDCE
:1002C000280F243098F4642F892F0E9411018F3F4A
:1002D00059F099E0899FF0011124EA5AF64F808184
:1002E0008E32C9F08033B9F080E00895982F9F7D59
:1002F00091F0833081F093EE980F923060F09AED98
:10030000980F943040F0843331F092ED980F81E0F3
:10031000923050F7089581E0FDCF823109F446C054
:100320009091780825E230E0291B310997FD33953B
:1003300093E0359527959A95E1F7222309F44FC06C
:100340008130A1F1893209F44AC0823211F084323D
:1003500061F4633009F443C0611104C041E060E01E
:100360000C945C0140E061E0FBCF833211F08532F8
:1003700039F46130A1F1662389F340E06FEFF0CFEB
:1003800098EE980F923090F08A3191F460E080E01E
:100390000E9411018F3F51F099E0899FF0011124D3
:1003A000EA5AF64F81E094819430C1F080E00895DC
:1003B000982F9F7DA1F0982F9F7E973081F094EF2A
:1003C000980F933060F090EF980F923040F08533A3
:1003D00031F093EE980F81E0923040F7089581E07C
:1003E000FDCF44E664E60C945C01CF93DF938091EB
:1003F000780825E2281B30E08091FD099091FE09E4
:1004000068E370E0681B790BECECF8E08FEFA0E894
:10041000B0E090E040814330B9F44381042E000CF9
:10042000550B4217530781F441815281EB01C41BE4
:10043000D50BAE01D7FF03C05195419551094A171D
:100440005B0714F4892FDA019F5FBE96933011F792
:10045000DF91CF910895482F2091470530914805AD
:1004600086B52827C9019695879520FF02C024EB01
:1004700092279093480580934705641B770B0E9451
:10048000CA39840F08959C019091CB08933269F08A
:10049000E92FF0E0EE0FFF1FEB57F74F318320837A
:1004A0009F5F9093CB0881E0089580E008952BEB47
:1004B00034E0E9E4F5E0A0E0B0E0BD0180E00E94B6
:1004C000B4020E94A302BD011296A20FB31F8217AD
:1004D000930799F38F5F9F4F21F4AF5FBF40DB011C
:1004E00078F00E94680440E050914505609146050F
:1004F00080E20E94A802599A0E942C03A0E0B0E07A
:100500007CEF0E9468044A2F509145055B0F609173
:100510004605611D82E00E94A802832F71FD822F93
:1005200070FD81910E94C002759518F421503040F1
:1005300019F01196AA2389F7599A0E942C032115C4
:100540003105F9F608950E94EB02982F0C94F10200
:1005500059980E94C002862F0E94C002852F0E94D7
:10056000C002842F0C94C002462F50914505570FAE
:1005700060914605681F83E00E94A8021EBC089592
:100580008EBD00008EB50DB407FEFCCF0895E9E4E2
:10059000F5E0ABEBB4E060E070E080E00E94B40214
:1005A0009D01AF0160E00E94E6028217930751F4BB
:1005B000D901FA0160E00E94EB0281931197D9F70B
:1005C00061E0F1CF0E94F102862F08950E94EB02B4
:1005D000982F0C94EB020DB407FEFDCF8EB51EBC18
:1005E00008950DB407FEFDCF8EB5599A0895E5E044
:1005F000F0E00E940C03319728F068517C4F8F4F38
:100600009F4FF9CFAB01FC010E940C0364177507E3
:100610008E079F07C8F30895AAE3B5E02FB7F894B3
:100620007D918D919C9166B52FBFA89B05C06F3FB2
:1006300018F47F5F8F4F9F4F22E0660F771F881F50
:10064000991F2A95D1F708958FB18095807F669B79
:1006500088601C9B84600895599885E00E94C002C0
:1006600080E00E94C00280FDFBCF599A0895FC01F2
:100670000E94EB02819361507040D1F7089590E0A1
:10068000409F09F4142E5527090E151E600D711D8B
:10069000851F11240C9487030F9303E020E00E9430
:1006A0003F030E94E602782F0E94F102682F892FF3
:1006B0000F9108950F9301E020E00E943F030F91F6
:1006C0000C94F102CF93DF93C091E509CF3FE9F09D
:1006D000D091E409DF3FC9F04C2F8EE0D89F400D48
:1006E00011246CE07BE380E00E945A03CD1BDD0BFC
:1006F000D7FF03C0D195C195D10990E0219709F4A6
:1007000092E0890FDF91CF91089580E0FBCF462FD3
:1007100050913E05570F60913F05681F83E00E948E
:10072000A8021EBC08950F931F93CF93DF9300D0B0
:1007300000D0CDB7DEB7E091CB08E150E093CB0815
:10074000F0E0EE0FFF1FEB57F74F00811181109380
:10075000710800937008B801660F771F660F771F46
:1007600080E06C5B774D8F4F0E94870364E070E000
:10077000CE0101960E9437030E94F1028091780811
:100780009981891B809378082B818091FD09909134
:10079000FE09820F911D27FD9A9581312EEF920758
:1007A00084F480E19EEF9093FE098093FD09C801D7
:1007B0000F900F900F900F90DF91CF911F910F919D
:1007C00008959093FE098093FD098A81082E000CFC
:1007D000990B2091E9093091EA09280F391F3093CC
:1007E000EA092093E9092091EB093091EC09280FDF
:1007F000391F3093EC092093EB092091ED093091DA
:10080000EE09280F391F3093EE092093ED0920914E
:10081000E7093091E809820F931F939560E072E039
:100820000E94DE399A959093E8098093E7098C81BC
:10083000082E000C990B2091F1093091F209280F34
:10084000391F3093F2092093F1092091F309309177
:10085000F409280F391F3093F4092093F3092091EC
:10086000F5093091F609280F391F3093F6092093C6
:10087000F5092091FB093091FC09820F931F803804
:1008800029F09093FC098093FB0991CF1092FC0909
:100890001092FB098CCF0F931F93CF93DF93EA0144
:1008A00089010E948703FE010150104021F00E943F
:1008B000EB028193F9CF0E94F1028083DF91CF9107
:1008C0001F910F91089559980E94C002599A089556
:1008D00086E00C946304FC0110820895FC01908171
:1008E000992311F0915090830895982F89EF890FE3
:1008F000823028F081E09C3019F080E0089581E09A
:100900000895FC018081861B87FD07C0808381E0FC
:10091000908119160CF480E008951082F8CFFC0144
:10092000208131812F5F3F4F2617370721F0318318
:10093000208380E008951182108281E0089530E7DD
:100940003CBDDC0130E8439FC0011124A80FB91F52
:100950005E91352F6111372F3C93C89500C052230B
:100960005EBD0197A9F704D003D030E50DB43CBDBE
:10097000089580913305882329F0815080933305B1
:1009800081E0089580E008950C945702CF93C091C0
:100990004405C09340050E94240380934405C095FC
:1009A0008C23CF9108959091FF09903869F490912C
:1009B0006E089093030A93E09093020A80936E0866
:1009C0008EE78093FF090895903641F480936E0876
:1009D00081E08093020A89E28093030A0895CF930D
:1009E000DF93EC018FE30E948E0099E0899FF00174
:1009F0001124EA5AF64F89819A81928381838B81EF
:100A0000838314821682158283E090E098878F8317
:100A1000DF91CF910895883029F481E0683039F072
:100A200080E005C08132E1F781E06132C9F70895C5
:100A30009C018B33910599F08D34910581F08634BA
:100A4000910569F08835910551F0293382E0380726
:100A500031F081E02533324019F080E0089581E0E3
:100A600008959C018731910589F08932910571F0D3
:100A70008232910559F0C49749F081E0233831055D
:100A800039F02F37310521F080E0089581E0089595
:100A90000895CF931092D5091092D4091092D709D6
:100AA0001092D6091092D9091092D8091092DB0938
:100AB0001092DA098EE090E09093DD098093DC09D2
:100AC00086E090E09093DF098093DE0984E08093D4
:100AD000E0091092E1091092E3091092E2098FEF08
:100AE0008093E4098093E5091092E60993E09093DE
:100AF0007F081092790810927A089EE090937B0804
:100B000080937C0810927D0889E180937E0880E4C0
:100B1000809372088093730880937408809375089B
:100B2000809376088093770810924905C0916E08EB
:100B3000C55186E0C89FB0011124072E000C880B18
:100B40006C50754C8F4F0E9487030E94E602809381
:100B5000E4090E94E6029093D9098093D8090E9483
:100B6000E6029093DB098093DA090E94F10289E1A1
:100B7000C11101C084E180937E080E94C4048BE30C
:100B800080936E08CF910895109271001092C10069
:100B90001092220510922F05089580912205882336
:100BA00009F42CC080912905811128C060912A0583
:100BB00070912B0580912C0527E030E043E255E051
:100BC0000E944B04E3E2F5E0219181919191892B00
:100BD00011F41092220590E080E02695821B910985
:100BE000219141915191452B11F4109222052695A6
:100BF000821B910990931A018093190180912F050E
:100C00008823C1F080911401811114C060913005D6
:100C1000709131058091320524E030E041E151E0EE
:100C20000E944B048091120190911301892B11F4C1
:100C300010922F0580912205811106C080912F0509
:100C4000811102C00C94C4050895CF9390914C0576
:100C5000992341F190912E05992321F1482F6AE9BA
:100C600075E180E00E944C0360933005709331057C
:100C700080933205C1E0C0932F050E94CD0580917D
:100C8000710081110FC080E094E0909399008093EF
:100C900098001092950010929400C093C10082E0D9
:100CA00080937100CF910895FC018085823371F4A7
:100CB00081E38087818192810997928781878381EF
:100CC0008F5F8387148687E00C94250608958091B2
:100CD0002205811104C080912F05882341F0809165
:100CE0000E018F5F833020F480930E0181E0089520
:100CF00010920E010E94CD0580912905882399F05C
:100D000081508093290581110EC080912A05909110
:100D10002B05A0912C050796A11D80932A05909381
:100D20002B05A0932C05809114018823F9F28150A2
:100D3000809314018111DACF8091300590913105B3
:100D4000A09132050496A11D809330059093310542
:100D5000A0933205CBCFCF92DF92EF92CF938093C7
:100D60002D0590914B05992351F190912E059923D2
:100D700031F1482F64E975E180E00E944C036B017A
:100D8000E82E0E94C405C0922A05D0922B05E0925D
:100D90002C0510922905C1E0C09322050E94670628
:100DA00080E094E0909399008093980010929500D1
:100DB00010929400C093C10082E080937100CF91A3
:100DC000EF90DF90CF9008953F924F925F926F9295
:100DD0007F928F929F92AF92BF92CF92DF92EF92CB
:100DE000FF920F931F93CF93DF9300D01F92CDB745
:100DF000DEB73A01862EABE1B1E0B701E02FDD248A
:100E0000382E96959695969531E061FD34E060FD1B
:100E1000330F62FD32955FEF539F7001E094F094C1
:100E2000759567957595679575956795462F4F3FAD
:100E30004CF44095941B20FD440F489F600C711C9E
:100E40008D1C4FEF17FF0BC0300E20FF02C0000FAC
:100E5000111F601A710A8D0817FD8394EE2750E860
:100E600045030E0EA00DB11D5E1B351608F0352E84
:100E700057E0541B591714F4952FD39450E8531985
:100E8000482E552421FD02C04318550820FF02C0FA
:100E9000440C551C11245B824A82932E00903E051F
:100EA000700C00903F05801C19C0599833E03EBD7E
:100EB000640C751C811CAA24831509F0A3940CD022
:100EC0008EBC07D07EBC05D06EBC03D01EBC03D048
:100ED0000895C8950000C895C895089564187508C8
:100EE0008108E3DF41151CF0992371F564C0A05817
:100EF000BF4FC32C20FD0CC06EB51EBC699DBC90BD
:100F0000BF20B128BD92C89500C0CA94A9F711C0EE
:100F10006EB51EBC699DB001DEDFEEB41EBCE99C5F
:100F20007001BC90F094BF20B72ABD92C895CA94B6
:100F300079F71124A319B1099A9509F45CC0AA2084
:100F400019F00DB4599AB1DFFD01E058FF4FC32CE1
:100F500020FD0EC06EB51EBC699DBC90BE20B028A1
:100F6000BD92B080BF20B128B192CA9499F716C043
:100F70006EB51EBC699DB001BC90F080AEDF00C0B4
:100F8000EEB41EBCE99C0094B020B62ABD92109429
:100F9000F120F72AF1920000CA9451F71124A50F0D
:100FA000B11D9A9561F6DD2031F1AA2021F00DB432
:100FB000599A7BDFC89520FD0CC06EB51EBC699D9B
:100FC000BC90BE20B028BD92C89500C03A94A9F745
:100FD00012C06EB51EBC699DB0017DDF9EB51EBC02
:100FE000999D902DBC909095B922B62ABD92C89536
:100FF0003A9479F7C8951124599A0DB40F900F902F
:101000000F90DF91CF911F910F91FF90EF90DF90A4
:10101000CF90BF90AF909F908F907F906F905F9098
:101020004F903F9008956F927F928F92AF92CF92A0
:10103000DF92EF92FF920F931F93803891050CF08F
:101040003AC0603471050CF036C0A42FB0E0FD0149
:10105000E80FF91F1E161F060CF02DC0E22FF0E05E
:101060003F01660E771E161417040CF024C03701DA
:10107000802E7B018C019E2F8827842B9B2BC114F3
:10108000D104A1F0269526952695A0FC220F249F39
:10109000F001ED9D700C811CFC9D700C811CFD9D70
:1010A000800CEC9D600C711C1124811C2A2D682D74
:1010B000A3010E94E4061F910F91FF90EF90DF9033
:1010C000CF90AF908F907F906F9008957F928F9286
:1010D0009F92AF92CF92DF92EF92FF920F931F9366
:1010E000CF93DF93EC014B016901E42E842FB9010A
:1010F0000E9487030E94EB02782E0E94F1024E2D7F
:1011000096012E5F3F4F4F4F93E0A92E6801790162
:10111000042F282F472DB401CE010E941308DF9120
:10112000CF911F910F91FF90EF90DF90CF90AF90F4
:101130009F908F907F9008950F931F9300912105AA
:1011400010E070E021E933E540E190E00E9466089C
:101150001F910F9108950F931F930091210510E0A7
:1011600093E0899F000D111D11248091FF0924EE49
:1011700031E04AE070E060E090E00E9466081F9174
:101180000F910895BF92CF92DF92EF92FF920F934B
:101190001F93CF93DF93B82E6B01C0912105D0E050
:1011A000E42EF12C8EE090E0821B91098C01000F5F
:1011B000111F080F191F0C0F1D1FB7016550710972
:1011C00020EF3FED4AE0C6010E9466088E0183E0F1
:1011D000B89E000D111D112424E53DE54FE0B70137
:1011E000C6010E946608DF91CF911F910F91FF9079
:1011F000EF90DF90CF90BF900895CF92DF92EF9263
:101200000F931F93CF93DF93182FD62FC42F482F00
:101210006DE778E182E10E944C036B01E82E412FDB
:1012200060E479E182E10E945A0300912105080FF0
:101230001127111F6C2F70E04E2D96018D2F90E01D
:101240000E946608DF91CF911F910F91EF90DF9080
:10125000CF9008950F931F93082F10E02EEA38E4E3
:1012600048E070E060E089E490E00E9466081F9129
:101270000F9108957F928F929F92AF92CF92DF92BB
:10128000EF92FF920F931F93CF93DF93EC014B01EB
:101290006901E42E842FB9010E9487030E94EB02AA
:1012A000782E0E94F1024E2D96012E5F3F4F4F4F38
:1012B00092E0A92E68017901042F282F472DB4014F
:1012C000CE010E941308DF91CF911F910F91FF90E3
:1012D000EF90DF90CF90AF909F908F907F90089588
:1012E0000F931F930091210510E093E0899F000D5B
:1012F000111D11248091FF0990E026E635E540E0BC
:1013000068E370E00F960E943A091F910F910895CB
:10131000FC0184819581803EF3E09F0748F089318C
:1013200024E0920738F08235944010F483E0089569
:1013300084E0089581E00895FC0194819F5F948387
:10134000278130852115310549F0977039F42150F6
:1013500031093087278381E0232B09F080E008954D
:10136000CF93DF93FC012081203408F059C0EC01B9
:10137000E22FF0E0E254F64F0C94F239210A100A01
:10138000EB0AFE094B0A9C0A100A9C0A100A210A61
:10139000100A040B210A100A1C0B100A100A100A6A
:1013A000390B100A360A100A550B100A550B100A91
:1013B0009C0A100A100A100A750B750B750B100A9F
:1013C000100A100A100A100AB20BB20B100A3E0AD9
:1013D000100A9C0A9C0A580A700A580A700A340BB0
:1013E000100AA20A100AAD0AAD0AA20A100AC90A16
:1013F000C90AA90A100A140A100A2E0B60E071E04B
:1014000007960E948F048F8198858833910530F468
:1014100053E0969587955A95E1F701C087E08C8354
:1014200080E0DF91CF91089560E670E007960E941A
:101430008F048F8198856CE070E00E94CA396C83BC
:10144000EFCF8C818F5F803879F08C838F81988586
:10145000009731F32C812F7019F7019798878F83AC
:10146000892BF1F682E0DDCF1C82F0CF60E370E0E3
:1014700007960E948F048F819885CACF60EC70E038
:1014800007960E948F048F81988524E09695879512
:101490002A95E1F7C4CF8F8198859C0121503109AD
:1014A0002631310508F0BCCF019698878F83B0CFE5
:1014B0008C818150883008F0B3CF68E070E0CE01B5
:1014C00007960E948F04882309F4AACF8C818F5F2E
:1014D0008C83893009F0A4CF88818F5F8883A0CF67
:1014E0008C81813008F49CCF8930A8F0893009F0D4
:1014F00097CF8F819885019698878F834D815E81E4
:101500008417950709F08CCF203309F089CF18860E
:101510001F8288E084CF68E070E0CE0107960E94C9
:101520008F04882309F47CCF8C8181508C838111B6
:1015300077CF88818150D2CF0E949C09882309F4FB
:101540006FCF90CF0E949C09882309F469CF84E073
:1015500068CFDF91CF910C949C098C818C3008F07E
:101560005FCF8F819885019698878F836CE070E0BC
:101570000E94CA396C836C3009F052CF86E3253360
:1015800009F04ECF888389819A8140979A83898315
:1015900047CF3C814F815885CA01019698878F8338
:1015A0003C3068F46CE070E00E94CA396C836C30A7
:1015B00009F036CF293309F033CF8AE3E3CF813204
:1015C000934008F42DCF333120F4CA018F58924054
:1015D00032CF88E383CF8F8198859C0121503109D8
:1015E0002E3D310508F01CCF019698878F839C0112
:1015F00045E0369527954A95E1F72C838F3D910577
:1016000009F00ECF85E00DCF2F813885C9010197F4
:101610008F3B910508F004CF2F5F3F4F38872F8312
:10162000C90168E170E00E94CA396C83203C310531
:1016300009F0F6CE83E0F5CE8F8198859C0121508C
:1016400031092E39310508F0EBCE019698878F834A
:1016500035E0969587953A95E1F7E1CE8C81803714
:1016600008F0DECE8F5FDBCE8C818730D8F382E34B
:1016700035CF8F8198858F3521E0920798F40196B8
:1016800098878F83803B910511F48AE0C8CE803B18
:10169000910508F4FACE20E631E0A901481B590B68
:1016A000CA01F3CE18861F82BBCE4FEF263109F058
:1016B00041E08F819885049798878F83E4E04E02FC
:1016C000A001112469817A81460F571F5A834983EB
:1016D000892B09F0A5CE87E1263109F089E18883BD
:1016E00080E490E098878F839BCE4F815885411589
:1016F000510561F164EA7AE380E00E945A034F8168
:1017000058854150510958874F839B81890F8B839E
:1017100088818F3141F02CEF803249F020E08E310A
:1017200031F42BEF04C0842F81702CEF281B8981AA
:101730009A81820F911D27FD9A95452B89F09A83F6
:1017400089838F819885892B09F06ACE8C818F5F80
:101750008C83893009F064CE81E288831C8260CE5C
:101760000C97EDCF60E170E007960E948F0488230C
:1017700009F456CE8C818F5F803109F050CEEECFC8
:101780000F931F93CF93DF93EB018A01222321F064
:10179000855A9F4F0E946B040C171D0790F0809193
:1017A000CB08833259F0E82FF0E0EE0FFF1FEB5724
:1017B000F74F118300838F5F8093CB08015011098D
:1017C000EBCFDF91CF911F910F910895AB0120E0F6
:1017D000BC0180E798E00C94C00BEF92FF921F933E
:1017E000CF93DF93EC0160E080E00E94B500182FFA
:1017F00062E080E00E94B5000E94F101882309F4B4
:1018000051C01130D9F085EE810F8230B8F01051FF
:101810001230F0F564E080E00E94B5008F3091F561
:10182000CE01885C9E4F9093820880938108C75AAE
:10183000DE4FD0938408C093830824C07E0183ECDC
:10184000E80EF11CC254DF4FD0938208C093810888
:10185000F0928408E09283086DEA71E08AEA91E0F0
:101860001C3131F01B3171F463E673E080E693E0E4
:101870000E94E60BD0938208C0938108F0928408FE
:10188000E0928308DF91CF911F91FF90EF90089530
:10189000CE018C549F4F9093820880938108C65448
:1018A000DF4FC7CFCE0185549F4F9093820880931E
:1018B0008108C354DF4FBDCF2091FD093091FE094F
:1018C00027703327232BB9F00E94F1018823A9F058
:1018D00069EA70E084EA90E00E94E60B82E080937F
:1018E000790861E080E070E060587F4F90E08058B8
:1018F0009F4F0C94E60B63E0F5CF67E082E0F3CFF7
:101900002091FD093091FE0927703327232BB9F070
:101910000E94F1018823A9F06FE572E08AE592E068
:101920000E94E60B82E08093790861E080E070E03D
:101930006A5C7D4F90E08A5C9D4F0C94E60B63E0FF
:10194000F5CF67E082E0F3CF5F926F927F928F9244
:101950009F92AF92BF92CF92DF92EF92FF920F933E
:101960001F93CF93DF93B82EF62E23E0EE24EA9454
:10197000C6EBD1E0621721F0EE24E394D0E0C0E0A2
:1019800060E08E2D0E94B500182FCE2CCC0C60E0AC
:101990008C2D0E94B500982E6FEF8E2D0E94B50001
:1019A000082F4FEF6E2D0E945C01D82E6FEF8C2D0B
:1019B0000E94B500882EDD2049F1812F0E94F1019F
:1019C000882321F1B3FC40C06FEF80E00E94B50096
:1019D000D82E61E08E2D81950E94B500182F61E010
:1019E00080E00E94B500082F61E08C2D0E94B500B8
:1019F000E82E23E0F21252C186E0D81256C1BE0191
:101A00006D557F4FCE0180569F4F9CC060E080E0B7
:101A10000E94B500D82E61E080E00E94B500A82E9B
:101A20006EEF8C2D8E0D0E94B50010927908113248
:101A300009F066C181E080937908BE0166527E4F4D
:101A4000CE018D529E4F7EC0A0907008B09071085C
:101A5000EC0C60E08E2D0E94B500582E6EEF8C2DA0
:101A60000E94B500D82E6FEF8E2D0E94B500782E03
:101A70006EEF8E2D0E94B500682E6DEF8E2D0E94A8
:101A8000B500082F83E0F8121BC09DE6A91A93E069
:101A9000B90A1E31F1F0892D0E94F10181117CC03B
:101AA000DF91CF911F910F91FF90EF90DF90CF903A
:101AB000BF90AF909F908F907F906F905F900895B0
:101AC00081E0F812E8CF1D3131F797EBA91A91E0C8
:101AD000B90A24E1A216B104F0F282E10E948E005C
:101AE00099E0899FF0011124EA5AF64F2781308549
:101AF00083E0F81238C02059310924353105E0F46B
:101B000086EB90E09087878321E040E853E06DE624
:101B100073E080E798E0DF91CF911F910F91FF90E4
:101B2000EF90DF90CF90BF90AF909F908F907F907D
:101B30006F905F900C94C00B1092790865EA72E088
:101B40008BE992E0DF91CF911F910F91FF90EF9081
:101B5000DF90CF90BF90AF909F908F907F906F90CD
:101B60005F900C94E60B2433310528F02C52314061
:101B70002433310550F486E090E09087878321E09C
:101B80004AEC51E067EB71E0C4CF109279086FEE38
:101B900070E085EE90E0D6CF852D0E94F101182FE0
:101BA000882399F04FEF6C2D882D0E945C018823CB
:101BB00061F0872D0E94EF00882339F0BE016C513F
:101BC0007F4FCE0186529F4FBDCF882D0E94F101DD
:101BD0001123B1F0882309F463CF872D0E94F1010E
:101BE000882389F0862D0E94F10181110CC010928A
:101BF0007908BE0166507F4FCE0180519F4FA2CF22
:101C0000882309F44DCF872D0E94F101882309F420
:101C100047CF8AED8D0D8330E8F4E6E5F9E0808169
:101C2000863309F4BBC18A3309F4B8C1399699E007
:101C3000E43DF907A1F7BE01605E7D4FCE01865EEF
:101C40009D4F0E94E60BBE016D5F7E4F23C0B70122
:101C5000C80178CF109279082091780885E290E049
:101C6000821B910927FD939523E0959587952A95E9
:101C7000E1F7823029F0802F0E94EF00811107C028
:101C8000BE0167557F4FCE018C559F4F5BCFBE0184
:101C90006B5F7E4FCE0185509F4F54CF91E0F9127C
:101CA00004C02BE0D21609F4AACE882D0E94EF00C2
:101CB000882379F0892D0E94F101882351F08E2D1F
:101CC0000E94F101882329F0802F0E94F1018111E7
:101CD00007C01D50123058F082E080937908D0CFB1
:101CE000BE0167527F4FCE018E529F4F2BCF0F30D8
:101CF00099F7BE016F5E7E4FCE01855F9E4F22CF6A
:101D00001F3109F497CE93E0F9120FC0063109F0A4
:101D100054C00E94EF00BE01882309F448C06D56EC
:101D20007E4FCE0189579E4F0DCF21E0F21225C084
:101D3000043179F3033109F442C0143009F448C086
:101D4000163009F44EC08D2D8D7F843009F454C0B7
:101D50000A3019F09BE0D9124CC180917808853285
:101D60000CF45AC0093009F460C08BE0D81609F4AD
:101D700066C02AE0D21609F438C189E2D81264C0DC
:101D8000B3FE95C085E380936E0886E3DF91CF9123
:101D90001F910F91FF90EF90DF90CF90BF90AF9089
:101DA0009F908F907F906F905F900C94D3046F58AA
:101DB0007E4FCE018B599E4FC5CE053139F4BE0101
:101DC0006C597E4FCE01865A9E4FBCCE1A3039F4E4
:101DD000BE0161577F4FCE0184579F4FB3CE1B305A
:101DE00039F4BE0169567F4FCE018C569F4FAACE63
:101DF00086EF8D0D823038F4BE016D567F4FCE01D7
:101E000080579F4F9FCE043019F086E0D812E7C06C
:101E10008091780885323CF4BE0161567F4FCE0137
:101E200084569F4F8FCE053039F4BE0161567F4FE7
:101E3000CE0188569F4F86CE26E0D212D3C0809125
:101E4000780885320CF4DBCD193209F499CF812F53
:101E50000E947504882309F458C08091FD0990916F
:101E6000FE098770992723E0F2122CC0892B31F4E8
:101E700061E0812F0E948D01811150C063E0892DA6
:101E80000E948D01882309F40BCE812FDF91CF9121
:101E90001F910F91FF90EF90DF90CF90BF90AF9088
:101EA0009F908F907F906F905F900C94800C6F2D1F
:101EB000812F0E948D01882309F4F2CDBE016D5758
:101EC0007F4F89C0892B31F461E0812F0E948D0101
:101ED000811109C061E0892D0E948D01882309F4D8
:101EE000DFCD882D01C0812FDF91CF911F910F9100
:101EF000FF90EF90DF90CF90BF90AF909F908F902A
:101F00007F906F905F900C945C0C83E0F81208C097
:101F100063E0812F0E948D01882359F0802FB6CF76
:101F200091E0F91206C061E0812F0E948D018111BC
:101F30000EC0B3FC0EC023E0F21224C086EF810F66
:101F4000823008F445CF193009F0AACD55CF802F43
:101F5000CBCF64E0812F0E948D018111A1CD812F13
:101F60000E94EF00882309F49BCD8A2D0E94F10185
:101F7000882309F495CDBE0167537F4FCE018C5362
:101F80009F4FE0CD81E0F8128BCD812F8D7F843083
:101F900009F41ECF153009F083CD2ECF6EEF80E00F
:101FA0000E94B5007E0194EEE90EF11C8E010652EE
:101FB0001F4F863209F04BCEBE016D577F4FCE01C9
:101FC0008E579F4F0E94E60BB701C8010E94E60B97
:101FD000BE016F577F4FCE0180589F4FB3CD053064
:101FE00009F423CF94E0D912C8CEBE0165567F4FC5
:101FF0001FCF093009F0BDCE18CFFC01808191813F
:102000008132F2E09F0768F4883121E0920738F4CA
:102010008B30E1E09E07C8F48F379105B0F081E086
:102020000895813CF2E09F0728F48533924058F0F0
:1020300083E008958E3CE2E09E0738F0873D9340B0
:10204000B8F384E0089582E0089580E0089580E781
:1020500098E00E94FD0F67E072E0833011F46DEBB1
:1020600073E0AB014D5F5F4F21E080E798E00C9497
:10207000C00BAF92BF92CF92DF92EF92FF920F937D
:102080001F93CF93DF93182F8BE894E090938208EF
:10209000809381089093840880938308C09170088E
:1020A000D0917108E090FD09F090FE0987E0E822E8
:1020B000FF2417FF0CC180E798E00E94FD0F082F56
:1020C000813009F4A7C048F0823009F4D8C08330C9
:1020D00009F069C0C4E2D0E09FC060E080E00E94E7
:1020E000B500082F60E08FEF0E94B500B82E60E0C9
:1020F00081E00E94B500F82E60E082E00E94B50009
:10210000C82E61E080E00E94B500A82E62E080E069
:102110000E94B500E82E62E081E00E94B500D82E52
:102120000830C1F460E08E2D0E948D01882391F06B
:1021300016FF28C06EE170E088E190E0DF91CF915A
:102140001F910F91FF90EF90DF90CF90BF90AF90D5
:102150000C94E60B81E2A81238C015FF05C08B2D48
:102160000E94F10181112AC016FF1DC08C2D0E9412
:10217000F1018823C1F01092790862ED71E08BECD7
:1021800091E0DCCFCE010E9431058111D3CF15FF44
:1021900005C062E470E08CE390E0D0CFCE010E94F5
:1021A00018058111F6CFDF91CF911F910F91FF900C
:1021B000EF90DF90CF90BF90AF9008951092790884
:1021C00068E873E081E893E0B9CF81E2E81202C0E9
:1021D000D816D9F00C3019F48CE0F81639F00F51FC
:1021E000023008F781EE8F0D8230E8F6CE010E94B2
:1021F000310581110AC0CE010E941805882399F289
:1022000066E470E083E490E099CF62E270E08FE1F1
:1022100090E094CFD0E0C0E060E080E00E94B500A4
:10222000182F81E0033009F48FEF60E00E94B500C1
:10223000173059F4873069F4EF28F1F4619666E0BD
:102240006C0F7D2F711DCE0179CF1C3059F48C306D
:1022500099F3612F0E940B05882309F4A4CF689697
:1022600065E0EECF103219F4803299F7E5CF1F31D7
:1022700081F78F3171F7E0CF6F9663E0E1CF60E0D7
:102280008FEF0E94B500C82F60E080E00E94B5008B
:10229000D82F60E081E00E94B500D73039F4873054
:1022A00071F467E170E081E190E048CFD03209F04D
:1022B0007ACF8032B1F3C03209F075CF03C0C73096
:1022C00009F071CF6BE370E085E390E037CF14FF46
:1022D00007C180E798E00E94FD0F082F813039F098
:1022E00050F1823009F4D6C0833009F05CCF6FEF33
:1022F00080E00E94B500C82F8FEF013009F481E023
:102300006FEF0E94B500182F81E0013009F48FEFC4
:102310006FEF0E94B500D82F612F8C2F0E940B0504
:10232000882309F488C0013009F08EC069E270E0AA
:1023300083E290E003CF6FEF80E00E94B500082FAA
:102340006EEF80E00E94B500F82E6FEF81E00E94F2
:10235000B500073081F4873081F516FD1CC0CE0131
:102360000E941805811117C015FF1AC064E570E0BE
:102370008EE490E0E3CE0032D1F48032F1F48F2D80
:102380000E94F101882371F1109279086AE570E0EA
:1023900089E590E0D3CE60E370E08AE290E0CECEB3
:1023A000CE010E943105882309F4FDCEDFCF0C3029
:1023B00031F10F3111F48F3121F1C13181E0D807B2
:1023C000A9F582E0809379088AE590E0DF91CF91CA
:1023D0001F910F91FF90EF90DF90CF90BF90AF9043
:1023E0000C94430216FDD7CFCE010E943105811116
:1023F000D2CF15FDBBCFCE010E941805D4CF8C30B3
:10240000E1F6CE010E943105882329F064E370E0F3
:1024100081E390E093CECE010E941805882309F451
:10242000C2CE68E570E085E590E088CEC73CD2403A
:1024300009F0B9CEC6CF6D2F8C2F0E940B058823D3
:1024400041F0033009F472CF6DE470E087E490E06E
:1024500075CE8C2F0E947504882309F4A4CE812F99
:102460000E947504882331F0EF2809F45CCF013015
:10247000C1F6CCCF8D2F0E947504882309F493CE2A
:10248000EF2821F4013009F051CFDECF013009F0FF
:10249000BDCFC7CF6FEF8FEF0E94B500C82F6FEF92
:1024A00080E00E94B500D82F6FEF81E00E94B50058
:1024B000D83039F4883009F439CFC83009F073CEF8
:1024C000C3CFD13219F4813209F430CFC83009F4C6
:1024D0006ACEC13209F067CED13209F064CEB4CFF2
:1024E00015FF88C080E798E00E94FD0F813009F455
:1024F00090C0A0F0823009F461C063E0833009F03D
:1025000052CE812FDF91CF911F910F91FF90EF90CD
:10251000DF90CF90BF90AF900C94A40C60E080E06F
:102520000E94B500E82E61E080E00E94B500D82F3F
:1025300060E08FEF0E94B500082F6FEF8FEF0E94D1
:10254000B500D82E61E08EEF0E94B500182F61E033
:102550008FEF0E94B500C82F60E081E00E94B500B7
:10256000F82E64E08C2F0E948D01811105C0CF30C0
:1025700019F0DF3009F417CE81E2E8120CC0F8122E
:102580000DC0802F0E94F101882309F40CCE81E058
:102590008093790815CE8FE1E81689F3DF3029F4AE
:1025A000CF3019F41D50123060F0CD50C23070F4AD
:1025B00064E0802F0E948D0181110FC085E392E0BD
:1025C00005CF6DEC72E088EC92E0B8CDDF3081F79A
:1025D00067EC72E084EC92E0B1CD8D2DDF91CF916C
:1025E0001F910F91FF90EF90DF90CF90BF90AF9031
:1025F0000C94800C16FF63C080E798E00E94FD0FEA
:10260000813051F058F0823009F456C0833009F01F
:10261000CACD81E292E0DACE61E073CF60E080E083
:102620000E94B500F82E60E081E00E94B500082FFE
:1026300061E080E00E94B500182F61E081E00E9417
:10264000B500D82F60E082E00E94B500E82E61E07E
:1026500082E00E94B500C82F64E08D2F0E948D019A
:10266000811105C0DF3019F01F3009F49CCD81E2E3
:10267000F8120CC0013279F48E2D0E94F1018823EA
:1026800009F491CD81E08093790877CD8FE1F8123C
:1026900002C00F3189F31F3079F4DF3069F4CD5077
:1026A00067E171E082E191E0C23008F447CD61E179
:1026B00071E08EE091E042CD8FE790E087CE13FF8E
:1026C00072CD80E798E00E94FD0F182F813039F01D
:1026D00038F1823009F466C0833009F064CD60E0DF
:1026E00080E00E94B500C82F81E0133009F48FEF1D
:1026F00060E00E94B500C93219F0893209F040C08B
:1027000085E380936E0886E3DF91CF911F910F914F
:10271000FF90EF90DF90CF90BF90AF900C94D304D8
:10272000C334D105E0F4C533D10508F03CCDC13147
:10273000D10540F0CF31D10508F435CDA3972E97C0
:1027400008F431CD84E090E0909382088093810872
:102750008AE090E0909384088093830824CDC83168
:1027600081E0D80740F4CB3081E0D80708F01BCDDA
:10277000C754D109E4CFC15CD2402D9718F713CDCF
:1027800086EB91E0133011F090E080E0DF91CF9183
:102790001F910F91FF90EF90DF90CF90BF90AF907F
:1027A0000C94ED0B60E080E00E94B500C82F62E061
:1027B00080E00E94B5000E94F101882381F08C2FF7
:1027C0000E94F10181110DC085E030E020E03093DE
:1027D000820820938108820F932F911DBBCF82E046
:1027E000F4CF86E025E232E0F2CF0F931F93CF9330
:1027F000DF93082F162F803409F473C02091FD0950
:102800003091FE09C8E3D0E0C21BD30B80E798E00B
:102810000E94FD0F282F80E190E0233011F488EF13
:102820009FEF8C0F9D1FAC014F705527452B39F042
:10283000233009F468C028EF3FEF820F931F2091E7
:10284000780865E2621B362F3F7011F06DE1621B64
:102850000E949B008F3F09F444C099E0899FF001DA
:102860001124EA5AF64F808108133BC081E090E0C2
:10287000908787836381062E000C770B83E0759524
:1028800067958A95E1F7772781819281805991092F
:1028900023E0959587952A95E1F79927A2E3A69FCE
:1028A000A001A79F500D1124475B5A4FFA01E80F72
:1028B000F91F1582FC0131964E0F5F1FEA011D8240
:1028C0006F5F7F4FA69F9001A79F300D1124275B5C
:1028D0003A4F820F931FDC0115961C92E20FF31FF3
:1028E000158281E08093020A1093030A8091000A06
:1028F0008250E82FF0E0EE58F74F853038F49181A0
:1029000091938F5FFACF28E030E097CF80E48093F7
:10291000770880917A08815080937A081092010A92
:102920001092000ADF91CF911F910F910895FF92AD
:102930000F931F93CF93DF93C82F8B01FF24F39442
:10294000833011F4FF24FA9460E08F2D0E94B500CB
:10295000D82F6EEF8F2D0E94B500F82E83E0C33084
:1029600009F48DEF6EEF0E94B500E091000A90E44B
:10297000E23028F0E250F0E0E059F74F92812AED82
:102980002F0D233040F48652833028F49333D1F056
:10299000973309F440C0D83109F044C0953009F0AC
:1029A000A4C0B80162567E4FC8018C569E4F0E944B
:1029B000E60B69E282E0DF91CF911F910F91FF90CA
:1029C0000C94F51384E3C13041F51AE3933309F411
:1029D00016E30E948E0099E0899FF0011124EA5AC3
:1029E000F64F108314821086178286E490E0C3307D
:1029F00011F48EE190E02091FD093091FE09821BD7
:102A0000930B928381839091780888E2891B83835A
:102A100069E280E4D0CF88E3D6CF19E39333C9F6D7
:102A200015E3D7CFD93171F4993009F05EC0B80100
:102A300067557E4FC80181569E4F0E94E60B69E2A2
:102A40008BE0B9CF973021F488E680938008E0CFFF
:102A5000DA3111F49923A1F09A31A9F40E94F50119
:102A600080937C088F3FC9F1C80185529E4F0E9418
:102A70004302C093020A84E28093030A64E2C9CF4E
:102A800069E28EE098CF9C3041F580917B088A30D6
:102A900054F58B5F80937B0869E280E40E94F51314
:102AA0008FE30E948E0099E0899FF0011124EA5A79
:102AB000F64F2091FD093091FE098CE390E0821BD6
:102AC000930B928381839091780885E2891B83839D
:102AD000148281E090E096838583DF91CF911F91EE
:102AE0000F91FF9008958EE0D5CF973009F0B4CFC5
:102AF000ABCF83FF3DC0E0916E08EA52E93008F0A9
:102B000048C0F0E0EA57FA4E0C94F2398F15AE1532
:102B1000B015B215B615B215B415B215B41580912D
:102B2000000A882359F0813069F080E798E00E941C
:102B3000FD0F813051F0833069F008958BE280936E
:102B40006E0827C08AE20C94D30470E060E081E054
:102B50000C94971466EB71E083E0FACF8DE2EFCF2F
:102B600081E3EDCF8AE2EBCF85E0E9CF0C94C70299
:102B700087FF31C080916E088E3229F030F48A329E
:102B800049F08C3231F48150DACF8033E1F3823373
:102B9000D1F308958091010A811104C080E09AE088
:102BA0000C946E048230A8F32091000A2150330B5C
:102BB00090917A089217130689F381508093010A45
:102BC00080E09AE00E946E048091000A823009F74A
:102BD0001092010A089584FFDCCF80916E088D3237
:102BE00029F030F48A3249F08B3299F68F5FA7CF03
:102BF0008F32E1F3813369F6F9CF8091000A682FB3
:102C000070E040917A08242F30E0F90131966E1778
:102C10007F0709F4BECF9091010A91110FC0811175
:102C200004C081E08093000A0895F90131976E177E
:102C30007F0734F4423021F48F5FF4CF882389F387
:102C4000813011F4423080F421503109921713067B
:102C500099F3823059F493E09093000A433008F4DA
:102C6000B7CF8093010A089582E0DCCF9F5F9093F5
:102C7000010AE2CF5C98FC012591CF012EBD000036
:102C80000DB407FEFDCF6150B1F75C9A0895DC01E9
:102C900046175707A0F09D969C919D979E3061F036
:102CA000E92FF0E0EE0FFF1FEA0FFB1F528B418B65
:102CB0009F5F9D969C939D9741505109E9CF089540
:102CC0002F923F924F925F926F927F928F929F923C
:102CD000AF92BF92CF92DF92EF92FF920F931F932A
:102CE000CF93DF9300D000D000D0CDB7DEB70091F6
:102CF000D6091091D7090F5F1F4F1093D709009382
:102D0000D609037011270115110509F019C1F090BA
:102D100044050E94C6042091CB0890916E082111B1
:102D200083C2ECEDE90FE73108F02AC0F0E0E55688
:102D3000F94E0C94F239F217D817C016C016C01607
:102D4000B517B216B816B816B816B816B816B8161B
:102D5000B816B816BF17C016C0169B189B189B183C
:102D60009B189B1882FF0AC08AE20E94D30408C005
:102D700082FF04C08AE280936E0802C00E94791527
:102D80008091780895E2C92EC81AD12C06E519E081
:102D90004601B0E18B0E911CAA24A394B12CF8013A
:102DA00080818F3349F0833009F412C2075F1F4FCF
:102DB000F9E0043D1F0799F78091CB0881115EC3AC
:102DC00080918108909182088B38944061F08091C5
:102DD00083089091840800917008109171088B38D5
:102DE000944009F04EC30CEC18E0D12CC12C48E300
:102DF000842E912C5DE2252E54E0352E64EF462E74
:102E000063E0562E74E1672E712CD80111962D9136
:102E10003C9112972115310509F488C09D96EC91DB
:102E20009D97EE2311F40C94A221E1509D96EC9312
:102E30009D97F0E0EE0FFF1FE00FF11FE188F28891
:102E40001596FC92EE921497B701660F771F660FE6
:102E5000771F80E06C5B774D8F4F0E94870364E0A3
:102E600070E0CE0101960E9437030E94F102F80142
:102E700083819981891B83839B8121813281290FE1
:102E8000311D97FD3A95328321839081923011F460
:102E90000C947620933011F40C94BB20913089F57A
:102EA000FFEEEF16F3E0FF0629F048E2E41644E0F7
:102EB000F40639F593E058E2E51654E0F50609F01A
:102EC00091E040916E084532E1F0933011F00C949E
:102ED000732096E1D80118969C9318971D964D91F2
:102EE0005C911E97440F551F440F551F50965C93DD
:102EF0004E931F971A963C932E93199787501B96C3
:102F00008C93EE0CFF1CB70180E0625D704E8F4F1A
:102F10000E9487030E94E6027C010E94F102BFEF3B
:102F2000EB16FB0619F0F801F582E482FFEFCF1AE9
:102F3000DF0A025D1F4F23E0C216D10409F065CFFE
:102F40008091020A813011F40C944E24833011F0E8
:102F50000C94D1238091FF09813610F40C94CE2378
:102F600082508093FF090C94D12382FDFDCE809185
:102F70004305811105CF8F2D0E94391001CF8C7030
:102F800009F4FECE8091D4099091D5098F3F9F43DB
:102F900031F4109249050E94C40485E0ECCE809182
:102FA0007E0890914205890F80937E088BE3E3CEE3
:102FB0008C7009F4E5CE80917F08823068F00E9421
:102FC000C7028EE080937B0880917F0881508093B8
:102FD0007F080E94C404D4CE1092490585E08093F6
:102FE0006E08F7CF80917C088F3F21F40E94F50195
:102FF00080937C08E0917C083FE0C32E37E2D32E1B
:10300000EF3F99F08091FD099091FE0948E3C42EAD
:10301000D12CC81AD90A3EE2E39FF0011124E453EF
:10302000F74F81819281C81AD90A60E081E00E943D
:10303000B500B82E60E08FEF0E94B500E82E80E763
:1030400098E00E94FD0F833071F09E2DEB2CB92E7D
:10305000F3FE0CC0B80160517E4FC80186519E4FEF
:103060000E94E60B8DCE06EB11E0F2CFF4FE21C0FC
:1030700089E280936E088FE790E0909371088093C7
:103080007008E2E7F8E090E080E02191203461F4FC
:103090008059974F2AE1DC0112962C9380917A088F
:1030A0008F5F80937A086CCE01968530910569F721
:1030B000F5CFF2FE09C0E11007C0B8016F517E4F95
:1030C000C80184529E4FCCCFF6FE1BC0813091F0D8
:1030D000833009F055CE1C141D043CF46DE973E0F7
:1030E0008CE993E0B1104CCEBBCF8BED91E00E9408
:1030F000430246CE63EE71E082EE91E0E11040CEF5
:10310000AFCFF5FE3DCE813051F0833009F038CE9F
:1031100069E973E088E993E0E11032CEA1CFD7FEF0
:1031200007C0B1102DCE67EE71E086EE91E098CF2A
:1031300081E993E0DCCF83FF31C0973351F020F475
:10314000963309F1F12C1CCE99539230D8F787E3CE
:103150002AC080917E08853090F098E390936E08A5
:10316000855080937E086AE080E00E942B028230C6
:1031700020F480E080934205E5CF88E6FBCF87E32B
:103180000E94D304DFCF80914405809340050E94C4
:1031900024038093440580916E08F2CF87FF06C018
:1031A00086E3973379F680936E08CCCF84FF07C00F
:1031B000963341F680917E08853020F2C8CF82FF99
:1031C000C1CF8AEC890F823008F0BCCF892FD8CFCD
:1031D000218132814091FD095091FE0983819481C2
:1031E000973009F4E3CD65817681672B09F0DECD58
:1031F000240F351F235331092331310508F0D6CD73
:10320000082E000C990B9C012F5F3F4F28153905A4
:103210000CF0CCCD0396C816D9060CF0C7CDB682FB
:10322000A5820E942710C2CD993209F0C5CDF3FEC8
:10323000C3CD8091700890917108823BB1E09B07EB
:1032400009F4DCC008F053C08A3AF1E09F0709F4A2
:10325000D5C08E3A21E0920709F4D0C0803891059C
:1032600009F0AACD80E798E00E94FD0FE82EE3E088
:10327000CC24CA9406EB11E08E1721F0CC24C39421
:1032800010E000E06EEF80E00E94B500A82E60E044
:103290008C2D0E94B500D82E81E0F3E0EF1201C022
:1032A00080E060E00E94B500E82E60E08C2D880F81
:1032B0000E94B500B82E62E080E00E94B500C82EE2
:1032C00026E2A21609F478CD31E0E31609F461C0D4
:1032D00085EE8E0D823008F45CC047E1D41265C0E3
:1032E000A8014C515F4FB80165527F4F58C08036DE
:1032F00033E0930771F028F48633924009F4B2CF9B
:103300005BCD8436A3E09A0721F08836934009F01C
:1033100053CD60E08FEF0E94B500D82E6FEF80E0B4
:103320000E94B500082F6FEF8FEF0E94B500182F95
:103330006FEF8EEF0E94B500E82E8D2D0E94F101F7
:10334000882309F439CD802F0E94F101882379F078
:10335000812F0E94F101882351F08E2D0E94EF00F1
:1033600021E04AE952E061E972E0811119C0802F41
:103370000E94EF00882309F41FCD812F0E94EF00E7
:10338000882309F419CD21E04FE852E069E872E0A2
:1033900007C0A801465F5E4FB8016A5F7E4F21E01B
:1033A00080E798E00E94C00B07CD55E3D51609F4DD
:1033B00097CF64E08D2D0E948D0181110CC08C2D62
:1033C0000E94F101811113C0A80145575F4FB80158
:1033D00067577F4FE4CF8B2D0E94EF00882379F34E
:1033E000A80147525F4FB8016D527F4FD8CFA80157
:1033F0004F525F4FB80165537F4FD1CF60E081E0FE
:103400000E94B500D82E6FEF81E00E94B500082F12
:103410006FEF82E00E94B500E82E6FEF83E00E941C
:10342000B500182F8D2D0E94F101882309F4C4CC1A
:10343000802F0E94F101882379F08E2D0E94F101E6
:10344000882351F0812F0E94EF0021E044EE50E0EC
:103450006BED70E08111A4CF802F0E94EF008823D4
:1034600009F4AACC812F0E94EF0021E049ED50E041
:1034700063ED70E0882309F49FCC92CF0E94930300
:103480008C01A6E5AA2EA9E0BA2E1D82EF2DE870C8
:10349000EE83BBE84B2EB4E05B2E22242394312C28
:1034A00080917808F5E28F2E881A912CD5018C91A5
:1034B0008B3009F068C014969C91983009F066C072
:1034C000FD81FF5FFD8329E0A20EB11CFE3041F7B4
:1034D00060918108709182086B3834E07307D1F0F5
:1034E00040918308509184084B3884E0580791F04C
:1034F00020E080E798E00E94C00B8BE894E0909376
:1035000082088093810890938408809383080E94A6
:1035100093038C01003292E0190709F4B3C208F05A
:10352000C8C20137B1E01B0709F473C208F060C2DA
:10353000023B110509F472C308F01EC207381105D9
:1035400009F4FEC108F0F2C10A35110509F4BDC342
:103550000338110509F4F4C1000F111FB80180E010
:10356000625D704E8F4F0E9487030E94E6028C01BD
:103570000E94F1020F3F100709F435CC1093710837
:103580000093700830CC8F3309F4A2CFF501C180CD
:10359000D2802091FD093091FE09C20ED31EE38036
:1035A0000E2C000CFF083701FFEF6F1A7F0A8431E1
:1035B00009F457C108F06EC0853009F445C0E8F53C
:1035C000882309F441C0843009F07ACF80917008D3
:1035D000909171088039A2E09A0708F439C18B39BB
:1035E000924008F46DCF80E798E00E94FD0F813093
:1035F00009F466CFF50187819085892B09F060CFAA
:10360000F4E3CF1AD10828E0C216D10408F058CF4D
:10361000C4014096681679060CF052CF33E0E30EF1
:10362000F11C8E149F040CF04BCFD50118963C92E0
:103630002E9217970E94271043CF893029F08C30A3
:1036400019F0873009F03CCF80917A08863008F075
:1036500037CFF1E3CF1AD10827E1C216D10408F021
:103660002FCFC4014096681679060CF029CF3FE0B1
:10367000E30EF11C8E149F040CF022CFD501179697
:103680008D919C91892B09F01BCFC5010E94EF04FD
:1036900085E086C08D3208F053C08B3208F083C0BD
:1036A0008A3191F2893209F00BCFB1E3CB1AD108FC
:1036B000E7E1CE16D10408F003CF9401205F3F4F1D
:1036C000C7010996821793070CF0FACEFBE0EF0EC4
:1036D000F11C8E149F040CF0F3CE80916E0883339E
:1036E00009F4EECE20E120934305509282084092E7
:1036F0008108509284084092830883E380936E0887
:103700008091E409A10102C0440F551F8A95E2F798
:10371000CA012091D4093091D509822B932B909323
:10372000D5098093D4091092410562E18AE00E9494
:103730002B028093420551E050934A0581E030C04E
:10374000873309F481CF8B3321F0833309F0B8CE6E
:103750007BCF21E3C21AD10837E1C316D10408F0A8
:10376000AFCEC4014096681679060CF0A9CE4FE0A2
:10377000E40EF11C8E149F040CF0A2CED501179616
:103780008D919C91892B09F09BCEC5010E94EF047D
:1037900080917E08F5019581890F80937E0886E0EF
:1037A0000E9425068DCE91E3C91AD108A7E1CA1659
:1037B000D10408F085CE9401205F3F4F6216730656
:1037C0000CF07ECEBFE0EB0EF11C8E149F040CF0CB
:1037D00077CEEE81EE2309F473CEF0E1F09343054A
:1037E0005092820840928108509284084092830847
:1037F0008B3249F58CE2D5018C9390E080E04D81CD
:103800004F5FF50125813681082E02C03595279539
:103810000A94E2F720FF11C0E42FE80F29E0E29FAD
:10382000F0011124EA5AF64F1086178220812D32BA
:1038300011F02F3251F431E0348301968F3091052D
:1038400001F783E0ADCF8BE2D6CF58E05483F5CFBC
:103850008A3D910508F4C7CE853E910508F430CE27
:10386000C2CE80917008909171088039B2E09B07B8
:1038700008F450C08B39924008F422CEF7E3CF1AF7
:10388000D1082BE0C216D10408F01ACE9401205FB3
:103890003F4FC7010E96821793070CF011CE30E10F
:1038A000E30EF11C8E149F040CF00ACE80917B086D
:1038B00018160CF005CE10927B0880E798E00E9465
:1038C000FD0F813081F1E6EBEE2EFF24F39483307F
:1038D00009F0F6CDD50113968C91B5E2B81BB093E3
:1038E000780821E0A70144505E4FB7016F507E4F2A
:1038F00080E798E00E94C00BF50181819091FD095D
:10390000890F877009F0DCCDC70182509E4F0E945D
:103910004302D6CD8A3D910508F4B0CF853E91058E
:1039200008F4CECDABCFF12CE12CD4CF093A110560
:10393000C9F10B3A1105B1F10B38110509F00CCEA4
:103940006FEF80E00E94B500F82E6FEF81E00E94DB
:10395000B500082F6FEF8FEF0E94B500182F3CE1E4
:10396000F3127CC10C3109F083C16DEA71E08AEA7F
:1039700091E00E94E60B37CA043E110509F338F4C2
:10398000013D1105E9F2093D1105D1F2E5CD0A3FEE
:10399000110541F00436F1E01F0721F00F3E11053B
:1039A00009F0DACD6FEF80E00E94B500182F6EEFBE
:1039B00080E00E94B500082F4FEF60E0812F0E9449
:1039C0005C01882309F494C14EEF60E0802F0E94CF
:1039D0005C01882309F4E8C16BEA70E08AEA90E0B0
:1039E0000E94E60B809179088F5F80937908FBC96C
:1039F0000E3D21E0120709F452C298F5063841E065
:103A0000140739F0F0F4C8018D579140029708F07F
:103A1000A3CD6FEF80E00E94B500182F6EEF81E01C
:103A20000E94B500143109F0BDCF843109F0BACF3E
:103A30008BEC98E00E946B0466E871E08FE791E000
:103A400098CF053B81E0180709F4ACCF023D91E027
:103A5000190709F4A7CF0D3AA1E01A0709F07CCDA8
:103A60006FCF0A30B2E01B0769F0A8F402301007EC
:103A700049F0063022E0120729F00C3F31E013072D
:103A800009F06ACD10927B0885E280936E0810924F
:103A9000410580E0E0C0023142E0140799F30931AA
:103AA00052E0150779F30E3082E0180709F054CD83
:103AB000E9CF053393E0190708F068C00333A3E0AA
:103AC0001A0708F0A1C10738B2E01B0709F438CF84
:103AD000F0F50134F2E01F0709F432CF58F409334E
:103AE00032E0130709F42CCF0D3342E0140709F438
:103AF00027CF32CD013652E0150751F0083682E06B
:103B0000180709F48BC00F3592E0190709F024CD8E
:103B10006FEF80E00E94B500182F6EEF80E00E94EA
:103B2000B500082F4FEF60E0812F0E945C018823D1
:103B300009F4B2C14EEF60E0802F0E945C0188233F
:103B400009F47AC161E672E080E692E049CF053A75
:103B5000A2E01A07E9F258F40F38E2E01E0709F470
:103B6000EFCE0A39F2E01F0709F4EACEF5CC0A31AC
:103B700023E0120769F2073233E0130709F444C166
:103B8000003B42E0140709F0E7CCC2CF083B53E00A
:103B9000150709F477CF08F50B3693E0190709F4F8
:103BA000B7CF58F40C33B3E01B0709F42DC103362B
:103BB000E3E01E0709F4C4CECFCC0439F3E01F07BD
:103BC00009F46DC1023B23E0120709F45BCF08380A
:103BD00033E0130709F49CCFBFCC043C43E0140747
:103BE00009F450CF58F40C3B83E0180709F44ACF8E
:103BF000003C93E0190709F445CFAECC0F3CA3E09D
:103C00001A0709F43FCF063DB3E01B0709F43ACF8A
:103C1000083CE3E01E0709F09FCC34CF8FE30E94FD
:103C20008E0029E0829FF0011124EA5AF64F20917C
:103C3000FD093091FE098CE390E0821B930B928387
:103C400081839091780885E2891B8383148282E0C6
:103C500090E0968385830E942506C5C84BE1F41247
:103C6000C2C88B3179F463E673E080E693E081CEDD
:103C7000802F0E94EF00882371F061EB71E08EEAE3
:103C800091E077CE0E94EF00882391F067E673E021
:103C900084E693E06ECE802F0E94F101882309F420
:103CA000A2C81092790865EB71E082EB91E061CED9
:103CB000812F0E94F101882309F495C81092790898
:103CC0006BE673E088E693E054CE6FEF80E00E94ED
:103CD000B500182F6EEF80E00E94B500F82E812FFE
:103CE0000E94F10181110BC080EF810F823038F00A
:103CF00081E890E0909371088093700874C80091F7
:103D000079080F5F009379088F2D0E94F1018111CE
:103D10000DC080EF8F0D823048F080EF810F823030
:103D200050F46EE770E083E690E023CE6AE570E041
:103D300089E590E01ECE133091F11652133078F1E0
:103D40000330D0F0053058F58091FD099091FE09BF
:103D500087709927892B31F063E870E082E890E062
:103D60000E94E60B62E08BE798E00E94810462E625
:103D700070E08FE590E0FDCD8091FD099091FE0906
:103D800087709927892B31F063E870E082E890E032
:103D90000E94E60B6EE570E08BE590E0EACD6AE00C
:103DA00072E087E092E0F4CF133059F46AE072E0F9
:103DB00087E092E00E94E60B6FEA70E08CEA90E008
:103DC000D8CD165269E172E083E192E0133008F435
:103DD000D0CD80917908833078F3853050F462E05B
:103DE0008BE798E00E94810463EB70E080EB90E049
:103DF000C0CD6AE072E087E092E00E94E60B6BEAD9
:103E000070E08AEA90E0B5CD6FEF80E00E94B500E7
:103E1000182F6EEF8FEF0E94B500163109F078CEA3
:103E2000863109F075CE8BEC98E00E946B046CE350
:103E300073E085E393E09DCD133059F460EC73E0BB
:103E40008DEB93E00E94E60B65E672E082E692E07D
:103E500090CD16526FEC73E089EC93E0133008F4C8
:103E600088CD80917908833078F3853050F462E012
:103E70008BE798E00E94810469E672E086E692E0B2
:103E800078CD60EC73E08DEB93E00E94E60B61E689
:103E900072E080E692E06DCD87E392E02BCF009157
:103EA0007C085EE2059F800111240453174FD8015E
:103EB0001396FC90139711962D913C91C90137FDF3
:103EC000079673E0959587957A95E1F7E12C823115
:103ED0009105A4F04F2D0F2C000C550B63E0559568
:103EE00047956A95E1F762E3649FF001659FF00DE5
:103EF0001124E80FF91FE45CFA4FE080C9014096F5
:103F000097FD079643E0959587954A95E1F7B12C83
:103F100082319105A4F04F2D0F2C000C550BB3E00E
:103F200055954795BA95E1F762E3649FF001659F67
:103F3000F00D1124E80FF91FE45CFA4FB080F8018E
:103F4000878181110C94F316C090FD09D090FE0971
:103F5000C20ED31EC8010E948809813019F4F2E014
:103F6000CF0ED11C80917008909171084CE450E004
:103F70008E3D914011F043E350E0809178084C155C
:103F80005D0514F40C94F31636E0C30ED11C4C15E9
:103F90005D0514F00C94F3162F2DFF0C330B082E37
:103FA000000C990B499744275527421B530B841744
:103FB000950714F40C94F31640E150E0421B530BA8
:103FC0008417950714F00C94F3168CE0D80117961B
:103FD0008C9384E00E94250662E0C80106960E9448
:103FE000810481111DC0C8010E948809813081F0BF
:103FF000833011F00C94F3164AE454E067E474E063
:10400000B1100C94F316C8010E9406270C94F31605
:10401000E1100C94F31641E154E06EE074E0F3CF4C
:104020008091FD099091FE09A8E3EA2EF12CE81A8F
:10403000F90AF80181819281E81AF90A89E28093EC
:104040006E0880E09AE00E946E04C8018D960E947E
:104050006B0480E798E00E94FD0F45E352E0833057
:1040600011F04FE750E02091CB082332E1F0822F8E
:1040700090E0880F991F875B9A4FA9E4B5E0A817D5
:10408000B90751F0FC01E65CFC4F6081718132960A
:10409000718360830297F3CF50938608409385081D
:1040A0002F5F2093CB08C8010E9488091E141F04AB
:1040B0007CF04BE654E06FE574E0833021F048E794
:1040C00054E06CE674E0C8010E9447160C94F316A5
:1040D0004EE554E062E574E08330A9F345E854E02E
:1040E00069E774E0F0CF98E10C946A17C7018E522B
:1040F00094400E9710F00C94811742ED4E0D68E835
:1041000076E180E00E945A03B82E8CE10E948E0076
:10411000B9E08B9FF0011124EA5AF64FB482E2E332
:10412000EE16E4E0FE0611F00C94811763E080E0E7
:104130000E942B02825ED80118968C931897509695
:104140007C926E921F9788E790E01E969C938E93C8
:104150001D9713968C911397825F1B968C931B97D8
:1041600011968D919C91129740971A969C938E93DD
:1041700019970C948117B6E0EB16B4E0FB0639F002
:10418000EFE3EE16E4E0FE0611F00C948117809147
:104190007D0881110C948117E0917C08EF3F31F488
:1041A0000E94F50180937C080C9481172EE2E29F17
:1041B000F0011124E453F74F6091780884819581D0
:1041C00046EF5FEF8F33944011F041E150E0809172
:1041D0008008882321F0109280080C948117218197
:1041E00032818091FD099091FE09820F931F840F07
:1041F000951FCD97069710F00C948117062E000C92
:10420000770B23818CE090E0821B910927FD939529
:104210009B01255231098217930714F40C948117DE
:10422000655171098617970714F00C9481178CE07B
:1042300080937D0883E00E9425068091700890910C
:1042400071088B3D41E0940708F449C0813F51E07B
:10425000950728F081599340469708F040C064E0E4
:1042600081E00E942B02682F8BE798E00E94810476
:10427000882311F40C9481178091FD099091FE0917
:104280005401A81AB90AD80111968D919C91A81AC7
:10429000B90A8BEC98E00E946B04C8010E9488095F
:1042A000833001F589E194E0F80125A52E3029F14C
:1042B00037E13C9DF0013D9DF00D1124E753FE4F89
:1042C000E20FF11DEE0FFF1FE55BFA4F322F332394
:1042D00061F052914291538342833150F8CF67E0AD
:1042E00083E0BFCF80EE93E0DFCFD80152969C935E
:1042F0008E9351972F5F9D962C9380E798E00E94B4
:10430000FD0F813099F0833011F00C94811768EC27
:1043100073E085EC93E01A141B0424F064EC73E062
:1043200081EC93E00E94E60B0C9481176EE072E042
:104330008BE092E01A141B04ACF362E172E08FE0B0
:1043400092E0F0CF80917B08882311F40C94A017A1
:1043500016968C911697882311F40C949617139641
:10436000EC91C901089797FD079673E0959587959D
:104370007A95E1F7B12C82319105ACF04E2F0E2EDB
:10438000000C550B63E0559547956A95E1F7F2E30C
:10439000F49FB001F59F700D1124860F971FDC016B
:1043A000A45CBA4FBC90C901409697FD0796B3E054
:1043B00095958795BA95E1F7A12C82319105A4F0E6
:1043C0000E2E000CFF0BA3E0F595E795AA95E1F7FB
:1043D00062E36E9FA0016F9F500D1124840F951F03
:1043E000FC01E45CFA4FA080F8014081433009F4FD
:1043F00047C0D0F4413011F00C9496178091FD091C
:104400009091FE0940E450E0481B590B24173507F2
:104410003CF5848195818D32944011F00C9496176F
:10442000558244820C949617463010F00C949617DF
:104430008091D6099091D70960E370E00E94CA3953
:10444000892B11F00C94961784819581443009F0E2
:1044500065C38638944009F09EC187E894E096C110
:104460004217530714F00C94961784819581843F6A
:10447000934011F00C949617358224820C94961771
:104480008091FD099091FE097401E81AF90AE21A77
:10449000F30AC8010E948809833009F0C7C0B1102F
:1044A0001EC0D8011D968D919C9191958195910981
:1044B000E816F90654F0BBEDEB16BFEFFB062CF443
:1044C00044E454E063E474E085C0C70185960A972C
:1044D00030F465E080E00E942B02882389F3C70155
:1044E0004B96049708F061C0809170089091710814
:1044F0008C3DE1E09E0740F08F3DF1E09F0760F1C9
:10450000823E914008F443C0B1100C949617A1105C
:104510000C94961768E180E00E942B0281110C94A4
:10452000961764E00E942B02811107C048E454E012
:1045300067E474E0C8010E94471648E454E067E469
:1045400074E0C8010E94471642E454E06DE374E051
:10455000C8010E944716B4CF65E080E00E942B029C
:10456000811115C042E454E061E474E0C8010E9486
:10457000471621E041EE51E060EE71E080E798E0FF
:104580000E94C00BC8010E9454060C949617B110EB
:104590000C94961760E1A1100C94961780E00E948D
:1045A0002B0281110C949617C8CFC70147964497E8
:1045B000B0F4AA2029F0B1100C9496176CE0EECF5D
:1045C00065E080E00E942B0248E454E067E474E078
:1045D0008111F1CFC8010E9447160C94961733E061
:1045E000E30EF11C4BEEE41643E0F40610F00C94DD
:1045F0009617D8019D968C919D978E3011F40C944E
:10460000961797E19C9DF0019D9DF00D1124E80FF8
:10461000F11DEE0FFF1FE852F74F23E034E0368321
:1046200025838F5F9D968C930C949617A1101AC0CA
:1046300032E2E316F10464F0D8011D968D919C914D
:104640008E159F052CF04BE054E06AE074E0C2CF79
:10465000C70144970E9730F465E080E00E942B027A
:10466000882389F3C7010596499708F055C08091C2
:104670007008909171088239B3E09B0738F0853952
:10468000E3E09E0758F188399340D8F1B1100C94BB
:104690009617A1100C94961768E180E00E942B02F7
:1046A00081110C94961764E00E942B02811107C0BF
:1046B0004FE054E06EE074E0C8010E9447164FE0FE
:1046C00054E06EE074E0C8010E94471649E054E0EF
:1046D00064E074E0C8010E944716B5CF65E080E051
:1046E0000E942B0281110DC049E054E068E074E0A3
:1046F000C8010E94471621E047E953E066E973E0EC
:104700003DCF60E1B1100C94961780E00E942B021F
:1047100081110C949617D3CFC7010C96079790F48C
:10472000AA2029F0B1100C9496176CE0EECF65E04A
:1047300080E00E942B024FE054E06EE074E08111B3
:10474000F1CF48CF29E1E21A2CEFF20A3BEDE31654
:1047500033E0F30610F00C949617D8019D968C91D7
:104760009D978E3011F40C94961797E19C9DF00163
:104770009D9DF00D1124E80FF11DEE0FFF1FE85273
:10478000F74F2CE334E04BCF89E894E0F8019583B0
:1047900084830C94961786E894E0F8CF84E08093A5
:1047A000020A0CEC18E086E5682E89E0782E95E286
:1047B000592E21E2422E33E0C32ED12C44E2A42E06
:1047C000B12C57E2852E912CD80111968D919C9198
:1047D000892B09F1C80107960E946E047801B8E0A0
:1047E000EB0EF11CF8018085893109F494C008F0C2
:1047F00064C0873109F48FC0D80118968C9181323A
:1048000008F0BBC08E3108F02DC1863109F4BCC060
:10481000883109F4B9C0025D1F4F60167106A1F618
:104820008DE798E00E946E04809141058E3038F447
:104830009091D60990FD03C08F5F809341058091D0
:104840004305882319F081508093430580918008A7
:10485000882359F02091D6093091D7092370332746
:10486000232B19F481508093800826960FB6F89474
:10487000DEBF0FBECDBFDF91CF911F910F91FF9093
:10488000EF90DF90CF90BF90AF909F908F907F90F0
:104890006F905F904F903F902F9008958091FF0907
:1048A00087FD03C08E5F0C94B11784E08093020AE9
:1048B0008091030A80936E0874CF8E51883008F07F
:1048C0009BCF85859685181619061CF40197968747
:1048D0008587F80185859685892B09F08DCF809194
:1048E0006E08853209F488CF85A5811185CF68E2ED
:1048F0000E942B02811180CFC8010E94880969E3C0
:1049000070E0833011F070E060E0AB014E5F5B4F10
:104910006B507C4F2EC0D8011F968D919C91509763
:10492000009769F02091D6093091D7092370332779
:10493000232B29F4019750969C938E931F97F8018F
:1049400087859089892B09F057CF6CE380E00E941E
:104950002B02811151CFC8010E94880969E370E0E0
:10496000833011F070E060E0AB014C505C4F685157
:104970007C4FC8010E9447163FCF813309F04BCFCF
:10498000C7010E94B00947CFC7010E94B0094091FA
:104990007808F8012385818592856091FD097091E1
:1049A000FE09860F971FC697429708F034CF042E52
:1049B000000C550B822F220F990BB501681B790B48
:1049C0009A01205F3F4F621773070CF024CF9401C8
:1049D000281B390B421753070CF01DCF809180081C
:1049E000882361F010928008D80118968C9118974E
:1049F0008631A1F587E118968C930DCF80917B08C5
:104A000084300CF5F08480E798E00E94FD0FB8E157
:104A1000FB1212C06FEF71E0813011F069EB73E0AF
:104A2000F394F801F0866D5F7F4F21E0AB0180E7E2
:104A300098E00E94C00BD8CF63E072E0813081F330
:104A400065EB73E0EDCF8CE080937D0810927C08DD
:104A500064E08BE798E00E948104C6CF89E1F80109
:104A60008087D9CEC7010E94B00920917808D8016B
:104A70001996ED90FC901A971B963C908091FD0939
:104A80009091FE098E0D9F1DCB970D9708F0C3CE18
:104A9000B52DB21B2B2F30E0832D032C000C990B6E
:104AA000A901405F5F4F841795070CF0B4CE0496C0
:104AB000281739070CF0AFCEF80187859089019748
:104AC000429708F0A8CE80918008882319F01092B0
:104AD0008008A1CE40861486D08AC7868FE30E94C4
:104AE0008E00B9E08B9FF0011124EA5AF64FF28252
:104AF000E1823382148280E798E00E94FD0F6FE02C
:104B000072E0813011F061EC73E06D5F7F4F21E066
:104B1000AB0180E798E00E94C00B7DCE88389440BE
:104B200009F432CE88E894E031CE0F920FB68F931D
:104B30009F93EF93FF93809135058D5F8D3708F03C
:104B40008D5780933505E6E3F5E080818E4F8083B5
:104B500091819F4F918382818F4F828383818F4F79
:104B60008383EAE3F5E080818F5F808381818F4FCB
:104B7000818382818F4F828383818F4F83838FB123
:104B80008F6066991C9B88278F3681F4809134054D
:104B9000981B963068F0E0E0F8E087E78083818337
:104BA00088E180936000F0936000FFCF909334051C
:104BB000FF91EF919F918F910FBE0F9018951F92CB
:104BC0000F920FB60F921124AF92BF92CF92DF9245
:104BD000FF920F931F932F933F934F935F936F9386
:104BE0007F938F939F93AF93BF93EF93FF93CF9355
:104BF000DF9300D01F92CDB7DEB780912E058823BA
:104C000091F180912205811104C080912F058823A4
:104C100051F14091980050919900569547955695BD
:104C2000479580912205811141C030E020E08FEF4F
:104C30009EE360912F05662309F4ADC0E1E1F1E048
:104C40006191662309F4A7C0A191B191E0910F0190
:104C5000F09110014E0F5F1F4A175B0708F475C0F3
:104C60004A1B5B0BF9CF8FEF9FEF909399008093D6
:104C700098000F900F900F90DF91CF91FF91EF91DF
:104C8000BF91AF919F918F917F916F915F914F9164
:104C90003F912F911F910F91FF90DF90CF90BF9088
:104CA000AF900F900FBE0F901F901895A091190113
:104CB000B0911A0122E02983F5E1CF2EF1E0DF2E39
:104CC00013E2A12E15E0B12E8FEF9EE3F501F190D6
:104CD000619171918B015F01F11019C0E2E0CE0E7C
:104CE000D11CF981F13081F460911F056A9F900118
:104CF0006B9F300D11243595279535952795359562
:104D000027953595279595CF31E03983DFCFF6018B
:104D100020813181240F351F2617370710F0261BFD
:104D2000370B769567952617370718F4AF0DB11D29
:104D30008B01F601219331936F01021B130B0817AE
:104D4000190708F0CECFC801CCCFFD01F695E79545
:104D500070E04E175F0720F0719561957109FD01B4
:104D6000AFE0B1E04D935D93E41BF50BE817F90755
:104D700008F4CF01E0911E05E69FA001E79F500DCA
:104D800011245595479555954795559547955595B2
:104D90004795240F351F880F991F880F991F813061
:104DA00044E09407A8F0019788279C7F9C5F90932C
:104DB000990080939800293731056CF428388FEFDB
:104DC00038075CF020581092BF002093CF0051CFDD
:104DD00080E094E0ECCF28E7F5CF28E8F3CF1F92EE
:104DE0000F920FB60F9211248F939F9382E496E057
:104DF000909389008093880081E080931B059F91A8
:104E00008F910F900FBE0F901F901895DC014617E1
:104E10005707F8F09D968C919D978E30B9F0E82F4A
:104E2000F0E0EE0FFF1FEA0FFB1FAE17BF0731F0D8
:104E300027853089328B218B3297F7CF52965C933E
:104E40004E9351978F5F9D968C939D97415051093A
:104E5000DECF089581E080934B0580934C0587E079
:104E600080934D0510926E0810926F081092710891
:104E70001092700886E0E0E0F1E0A2E7B8E001906F
:104E80000D928A95E1F785E2809378088BE894E0AB
:104E9000909382088093810890938408809383087C
:104EA000E5E8F8E01192119288E0EB3CF807D1F7C1
:104EB0001092CB08ECECF8E08EE086831782DF01DD
:104EC00051969F01235D3F4F1D921D922A173B076C
:104ED000D9F715A6BE9699E0E635F90771F7109255
:104EE000E3091092E2091092E8091092E709109282
:104EF000FA091092F9091092FC091092FB0910921C
:104F0000FE091092FD0984E08093020A8AE28093F0
:104F1000030A0895CDB7DEB72C97DEBFCDBF91E071
:104F20009093E0001092E2001092E10080E2809302
:104F3000D8001092D700809165008068809365004A
:104F4000789483E084BD83E085BD90936E00E1E8B2
:104F5000F0E083E08083E0E881E08083E1E983E0C2
:104F60008083E0E981E08083E1EC87E08083E3EC0B
:104F700081E08083E0EC82E08083E2EC81E080836A
:104F8000EAE787E080838068808381EC80937C00FF
:104F900081EF85B987EE84B982E38BB982EF8AB954
:104FA000769A6E9880EF81BB10BA80E58CBD9DBD6E
:104FB0000E94F7025F9A0E94F7025C98ECEAF0E028
:104FC00085918EBD00000DB407FEFDCFE93BC1F712
:104FD0005C9A81E88093640011E01093650068E0BA
:104FE00089EB90E00E943A169FB7F89422E436E0ED
:104FF000309389002093880083E0809380008BE1C8
:1050000080938100109285001092840080916F003F
:10501000826080936F009FBF5E9AE4E1F0E08CE9CC
:105020009DEE60EF7FEF2591359155914591285187
:10503000354909F4CA0180933E0590933F052591B7
:105040003591559145912851354909F4BA0160933C
:105050004505709346058BEA0E9463040E94C702CF
:1050600010926E080E94C40586E582BF82E4809398
:10507000C0001093C30080E48093C4001092BF006E
:105080008FE78093D1001092900089E08093910087
:1050900080914D0580931F0580931E053E9A3F9A8F
:1050A00010932E055E98F89480911B05811109C01C
:1050B00083B7816083BF7894889583B78E7F83BFE1
:1050C000F2CF10921B057894109120052FE741E054
:1050D00050E061E07FEF8BE994E00E949F0462E082
:1050E00083EC90E00E943A162FEF47E051E061E038
:1050F0007FEF8BE191E00E949F0462E081EC90E001
:105100000E943A168EEF810F1F5F8E3F30F4809120
:1051100033058F5F8093330510E0109320055E9A6E
:10512000D0902005D092210580916E08843240F500
:10513000803208F01DC3853009F417C208F4AFC1EE
:105140008E3108F419C28E3109F40DC30E9467062E
:10515000811104C080912D050E94AB0680914D0500
:1051600090912F05992311F40C94A239863008F4FC
:1051700086E0865080931F058AE080931E0592CFBB
:105180008B3308F05BC1883208F0B3C0863208F474
:10519000B0C08732D9F689E280936E081092D709A1
:1051A0001092D6091092FE091092FD0983EE9FEF2E
:1051B0009093FC098093FB0989EA9FEF9093E8099B
:1051C0008093E70985E2809378088FE790E09093D9
:1051D00071088093700880E88093FF091092000A9C
:1051E0001092010A84E08093020A8AE28093030A03
:1051F0004091E4096EEB72E582E10E944C033B01B1
:10520000882E2CE3E22E28E0F22E10E002E320E0CC
:10521000412F882DB3010E943F0362E370E0C70174
:105220000E9437030E94F1021F5F82E3E81AF1082F
:10523000103161F74091E40968EE72E582E10E9465
:105240004C030E94870306E519E08EE0F82E80E00B
:1052500090E4E92E8111C2C269E070E0C8010E94A9
:10526000370381E0D8019C919F3309F080E0FA94E4
:10527000075F1F4FF110EECF0E94F1024091E40949
:1052800062E173E582E10E944C030E9487036EE2B3
:1052900070E08CEC98E00E9437036EE270E08AEFD9
:1052A00098E00E9437036EE270E088E299E00E9485
:1052B00037030E94F102B9EEEB2EB9E0FB2E10E0AD
:1052C00002E020E0412F68EB7AE380E00E943F0398
:1052D0000E94A302D7018D939D937D011F5F18301B
:1052E00079F781E0809349050E94C40480E00E9420
:1052F000AB060E94B90481110E9460168091780863
:105300009BEE980FA5E2BA2E913148F095E3980FE5
:10531000F0E7BF2E9A3418F49BE3B92EB81A4B2C41
:10532000512C1201B5E22B1A3108C10195958795D0
:1053300095958795E0E8EE2EFF24FA948D2C912C1C
:105340006C01E8E0CE1AD1088091FB099091FC092C
:10535000840120ED33EE4EE0B6018E0D9F1D0E94BC
:105360003A09F0E8EF0EF11CE11401E0F00661F7F4
:1053700051EFE52E59E0F52E64E0A62E620121E101
:10538000C21AD1084A2D65E678E182E10E944C03F9
:105390009B01482F8401B601D7018D919D917D011C
:1053A0000E946608A394B8E0AB12ECCF3201E1E0B2
:1053B000F0E0FE83ED83F2E1FF8304E408874D8192
:1053C0005E8141505109C3010F968035910508F067
:1053D0008AC31F8182E3849F9001859F300D112431
:1053E000A901475B5A4F5A8749876D817E81869F05
:1053F0009001879F300D1124C901875B9A4F9C87CC
:105400008B879885191708F06EC3212F30E0F901BA
:1054100043E0EE0FFF1F4A95E1F78091FD0990915F
:10542000FE09E80FF91F3497E13FAFEFFA070CF0E0
:10543000D8C1B2E0B10FBF831E5FE3CF8B3311F44D
:105440000C940F35853408F081CE0E94B90488236E
:1054500011F40C946535009144050E94C604182F80
:105460008091D6099091D70901969093D70980939E
:10547000D60920916E08E4ECE20FE93010F00C94AC
:105480006535F0E0EA5BF54D0C94F239E136EB3727
:10549000CC37CC37CC37CC37D537DD371835E82E7D
:1054A000F12C8701000F111F0E0D1F1D0D0D111D79
:1054B00024E834E041E070E060E090E080E00E94A9
:1054C0003A098091D6099091D7090C9761F410920E
:1054D000D7091092D6090FEFE01AF00A23E0E22272
:1054E000FF24E0926E080E94B904882309F42ECEAE
:1054F0008091D6099091D70901969093D70980930E
:10550000D60980914205803218F48F5F809342055E
:105510000E94C604882309F419CE80914205803286
:1055200009F014CE809164008E7F80936400809196
:105530007A00806480937A0080917A0086FDFCCFA7
:1055400000917800109179000E940C036027712768
:105550007093480560934705809164008160809353
:10556000640085E080936E08F1CD8091490581113A
:1055700045C086E080936E0880916E081AEF180F80
:10558000853108F03DC0893008F03FC0873008F011
:1055900047C00E94B904882309F458C08091D609F5
:1055A0009091D70901969093D7098093D6090E94CC
:1055B000C60483FFAEC080916E08EAEFE80FE731C2
:1055C00008F03DC0F0E0E951F54D0C94F239122B92
:1055D000182B1F2B162B5B2B7D2B1A2B162B5B2BC3
:1055E0001F2B1F2B1F2B1F2B1F2B1F2B862B862B9D
:1055F000862B862B962B962B962B7F2B8CE0BACF67
:105600008D3108F0C6CF182FC4CF90914B05911162
:10561000C0CF90914C0516E0180F9111BACFF3CF7F
:1056200011E0B7CF89E080936E0809C089E1FBCF14
:105630008BE0F9CF0E94C70280E88093FF09809138
:105640004205883418F48F5F809342058D2C912C8D
:10565000A40163E0169F400D511D11248A0126E824
:1056600034E341E070E060E090E080E00E943A09BD
:1056700080916E088951843008F468CD8091D609F4
:105680009091D709969587959695879564E170E0F6
:105690000E94CA398C01000F111F080F191F080D35
:1056A000191D28EE34E94AE066E170E084E190E0FB
:1056B0000E9466084BCD80914C0590914B0591114D
:1056C00013C0811106C081E080934B0580934C0587
:1056D00002C010924C0580914B05882359F08091AF
:1056E0002D050E94AB06ABCF8823A9F310924B0582
:1056F00081E0ECCF0E94C405A2CF87E094CF85E182
:1057000080936E0880914A05811199CF0E944905C6
:1057100096CF84FF13C080916E088E3048F48C3091
:1057200028F497EF980F923008F089CF8F5F7BCFE6
:105730009BEE980F933008F082CFF8CF87FF7FCF92
:1057400080916E088F3048F48D3028F496EF980FD2
:10575000923008F074CF815066CF9AEE980F933054
:1057600008F06DCFF8CF1092420580E280936E086A
:105770000E94B9048823F9F0109142050E94C604E2
:105780002091D6093091D7092F5F3F4F3093D70929
:105790002093D60923703327232B41F41F5F1093E6
:1057A00042051B3519F497E290936E0883FF03C0FE
:1057B00087E280936E08809142050D2D10E073E022
:1057C000879F000D111D112428E834EB42E070E0A2
:1057D00060E090E080E00E943A09B8CCF801E082F5
:1057E00046CD8091FF098E171F060CF47BC1225114
:1057F0003109A985BA85A20FB31F15969C9141E086
:10580000410F4251550BA985BA85A40FB51F1596B6
:105810007C91EB84FC842E0D3F1DD90115968C9153
:105820004E0D5F1DDA0115966C91923061F4723065
:10583000A1F5813091F5613009F041C0C12C23E61A
:1058400033ED41E156C0923109F465C0973039F427
:105850008C3019F5C12C2FE33DED41E14AC09C305D
:1058600051F4883009F45CC08C30B9F4C12C23E0C9
:105870003EED41E13EC0C12C2DE736E142E19133DE
:10588000C1F1C12C2FED36E142E1923391F1C12CEF
:1058900021E437E142E1933361F18C31C1F021E63B
:1058A00039EE41E18B31B1F0913009F03EC07130F9
:1058B00009F047C0811145C0662309F4CEC06131AB
:1058C00009F05CC060E02DE631EE41E1BAC02FED99
:1058D00037EE41E18091D6099091D70968E170E0F7
:1058E0000E94CA3966E070E00E94CA39C62ECC0C0C
:1058F000C60EC80CD92CD11C7901042FB2E0EB0ED6
:10590000F11C011D92E0A92E20E140E1B301CF017D
:105910000E94130891CDC12C2FE232EE41E1E9CF74
:10592000C12C21EA3DED41E1E4CF9A3209F499C05E
:105930009B3209F49BC09E3209F49DC0903309F458
:105940009FC0803109F4A1C0613109F4BBCF96300A
:1059500049F4653011F00C94A63960E023EB32E194
:1059600042E16FC07B3021F4893011F40C94AE39E0
:10597000933009F48FC08D3009F491C06E3009F472
:1059800093C08F3019F46F3009F493C0653009F477
:1059900095C06A3009F497C0813039F4633169F4F5
:1059A00060E023E533EE41E14CC0743119F48431F9
:1059B00009F48EC0853109F490C0963149F46631FE
:1059C00011F00C94B43960E029E935EE41E139C0B9
:1059D0009F3149F48F3111F00C94B43960E023EE1B
:1059E0003AEE41E12EC0903249F4703211F00C943D
:1059F000B43960E025EA3BEE41E123C0613211F4A5
:105A00000C94B83929E23DEE41E1963259F02BE28F
:105A100039EF41E1973231F02DE235E042E1983241
:105A200009F00ACD8091D6099091D70960E370E022
:105A30000E94CA3963E070E00E94CA39C62ECC0CBD
:105A40006C0D6401C60ED11C7901042F52E0E50EE5
:105A5000F11C011D83E0A82E57CF25ED39ED41E162
:105A6000F0CF60E02FE231E142E1EBCF60E021EFE7
:105A700031E142E1E6CF60E027E334E142E1E1CF0A
:105A800060E02BEB35E142E1DCCF60E02BEA30EE69
:105A900041E1D7CF60E02CEA31ED4AE0D2CF60E0BF
:105AA00025E63EED41E1CDCF60E027E23FED41E16B
:105AB000C8CF60E029EE3FED41E1C3CF60E021E5D2
:105AC00038ED41E1BECF60E02BE13CED41E1B9CFE3
:105AD00060E025E134EE41E1B4CF60E027ED34EE43
