:100000000C9464000C948C000C948C000C948C0068
:100010000C948C000C948C000C948C000C948C0030
:100020000C948C000C948C000C948C000C948C0020
:100030000C948C000C948C000C948C000C948C0010
:100040000C948C000C94C1260C948C000C948C00A5
:100050000C948C000C948C000C948C000C946725F0
:100060000C948C000C948C000C948C000C948C00E0
:100070000C948C000C948C000C948C000C948C00D0
:100080000C94B1250C948C000C948C000C948C0076
:100090000C948C000C948C000C948C000C948C00B0
:1000A0000C948C000C948C000C948C00D5F08D1466
:1000B000A1C881CFD9F1AF2000C0A0D92181FFA86C
:1000C00000A800A83F00FC2611241FBECFEFDAE0F5
:1000D000DEBFCDBF11E0A0E0B1E0EAE7F3E702C088
:1000E00005900D92A630B107D9F72AE0A6E0B1E05D
:1000F00001C01D92A430B207E1F710E0C4E6D0E0E1
:1001000004C02197FE010E94B539C336D107C9F753
:100110000E945C270C94BB390C940000982FE6E5F4
:10012000F9E080E02081291729F08F5F39968E3021
:10013000C9F78FEF0895AC01E6E5F9E080E070E0E3
:1001400090819F3381F0218132812417350739F462
:100150002381022E000C330B2617370729F08F5FFF
:1001600039968E3069F78FEF08959091780825E2DF
:1001700030E0291B310997FD339543E035952795EC
:100180004A95E1F7062E000C770B620F711D77FD83
:1001900022C04091FD095091FE0921E430E0241B6A
:1001A000350B48E08402C0011124820F931F23E025
:1001B000959587952A95E1F78231910574F022E3B0
:1001C000269FF001279FF00D1124E80FF91FE45C32
:1001D000FA4F8081089581E0089580E00895863285
:1001E000A1F4E6E5F9E090E080812BEC280F2230C5
:1001F00038F08953823020F09F5F39969E30A1F706
:1002000081E09E3059F480E00895982F977F9130D7
:1002100031F095EE980F81E09230A8F7089581E0D3
:10022000FDCF0F931F93CF93DF932091FD09309162
:10023000FE09C0E4D0E0C21BD30B28E08202C0015B
:100240001124C80FD91F2091780885E290E0821B05
:10025000910927FD939523E0959587952A95E1F7D8
:10026000680F162F110F110F110F00E013FF02C0BE
:10027000185001E0CE0187709927892B09F0249747
:10028000CE018F709927892B09F02897612FCE0115
:100290000E949B00002359F08F3F49F460E1610FF9
:1002A000CE01DF91CF911F910F910C949B00DF91B4
:1002B000CF911F910F910895962F6436B9F02EEDCE
:1002C000280F243098F4642F892F0E9411018F3F4A
:1002D00059F099E0899FF0011124EA5AF64F808184
:1002E0008E32C9F08033B9F080E00895982F9F7D59
:1002F00091F0833081F093EE980F923060F09AED98
:10030000980F943040F0843331F092ED980F81E0F3
:10031000923050F7089581E0FDCF823109F446C054
:100320009091780825E230E0291B310997FD33953B
:1003300093E0359527959A95E1F7222309F44FC06C
:100340008130A1F1893209F44AC0823211F084323D
:1003500061F4633009F443C0611104C041E060E01E
:100360000C945C0140E061E0FBCF833211F08532F8
:1003700039F46130A1F1662389F340E06FEFF0CFEB
:1003800098EE980F923090F08A3191F460E080E01E
:100390000E9411018F3F51F099E0899FF0011124D3
:1003A000EA5AF64F81E094819430C1F080E00895DC
:1003B000982F9F7DA1F0982F9F7E973081F094EF2A
:1003C000980F933060F090EF980F923040F08533A3
:1003D00031F093EE980F81E0923040F7089581E07C
:1003E000FDCF44E664E60C945C01CF93DF938091EB
:1003F000780825E2281B30E08091FD099091FE09E4
:1004000068E370E0681B790BECECF8E08FEFA0E894
:10041000B0E090E040814330B9F44381042E000CF9
:10042000550B4217530781F441815281EB01C41BE4
:10043000D50BAE01D7FF03C05195419551094A171D
:100440005B0714F4892FDA019F5FBE96933011F792
:10045000DF91CF910895482F2091470530914805AD
:1004600086B52827C9019695879520FF02C024EB01
:1004700092279093480580934705641B770B0E9451
:100480008D39840F08959C019091CB08933269F0C7
:10049000E92FF0E0EE0FFF1FEB57F74F318320837A
:1004A0009F5F9093CB0881E0089580E008952BEB47
:1004B00034E0E9E4F5E0A0E0B0E0BD0180E00E94B6
:1004C000B4020E94A302BD011296A20FB31F8217AD
:1004D000930799F38F5F9F4F21F4AF5FBF40DB011C
:1004E00078F00E94680440E050914505609146050F
:1004F00080E20E94A802729A0E942C03A0E0B0E061
:100500007CEF0E9468044A2F509145055B0F609173
:100510004605611D82E00E94A802832F71FD822F93
:1005200070FD81910E94C002759518F421503040F1
:1005300019F01196AA2389F7729A0E942C032115AB
:100540003105F9F608950E94EB02982F0C94F10200
:1005500072980E94C002862F0E94C002852F0E94BE
:10056000C002842F0C94C002462F50914505570FAE
:1005700060914605681F83E00E94A8021EBC089592
:100580008EBD00008EB50DB407FEFCCF0895E9E4E2
:10059000F5E0ABEBB4E060E070E080E00E94B40214
:1005A0009D01AF0160E00E94E6028217930751F4BB
:1005B000D901FA0160E00E94EB0281931197D9F70B
:1005C00061E0F1CF0E94F102862F08950E94EB02B4
:1005D000982F0C94EB020DB407FEFDCF8EB51EBC18
:1005E00008950DB407FEFDCF8EB5729A0895E5E02B
:1005F000F0E00E940C03319728F068517C4F8F4F38
:100600009F4FF9CFAB01FC010E940C0364177507E3
:100610008E079F07C8F30895AAE3B5E02FB7F894B3
:100620007D918D919C9166B52FBFA89B05C06F3FB2
:1006300018F47F5F8F4F9F4F22E0660F771F881F50
:10064000991F2A95D1F708958FB18095807F669B79
:1006500088601C9B84600895729885E00E94C002A7
:1006600080E00E94C00280FDFBCF729A0895FC01D9
:100670000E94EB02819361507040D1F7089590E0A1
:10068000409F09F4142E5527090E151E600D711D8B
:10069000851F11240C9487030F9303E020E00E9430
:1006A0003F030E94E602782F0E94F102682F892FF3
:1006B0000F9108950F9301E020E00E943F030F91F6
:1006C0000C94F102CF93DF93C091E509CF3FE9F09D
:1006D000D091E409DF3FC9F04C2F8EE0D89F400D48
:1006E00011246FEB7AE380E00E945A03CD1BDD0BEF
:1006F000D7FF03C0D195C195D10990E0219709F4A6
:1007000092E0890FDF91CF91089580E0FBCF462FD3
:1007100050913E05570F60913F05681F83E00E948E
:10072000A8021EBC08950F931F93CF93DF9300D0B0
:1007300000D0CDB7DEB7E091CB08E150E093CB0815
:10074000F0E0EE0FFF1FEB57F74F00811181109380
:10075000710800937008B801660F771F660F771F46
:1007600080E06D5D774D8F4F0E94870364E070E0FD
:10077000CE0101960E9437030E94F1028091780811
:100780009981891B809378082B818091FD09909134
:10079000FE09820F911D27FD9A9581312EEF920758
:1007A00084F480E19EEF9093FE098093FD09C801D7
:1007B0000F900F900F900F90DF91CF911F910F919D
:1007C00008959093FE098093FD098A81082E000CFC
:1007D000990B2091E9093091EA09280F391F3093CC
:1007E000EA092093E9092091EB093091EC09280FDF
:1007F000391F3093EC092093EB092091ED093091DA
:10080000EE09280F391F3093EE092093ED0920914E
:10081000E7093091E809820F931F939560E072E039
:100820000E94A1399A959093E8098093E7098C81F9
:10083000082E000C990B2091F1093091F209280F34
:10084000391F3093F2092093F1092091F309309177
:10085000F409280F391F3093F4092093F3092091EC
:10086000F5093091F609280F391F3093F6092093C6
:10087000F5092091FB093091FC09820F931F803804
:1008800029F09093FC098093FB0991CF1092FC0909
:100890001092FB098CCF0F931F93CF93DF93EA0144
:1008A00089010E948703FE010150104021F00E943F
:1008B000EB028193F9CF0E94F1028083DF91CF9107
:1008C0001F910F91089572980E94C002729A089524
:1008D00086E00C946304FC0110820895FC01908171
:1008E000992311F0915090830895FC018081861B1B
:1008F00087FD07C0808381E0908119160CF480E0A9
:1009000008951082F8CFFC01208131812F5F3F4F85
:100910002617370721F03183208380E00895118264
:10092000108281E0089530E73CBDDC0130E8439F50
:10093000C0011124A80FB91F5E91352F6111372F07
:100940003C93C89500C052235EBD0197A9F704D01F
:1009500003D030E50DB43CBD089580913305882364
:1009600029F081508093330581E0089580E0089557
:100970000C945702CF93C0914405C09340050E9448
:10098000240380934405C0958C23CF9108959091C2
:10099000FF09903869F490916E089093030A93E0F0
:1009A0009093020A80936E088EE78093FF09089562
:1009B000903641F480936E0881E08093020A85E2CC
:1009C0008093030A0895CF93DF93EC018FE30E9495
:1009D0008E0099E0899FF0011124EA5AF64F89812F
:1009E0009A81928381838B818383148216821582FC
:1009F00083E090E098878F83DF91CF9108958830CE
:100A000029F481E0683039F080E005C08132E1F7F7
:100A100081E06132C9F708959C018B33910599F00B
:100A20008D34910581F08634910569F08835910502
:100A300051F0223382E0380731F081E02E3232402B
:100A400019F080E0089581E008959C0187319105B7
:100A500089F08932910571F08232910559F0C4977D
:100A600049F081E02338310539F02F37310521F085
:100A700080E0089581E008950895CF931092D509FC
:100A80001092D4091092D7091092D6091092D90960
:100A90001092D8091092DB091092DA098EE090E0EA
:100AA0009093DD098093DC0986E090E09093DF0964
:100AB0008093DE0984E08093E0091092E1091092AE
:100AC000E3091092E2098FEF8093E4098093E5092E
:100AD0001092E60993E090937F08109279081092A3
:100AE0007A089EE090937B0880937C0810927D08A2
:100AF00089E180937E0810924905C0916E08C55126
:100B000086E0C89FB0011124072E000C880B6955A0
:100B1000754C8F4F0E9487030E94E6028093E40980
:100B20000E94E6029093D9098093D8090E94E602B8
:100B30009093DB098093DA090E94F10289E1C111E7
:100B400001C084E180937E080E94B80488E380930A
:100B50006E08CF910895109271001092C10010920A
:100B6000220510922F05089580912205882309F40B
:100B70002CC080912905811128C060912A057091AF
:100B80002B0580912C0527E030E043E255E00E94E0
:100B90004B04E3E2F5E0219181919191892B11F4CD
:100BA0001092220590E080E02695821B9109219108
:100BB00041915191452B11F4109222052695821BEB
:100BC000910990931A018093190180912F05882330
:100BD000C1F080911401811114C0609130057091B1
:100BE00031058091320524E030E041E151E00E947E
:100BF0004B048091120190911301892B11F41092F2
:100C00002F0580912205811106C080912F05811149
:100C100002C00C94AB050895CF9390914C05992395
:100C200041F190912E05992321F1482F6AE975E150
:100C300080E00E944C0360933005709331058093EF
:100C40003205C1E0C0932F050E94B4058091710068
:100C500081110FC080E094E09093990080939800F8
:100C60001092950010929400C093C10082E080938E
:100C70007100CF910895FC018085823371F481E386
:100C800080878181928109979287818783818F5F95
:100C90008387148687E00C940C06089580912205C2
:100CA000811104C080912F05882341F080910E01AD
:100CB0008F5F833020F480930E0181E008951092BD
:100CC0000E010E94B40580912905882399F0815076
:100CD0008093290581110EC080912A0590912B05E2
:100CE000A0912C050796A11D80932A0590932B05B2
:100CF000A0932C05809114018823F9F281508093F0
:100D000014018111DACF8091300590913105A091C5
:100D100032050496A11D8093300590933105A09370
:100D20003205CBCFCF92DF92EF92CF9380932D05F8
:100D300090914B05992351F190912E05992331F112
:100D4000482F64E975E180E00E944C036B01E82EB6
:100D50000E94AB05C0922A05D0922B05E0922C058B
:100D600010922905C1E0C09322050E944E0680E042
:100D700094E09093990080939800109295001092BF
:100D80009400C093C10082E080937100CF91EF90F6
:100D9000DF90CF9008953F924F925F926F927F9233
:100DA0008F929F92AF92BF92CF92DF92EF92FF927B
:100DB0000F931F93CF93DF9300D01F92CDB7DEB771
:100DC0003A01862EABE1B1E0B701E02FDD24382EE9
:100DD00096959695969531E061FD34E060FD330F70
:100DE00062FD32955FEF539F7001E094F09475952A
:100DF00067957595679575956795462F4F3F4CF4A8
:100E00004095941B20FD440F489F600C711C8D1C65
:100E10004FEF17FF0BC0300E20FF02C0000F111F55
:100E2000601A710A8D0817FD8394EE2750E8450378
:100E30000E0EA00DB11D5E1B351608F0352E57E0C5
:100E4000541B591714F4952FD39450E85319482E76
:100E5000552421FD02C04318550820FF02C0440C50
:100E6000551C11245B824A82932E00903E05700C23
:100E700000903F05801C19C0729833E03EBD640CA1
:100E8000751C811CAA24831509F0A3940CD08EBC78
:100E900007D07EBC05D06EBC03D01EBC03D0089525
:100EA000C8950000C895C89508956418750881080C
:100EB000E3DF41151CF0992371F564C0A058BF4FC2
:100EC000C32C20FD0CC06EB51EBC699DBC90BF201C
:100ED000B128BD92C89500C0CA94A9F711C06EB5DB
:100EE0001EBC699DB001DEDFEEB41EBCE99C700142
:100EF000BC90F094BF20B72ABD92C895CA9479F7E8
:100F00001124A319B1099A9509F45CC0AA2019F01B
:100F10000DB4729AB1DFFD01E058FF4FC32C20FDE4
:100F20000EC06EB51EBC699DBC90BE20B028BD929F
:100F3000B080BF20B128B192CA9499F716C06EB59F
:100F40001EBC699DB001BC90F080AEDF00C0EEB465
:100F50001EBCE99C0094B020B62ABD921094F120EA
:100F6000F72AF1920000CA9451F71124A50FB11D80
:100F70009A9561F6DD2031F1AA2021F00DB4729A24
:100F80007BDFC89520FD0CC06EB51EBC699DBC9072
:100F9000BE20B028BD92C89500C03A94A9F712C0EF
:100FA0006EB51EBC699DB0017DDF9EB51EBC999DCE
:100FB000902DBC909095B922B62ABD92C8953A94CE
:100FC00079F7C8951124729A0DB40F900F900F9075
:100FD000DF91CF911F910F91FF90EF90DF90CF9015
:100FE000BF90AF909F908F907F906F905F904F9049
:100FF0003F9008956F927F928F92AF92CF92DF923F
:10100000EF92FF920F931F93803891050CF03AC036
:10101000603471050CF036C0A42FB0E0FD01E80F7C
:10102000F91F1E161F060CF02DC0E22FF0E03F0145
:10103000660E771E161417040CF024C03701802E9C
:101040007B018C019E2F8827842B9B2BC114D104FC
:10105000A1F0269526952695A0FC220F249FF0014D
:10106000ED9D700C811CFC9D700C811CFD9D800C05
:10107000EC9D600C711C1124811C2A2D682DA3018C
:101080000E94CB061F910F91FF90EF90DF90CF90C1
:10109000AF908F907F906F9008957F928F929F92E4
:1010A000AF92CF92DF92EF92FF920F931F93CF9365
:1010B000DF93EC014B016901E42E842FB9010E94FA
:1010C00087030E94EB02782E0E94F1024E2D9601BA
:1010D0002E5F3F4F4F4F93E0A92E68017901042FF7
:1010E000282F472DB401CE010E94FA07DF91CF913E
:1010F0001F910F91FF90EF90DF90CF90AF909F9056
:101100008F907F9008950F931F930091210510E019
:1011100070E020EB36E84FE090E00E944D081F9110
:101120000F9108950F931F930091210510E093E014
:10113000899F000D111D11248091FF0921E130EBE1
:1011400049E070E060E090E00E944D081F910F912F
:101150000895BF92CF92DF92EF92FF920F931F9369
:10116000CF93DF93B82E6B01C0912105D0E0E42E20
:10117000F12C8EE090E0821B91098C01000F111F71
:10118000080F191F0C0F1D1FB701655071092DE1C4
:101190003EE84AE0C6010E944D088E0183E0B89EF9
:1011A000000D111D112423E730E94EE0B701C601FF
:1011B0000E944D08DF91CF911F910F91FF90EF900A
:1011C000DF90CF90BF900895CF92DF92EF920F9370
:1011D0001F93CF93DF93182FD62FC42F482F6CE97E
:1011E0007BE481E10E944C036B01E82E412F6FE507
:1011F0007CE481E10E945A0300912105080F112728
:10120000111F6C2F70E04E2D96018D2F90E00E94E3
:101210004D08DF91CF911F910F91EF90DF90CF900C
:1012200008950F931F93082F10E02BED36EF47E042
:1012300070E060E089E490E00E944D081F910F91FA
:1012400008957F928F929F92AF92CF92DF92EF920A
:10125000FF920F931F93CF93DF93EC014B01690132
:10126000E42E842FB9010E9487030E94EB02782E9E
:101270000E94F1024E2D96012E5F3F4F4F4F92E09C
:10128000A92E68017901042F282F472DB401CE0122
:101290000E94FA07DF91CF911F910F91FF90EF907D
:1012A000DF90CF90AF909F908F907F9008950F9395
:1012B0001F930091210510E093E0899F000D111DFF
:1012C00011248091FF0990E029E135E540E068E3D1
:1012D00070E00F960E9421091F910F910895FC0163
:1012E00084819581853DF3E09F0748F08E3024E0AE
:1012F000920738F08734944010F483E0089584E036
:10130000089581E00895FC0194819F5F9483278173
:1013100030852115310549F0977039F42150310994
:101320003087278381E0232B09F080E00895CF9355
:10133000DF93FC012081203408F059C0EC01E22F3A
:10134000F0E0EB55F64F0C94B539080AF709D20ACC
:10135000E509320A830AF709830AF709080AF70937
:10136000EB0A080AF709030BF709F709F709200B3D
:10137000F7091D0AF7093C0BF7093C0BF709830A2B
:10138000F709F709F7095C0B5C0B5C0BF709F70928
:10139000F709F709F709990B990BF709250AF709D6
:1013A000830A830A3F0A570A3F0A570A1B0BF709A9
:1013B000890AF709940A940A890AF709B00AB00A57
:1013C000900AF709FB09F709150B60E071E0079631
:1013D0000E9483048F8198858833910530F453E00F
:1013E000969587955A95E1F701C087E08C8380E058
:1013F000DF91CF91089560E670E007960E94830424
:101400008F8198856CE070E00E948D396C83EFCFFE
:101410008C818F5F803879F08C838F8198850097DD
:1014200031F32C812F7019F7019798878F83892BBF
:10143000F1F682E0DDCF1C82F0CF60E370E007962A
:101440000E9483048F819885CACF60EC70E0079674
:101450000E9483048F81988524E0969587952A952C
:10146000E1F7C4CF8F8198859C0121503109263145
:10147000310508F0BCCF019698878F83B0CF8C815F
:101480008150883008F0B3CF68E070E0CE01079655
:101490000E948304882309F4AACF8C818F5F8C83F8
:1014A000893009F0A4CF88818F5F8883A0CF8C8199
:1014B000813008F49CCF8930A8F0893009F097CFAB
:1014C0008F819885019698878F834D815E818417DF
:1014D000950709F08CCF203309F089CF18861F8239
:1014E00088E084CF68E070E0CE0107960E94830414
:1014F000882309F47CCF8C8181508C83811177CF34
:1015000088818150D2CF0E948309882309F46FCF4C
:1015100090CF0E948309882309F469CF84E068CFC3
:10152000DF91CF910C9483098C818C3008F05FCFD0
:101530008F819885019698878F836CE070E00E9478
:101540008D396C836C3009F052CF86E3253309F076
:101550004ECF888389819A8140979A83898347CF28
:101560003C814F815885CA01019698878F833C3012
:1015700068F46CE070E00E948D396C836C3009F087
:1015800036CF293309F033CF8AE3E3CF813293405A
:1015900008F42DCF333120F4CA018F58924032CF56
:1015A00088E383CF8F8198859C01215031092E3D9E
:1015B000310508F01CCF019698878F839C0145E088
:1015C000369527954A95E1F72C838F3D910509F0D3
:1015D0000ECF85E00DCF2F813885C90101978F3B54
:1015E000910508F004CF2F5F3F4F38872F83C90143
:1015F00068E170E00E948D396C83203C310509F070
:10160000F6CE83E0F5CE8F8198859C01215031097B
:101610002E39310508F0EBCE019698878F8335E09F
:10162000969587953A95E1F7E1CE8C81803708F061
:10163000DECE8F5FDBCE8C818730D8F382E335CF6F
:101640008F8198858F3521E0920798F401969887CD
:101650008F83803B910511F48AE0C8CE803B9105D1
:1016600008F4FACE20E631E0A901481B590BCA0163
:10167000F3CE18861F82BBCE4FEF263109F041E032
:101680008F819885049798878F83E4E04E02A001AC
:10169000112469817A81460F571F5A834983892B08
:1016A00009F0A5CE87E1263109F089E1888380E43D
:1016B00090E098878F839BCE4F81588541155105C7
:1016C00061F167E57AE380E00E945A034F81588513
:1016D0004150510958874F839B81890F8B838881A3
:1016E0008F3141F02CEF803249F020E08E3131F41F
:1016F0002BEF04C0842F81702CEF281B89819A81E5
:10170000820F911D27FD9A95452B89F09A83898335
:101710008F819885892B09F06ACE8C818F5F8C83AD
:10172000893009F064CE81E288831C8260CE0C97F8
:10173000EDCF60E170E007960E948304882309F4EE
:1017400056CE8C818F5F803109F050CEEECF0F9353
:101750001F93CF93DF93EB018A01222321F0855A57
:101760009F4F0E946B040C171D0790F08091CB08CF
:10177000833259F0E82FF0E0EE0FFF1FEB57F74FE1
:10178000118300838F5F8093CB0801501109EBCF49
:10179000DF91CF911F910F910895AB0120E0BC0123
:1017A00080E798E00C94A70BEF92FF921F93CF93E2
:1017B000DF93EC0160E080E00E94B500182F62E04A
:1017C00080E00E94B5000E94F101882309F451C015
:1017D0001130D9F085EE810F8230B8F010511230FF
:1017E000F0F564E080E00E94B5008F3091F5CE0105
:1017F0008C5C9E4F9093820880938108CB5ADE4F79
:10180000D0938408C093830824C07E018FEBE80E38
:10181000F11CC654DF4FD0938208C0938108F09228
:101820008408E092830869EA71E086EA91E01C315D
:1018300031F01B3171F468E573E085E593E00E94B7
:10184000CD0BD0938208C0938108F0928408E09277
:101850008308DF91CF911F91FF90EF900895CE0103
:1018600080559F4F9093820880938108CA54DF4F20
:10187000C7CFCE0189549F4F9093820880938108EF
:10188000C754DF4FBDCF2091FD093091FE0927706D
:101890003327232BB9F00E94F1018823A9F065EAD0
:1018A00070E080EA90E00E94CD0B82E0809379089E
:1018B00061E080E070E060587F4F90E080589F4F7B
:1018C0000C94CD0B63E0F5CF67E082E0F3CF20917D
:1018D000FD093091FE0927703327232BB9F00E94B0
:1018E000F1018823A9F064E572E08FE492E00E94A0
:1018F000CD0B82E08093790861E080E070E0615D6B
:101900007D4F90E0815D9D4F0C94CD0B63E0F5CF52
:1019100067E082E0F3CF5F926F927F928F929F9207
:10192000AF92BF92CF92DF92EF92FF920F931F93ED
:10193000CF93DF93B82EF62E23E0EE24EA94CFEA7D
:10194000D1E0621721F0EE24E394D0E0C0E060E043
:101950008E2D0E94B500182FCE2CCC0C60E08C2D63
:101960000E94B500982E6FEF8E2D0E94B500082FB3
:101970004FEF6E2D0E945C01D82E6FEF8C2D0E94D0
:10198000B500882EDD2049F1812F0E94F1018823C6
:1019900021F1B3FC40C06FEF80E00E94B500D82E6B
:1019A00061E08E2D81950E94B500182F61E080E0E6
:1019B0000E94B500082F61E08C2D0E94B500E82E32
:1019C00023E0F21252C186E0D81256C1BE01615620
:1019D0007F4FCE0184569F4F9CC060E080E00E9404
:1019E000B500D82E61E080E00E94B500A82E6EEF11
:1019F0008C2D8E0D0E94B50010927908113209F0DD
:101A000066C181E080937908BE016A527E4FCE01A3
:101A100081539E4F7EC0A0907008B0907108EC0C6E
:101A200060E08E2D0E94B500582E6EEF8C2D0E9426
:101A3000B500D82E6FEF8E2D0E94B500782E6EEF78
:101A40008E2D0E94B500682E6DEF8E2D0E94B50080
:101A5000082F83E0F8121BC092E6A91A93E0B90A96
:101A60001E31F1F0892D0E94F10181117CC0DF91BE
:101A7000CF911F910F91FF90EF90DF90CF90BF908B
:101A8000AF909F908F907F906F905F90089581E0CE
:101A9000F812E8CF1D3131F793EBA91A91E0B90A9A
:101AA00024E1A216B104F0F282E10E948E0099E0D6
:101AB000899FF0011124EA5AF64F2781308583E08F
:101AC000F81238C02059310924353105E0F486EB8D
:101AD00090E09087878321E045E753E062E673E07A
:101AE00080E798E0DF91CF911F910F91FF90EF90E9
:101AF000DF90CF90BF90AF909F908F907F906F902E
:101B00005F900C94A70B109279086AE972E080E963
:101B100092E0DF91CF911F910F91FF90EF90DF90B6
:101B2000CF90BF90AF909F908F907F906F905F907D
:101B30000C94CD0B2433310528F02C523140243342
:101B4000310550F486E090E09087878321E046ECF1
:101B500051E063EB71E0C4CF109279086BEE70E056
:101B600081EE90E0D6CF852D0E94F101182F8823B9
:101B700099F04FEF6C2D882D0E945C01882361F055
:101B8000872D0E94EF00882339F0BE0160527F4FFD
:101B9000CE018A529F4FBDCF882D0E94F1011123A3
:101BA000B1F0882309F463CF872D0E94F1018823C7
:101BB00089F0862D0E94F10181110CC010927908E4
:101BC000BE016A507F4FCE0184519F4FA2CF882320
:101BD00009F44DCF872D0E94F101882309F447CFE6
:101BE0008AED8D0D8330E8F4E6E5F9E080818633F7
:101BF00009F4C4C18A3309F4C1C1399699E0E43DBE
:101C0000F907A1F7BE01645E7D4FCE018A5E9D4F4C
:101C10000E94CD0BBE0161507F4F23C0B701C801A8
:101C200078CF109279082091780885E290E0821BA5
:101C3000910927FD939523E0959587952A95E1F7DE
:101C4000823029F0802F0E94EF00811107C0BE0171
:101C50006B557F4FCE0180569F4F5BCFBE016F5FAC
:101C60007E4FCE0189509F4F54CF91E0F91204C0AE
:101C70002BE0D21609F4AACE882D0E94EF0088230B
:101C800079F0892D0E94F101882351F08E2D0E9458
:101C9000F101882329F0802F0E94F101811107C0F2
:101CA0001D50123058F082E080937908D0CFBE01E9
:101CB0006B527F4FCE0182539F4F2BCF0F3099F73E
:101CC000BE01635F7E4FCE01895F9E4F22CF1F31E1
:101CD00009F497CE93E0F9120FC0063109F054C011
:101CE0000E94EF00BE01882309F448C061577E4F6F
:101CF000CE018D579E4F0DCF21E0F21225C0043149
:101D000079F3033109F442C0143009F448C01630A5
:101D100009F44EC08D2D8D7F843009F454C00A30F3
:101D200019F09BE0D91255C18091780885320CF4E6
:101D30005AC0093009F460C08BE0D81609F466C0B7
:101D40002AE0D21609F441C189E2D81264C0B3FE78
:101D500077C082E380936E0883E3DF91CF911F9178
:101D60000F91FF90EF90DF90CF90BF90AF909F903A
:101D70008F907F906F905F900C94C70463597E4F53
:101D8000CE018F599E4FC5CE053139F4BE01605A40
:101D90007E4FCE018A5A9E4FBCCE1A3039F4BE0116
:101DA00065577F4FCE0188579F4FB3CE1B3039F414
:101DB000BE016D567F4FCE0180579F4FAACE86EF52
:101DC0008D0D823038F4BE0161577F4FCE018457AC
:101DD0009F4F9FCE043019F086E0D812F0C080915A
:101DE000780885323CF4BE0165567F4FCE01885697
:101DF0009F4F8FCE053039F4BE0165567F4FCE011F
:101E00008C569F4F86CE26E0D212DCC08091780897
:101E100085320CF4DBCD193209F499CF89EF810FAB
:101E20008230C8F01C30B9F093E0F91261C063E071
:101E3000812F0E948D01882309F463C0802F24C064
:101E40006F2D812F0E948D01882309F410CEBE01D1
:101E50006D577F4FB0C08091FD099091FE0987704A
:101E6000992723E0F21221C0892B31F461E0812F00
:101E70000E948D018111E2CF63E0892D0E948D01C6
:101E8000882309F4F4CD812FDF91CF911F910F9119
:101E9000FF90EF90DF90CF90BF90AF909F908F908A
:101EA0007F906F905F900C94670C892B31F461E008
:101EB000812F0E948D01811109C061E0892D0E944E
:101EC0008D01882309F4D3CD882D01C0812FDF91A6
:101ED000CF911F910F91FF90EF90DF90CF90BF9027
:101EE000AF909F908F907F906F905F900C94430C79
:101EF00081E0F81206C061E0812F0E948D018111FE
:101F000008C0143341F480E380936E0810924105B9
:101F1000AECD802FDCCFB3FE19C064E0812F0E94CC
:101F20008D018111A4CD812F0E94EF00882309F437
:101F30009ECD8A2D0E94F101882309F498CDBE011F
:101F40006B537F4FCE0180549F4FE3CD93E0F91246
:101F500009C086EF810F823008F421CF193009F0D3
:101F600086CD31CF21E0F21282CD812F8D7F84305A
:101F700009F415CF153009F07ACD25CF6EEF80E04A
:101F80000E94B5007E0190EEE90EF11C8E010A520E
:101F90001F4F863209F042CEBE016D577F4FCE01F2
:101FA0008E579F4F0E94CD0BB701C8010E94CD0BE9
:101FB000BE016F577F4FCE0180589F4FAACD05308D
:101FC00009F41ACF94E0D912BFCEBE0169567F4FF3
:101FD00016CF093009F0B4CE0FCFFC01808191817A
:101FE0008D31F2E09F0768F4843121E0920738F4E4
:101FF0008730E1E09E07C8F48F379105B0F081E0AB
:102000000895863BF2E09F0728F48E32924058F004
:1020100083E00895833CE2E09E0738F08C3C9340D7
:10202000B8F384E0089582E0089580E0089580E7A1
:1020300098E00E94ED0F63E072E0833011F462EBF0
:1020400073E0AB014D5F5F4F21E080E798E00C94B7
:10205000A70BAF92BF92CF92DF92EF92FF920F93B6
:102060001F93CF93DF93182F80E894E0909382081A
:10207000809381089093840880938308C0917008AE
:10208000D0917108E090FD09F090FE0987E0E82208
:10209000FF2417FF00C180E798E00E94ED0F082F92
:1020A000813039F0E8F0823009F4D0C0833009F093
:1020B0007DC060E080E00E94B500C82F60E081E054
:1020C0000E94B500C73009F0A8C0873009F0AAC047
:1020D000EF2809F09DC067E170E081E190E031C038
:1020E00060E080E00E94B500082F60E08FEF0E9462
:1020F000B500B82E60E081E00E94B500F82E60E0E7
:1021000082E00E94B500C82E61E080E00E94B50028
:10211000A82E62E080E00E94B500E82E62E081E037
:102120000E94B500D82E0830C1F460E08E2D0E94C8
:102130008D01882391F016FF28C06EE170E088E1E0
:1021400090E0DF91CF911F910F91FF90EF90DF9082
:10215000CF90BF90AF900C94CD0B81E2A81238C005
:1021600015FF05C08B2D0E94F10181112AC016FFB9
:102170001DC08C2D0E94F1018823C1F010927908B6
:102180006EEC71E087EC91E0DCCFCE010E9425057A
:102190008111D3CF15FF05C062E470E08CE390E0BD
:1021A000D0CFCE010E940C058111F6CFDF91CF91E7
:1021B0001F910F91FF90EF90DF90CF90BF90AF9065
:1021C0000895109279086DE773E086E793E0B9CF40
:1021D00081E2E81202C0D816D9F00C3019F48CE074
:1021E000F81639F00F51023008F781EE8F0D82306A
:1021F000E8F6CE010E94250581110AC0CE010E9499
:102200000C05882399F266E470E083E490E099CFAE
:1022100062E270E08FE190E094CFCC3069F48C30D2
:1022200009F456CF6C2F0E94FF04882309F4BECF17
:10223000033009F082CFB0CFC03219F4803291F769
:1022400047CFCF3179F78F3169F742CF60E08FEF19
:102250000E94B500C82F60E080E00E94B500D82F32
:1022600060E081E00E94B500D73059F4873009F46E
:1022700032CFC73009F09ACF6BE370E085E390E08E
:1022800060CFD03209F092CF803209F424CFC0322F
:1022900009F08CCFF1CF14FFFCC080E798E00E94DA
:1022A000ED0F082F813039F078F1823009F4CDC07C
:1022B000833009F07BCF6FEF80E00E94B500C82F1C
:1022C0006FEF81E00E94B500D82F8FEF013009F445
:1022D00081E06FEF0E94B500D82E81E0013009F453
:1022E0008FEF6FEF0E94B500182F6D2D8C2F0E947D
:1022F000FF04882309F488C0013009F48EC06DE41E
:1023000070E087E490E01DCF6FEF80E00E94B500A1
:10231000082F6EEF80E00E94B500F82E6FEF81E08D
:102320000E94B500073081F4873081F516FD1CC08E
:10233000CE010E940C05811117C015FF1AC064E57B
:1023400070E08EE490E0FDCE0032D1F48032F1F402
:102350008F2D0E94F101882371F1109279086AE5AE
:1023600070E089E590E0EDCE60E370E08AE290E015
:10237000E8CECE010E942505882309F417CFDFCFD0
:102380000C3031F10F3111F48F3121F1CD3081E07A
:10239000D807A9F582E0809379088AE590E0DF917B
:1023A000CF911F910F91FF90EF90DF90CF90BF9052
:1023B000AF900C94430216FDD7CFCE010E942505A5
:1023C0008111D2CF15FDBBCFCE010E940C05D4CF19
:1023D0008C30E1F6CE010E942505882329F064E3C4
:1023E00070E081E390E0ADCECE010E940C05882321
:1023F00009F4DCCE68E570E085E590E0A2CECC3B48
:10240000D24009F0D3CEC6CF612F8C2F0E94FF049B
:10241000882341F0033009F072CF69E270E083E273
:1024200090E08FCE89EF8C0F823018F0CC3009F01D
:10243000BDCE89EF8D0F823018F0DC3009F0B6CEBA
:10244000EF2859F30130B1F6CACF6FEF8FEF0E943A
:10245000B500C82F6FEF80E00E94B500D82F6FEF56
:1024600081E00E94B500D83031F48830B1F2C83034
:1024700009F09CCE44CFD13211F4813271F2C830D0
:1024800009F494CEC13209F091CED13209F08ECE4A
:1024900036CF15FF88C080E798E00E94ED0F8130AD
:1024A00009F490C0A0F0823009F461C063E0833089
:1024B00009F07CCE812FDF91CF911F910F91FF907A
:1024C000EF90DF90CF90BF90AF900C948B0C60E0BA
:1024D00080E00E94B500E82E61E080E00E94B50037
:1024E000D82F60E08FEF0E94B500082F6FEF8FEFBD
:1024F0000E94B500D82E61E08EEF0E94B500182F23
:1025000061E08FEF0E94B500C82F60E081E00E947B
:10251000B500F82E64E08C2F0E948D01811105C05A
:10252000CF3019F0DF3009F441CE81E2E8120CC05F
:10253000F8120DC0802F0E94F101882309F436CED5
:1025400081E0809379083FCE8FE1E81689F3DF3090
:1025500029F4CF3019F41D50123060F0CD50C23044
:1025600070F464E0802F0E948D0181110FC08EE213
:1025700092E015CF62EC72E08DEB92E0E2CDDF30BD
:1025800081F76CEB72E089EB92E0DBCD8D2DDF9172
:10259000CF911F910F91FF90EF90DF90CF90BF9060
:1025A000AF900C94670C16FF63C080E798E00E9420
:1025B000ED0F813051F058F0823009F456C083306D
:1025C00009F0F4CD8DE192E0EACE61E073CF60E0F6
:1025D00080E00E94B500F82E60E081E00E94B50026
:1025E000082F61E080E00E94B500182F61E081E0D3
:1025F0000E94B500D82F60E082E00E94B500E82E6E
:1026000061E082E00E94B500C82F64E08D2F0E9437
:102610008D01811105C0DF3019F01F3009F4C6CDDE
:1026200081E2F8120CC0013279F48E2D0E94F10182
:10263000882309F4BBCD81E080937908A1CD8FE197
:10264000F81202C00F3189F31F3079F4DF3069F4DA
:10265000CD5063E171E08EE091E0C23008F471CDBD
:102660006DE071E08AE091E06CCD8FE790E097CE6D
:1026700013FF9CCD80E798E00E94ED0F182F81306A
:1026800039F038F1823009F466C0833009F08ECD1C
:1026900060E080E00E94B500C82F81E0133009F4AB
:1026A0008FEF60E00E94B500C93219F0893209F05D
:1026B00040C082E380936E0883E3DF91CF911F9146
:1026C0000F91FF90EF90DF90CF90BF90AF900C9460
:1026D000C704C334D105E0F4C533D10508F066CD95
:1026E000C131D10540F0CF31D10508F45FCDA397BA
:1026F0002E9708F45BCD84E090E09093820880935D
:1027000081088AE090E090938408809383084ECDFE
:10271000C43181E0D80740F4C73081E0D80708F021
:1027200045CDC754D109E4CFC65BD2402D9718F7E9
:102730003DCD8FEA91E0133011F090E080E0DF9121
:10274000CF911F910F91FF90EF90DF90CF90BF90AE
:10275000AF900C94D40B60E080E00E94B500811132
:1027600009C081E292E0909382088093810887E219
:1027700092E0C9CF88E292E090938208809381082A
:102780008DE292E0C0CF0F931F93CF93DF93082F7A
:10279000162F803409F473C02091FD093091FE0991
:1027A000C8E3D0E0C21BD30B80E798E00E94ED0F96
:1027B000282F80E190E0233011F488EF9FEF8C0FF9
:1027C0009D1FAC014F705527452B39F0233009F47C
:1027D00068C028EF3FEF820F931F2091780865E2D1
:1027E000621B362F3F7011F06DE1621B0E949B004F
:1027F0008F3F09F444C099E0899FF0011124EA5AFF
:10280000F64F808108133BC081E090E0908787837A
:102810006381062E000C770B83E0759567958A958A
:10282000E1F77727818192818059910923E095957D
:1028300087952A95E1F79927A2E3A69FA001A79F74
:10284000500D1124475B5A4FFA01E80FF91F15820A
:10285000FC0131964E0F5F1FEA011D826F5F7F4FB3
:10286000A69F9001A79F300D1124275B3A4F820F3E
:10287000931FDC0115961C92E20FF31F158281E075
:102880008093020A1093030A8091000A8250E82F75
:10289000F0E0EE58F74F853038F4918191938F5FD7
:1028A000FACF28E030E097CF80E4809377088091DA
:1028B0007A08815080937A081092010A1092000AD7
:1028C000DF91CF911F910F910895FF920F931F9366
:1028D000CF93DF93C82F8B01FF24F394833011F43F
:1028E000FF24FA9460E08F2D0E94B500D82F6EEF80
:1028F0008F2D0E94B500F82E83E0C33009F48DEFD0
:102900006EEF0E94B500E091000A90E4E23028F0FA
:10291000E250F0E0E059F74F92812AED2F0D23307D
:1029200040F48652833028F49333D1F0973309F47E
:1029300040C0D83109F044C0953009F0A4C0B801B6
:1029400066567E4FC80180579E4F0E94CD0B65E2B0
:1029500082E0DF91CF911F910F91FF900C94C313F0
:1029600084E3C13041F51AE3933309F416E30E947E
:102970008E0099E0899FF0011124EA5AF64F1083E6
:1029800014821086178286E490E0C33011F48EE141
:1029900090E02091FD093091FE09821B930B9283F8
:1029A00081839091780888E2891B838365E280E4C3
:1029B000D0CF88E3D6CF19E39333C9F615E3D7CF49
:1029C000D93171F4993009F05EC0B8016B557E4F72
:1029D000C80185569E4F0E94CD0B65E28BE0B9CFB2
:1029E000973021F488E680938008E0CFDA3111F443
:1029F0009923A1F09A31A9F40E94F50180937C08F3
:102A00008F3FC9F1C80189529E4F0E944302C09373
:102A1000020A80E28093030A60E2C9CF65E28EE099
:102A200098CF9C3041F580917B088A3054F58B5FBC
:102A300080937B0865E280E40E94C3138FE30E94C9
:102A40008E0099E0899FF0011124EA5AF64F2091F7
:102A5000FD093091FE098CE390E0821B930B928379
:102A600081839091780885E2891B8383148281E0B9
:102A700090E096838583DF91CF911F910F91FF9016
:102A800008958EE0D5CF973009F0B4CFABCF83FF58
:102A90003DC0E0916E08E652E93008F048C0F0E031
:102AA000EC5AFA4E0C94B5395D157C157E158015DF
:102AB000841580158215801582158091000A88235F
:102AC00059F0813069F080E798E00E94ED0F813085
:102AD00051F0833069F0089587E280936E0827C033
:102AE00086E20C94C70470E060E081E00C94651409
:102AF0006FEA71E083E0FACF89E2EFCF8DE2EDCFAC
:102B000086E2EBCF85E0E9CF0C94C70287FF31C0A6
:102B100080916E088A3229F030F4863249F088328A
:102B200031F48150DACF8C32E1F38E32D1F3089553
:102B30008091010A811104C080E09AE00C946E0437
:102B40008230A8F32091000A2150330B90917A082B
:102B50009217130689F381508093010A80E09AE06E
:102B60000E946E048091000A823009F71092010AD7
:102B7000089584FFDCCF80916E08893229F030F40B
:102B8000863249F0873299F68F5FA7CF8B32E1F317
:102B90008D3269F6F9CF8091000A682F70E040917C
:102BA0007A08242F30E0F90131966E177F0709F477
:102BB000BECF9091010A91110FC0811104C081E034
:102BC0008093000A0895F90131976E177F0734F456
:102BD000423021F48F5FF4CF882389F3813011F4E0
:102BE000423080F4215031099217130699F3823054
:102BF00059F493E09093000A433008F4B7CF8093E0
:102C0000010A089582E0DCCF9F5F9093010AE2CF32
:102C10005C98FC012591CF012EBD00000DB407FE8C
:102C2000FDCF6150B1F75C9A0895DC014617570754
:102C3000A0F09D969C919D979E3061F0E92FF0E069
:102C4000EE0FFF1FEA0FFB1F528B418B9F5F9D967C
:102C50009C939D9741505109E9CF08952F923F923F
:102C60004F925F926F927F928F929F92AF92BF929C
:102C7000CF92DF92EF92FF920F931F93CF93DF9348
:102C800000D000D000D0CDB7DEB70091D6091091AA
:102C9000D7090F5F1F4F1093D7090093D609037010
:102CA00011270115110509F016C1F09044050E9485
:102CB000BA042091CB0890916E08211191C2E0EEE8
:102CC000E90FE83108F027C0F0E0E759F94E0C941D
:102CD000B539CE17A9178B168B168B168617871644
:102CE000801780178017801780178017801780172C
:102CF000901781168B168B16771877187718771818
:102D0000771882FF08C086E20E94C70404C082FDD3
:102D1000FACF0E9447158091780895E2C92EC81A0B
:102D2000D12C06E519E04601B0E18B0E911CAA24D6
:102D3000A394B12CF80180818F3349F0833009F4DA
:102D400023C2075F1F4FF9E0043D1F0799F78091E9
:102D5000CB0881116AC380918108909182088038E4
:102D6000944061F0809183089091840800917008EC
:102D7000109171088038944009F05AC30CEC18E0A7
:102D8000D12CC12C48E3842E912C52E2252E54E004
:102D9000352E69EE462E63E0562E74E1672E712CB7
:102DA000D80111962D913C9112972115310509F406
:102DB00088C09D96EC919D97EE2311F40C9474219C
:102DC000E1509D96EC939D97F0E0EE0FFF1FE00F12
:102DD000F11FE188F2881596FC92EE921497B701E4
:102DE000660F771F660F771F80E06D5D774D8F4F01
:102DF0000E94870364E070E0CE0101960E943703D1
:102E00000E94F102F80183819981891B83839B8150
:102E100021813281290F311D97FD3A95328321831B
:102E20009081923011F40C944820933011F40C945A
:102E30008D20913089F5F4EEEF16F3E0FF0629F0CE
:102E40004DE1E41644E0F40639F593E05DE1E51662
:102E500054E0F50609F091E040916E084132E1F04E
:102E6000933011F00C94452096E1D80118969C936C
:102E700018971D964D915C911E97440F551F440F56
:102E8000551F50965C934E931F971A963C932E9322
:102E9000199787501B968C93EE0CFF1CB70180E0AE
:102EA0006D5D704E8F4F0E9487030E94E6027C0189
:102EB0000E94F102BFEFEB16FB0619F0F801F58254
:102EC000E482FFEFCF1ADF0A025D1F4F23E0C21634
:102ED000D10409F065CF8091020A813011F40C947D
:102EE0002024833011F00C94A3238091FF098136B4
:102EF00010F40C94A02382508093FF090C94A32318
:102F000082FF07CF86E280936E0805CF82FDFBCE5D
:102F1000809143058111FFCE8F2D0E942910FBCE99
:102F20008C7009F4F8CE8091D4099091D5098F3F27
:102F30009F4331F4109249050E94B80485E0E3CF25
:102F400080917E0890914205890F80937E0888E3E6
:102F5000DACF8C7009F4DFCE80917F088230B0F038
:102F60000E94C7028EE080937B0880917F08815089
:102F700080937F0880917A08E82FF0E0EE58F74FB1
:102F800090E4863040F491938F5FFBCF1092490517
:102F900085E080936E080E94B804BDCE80917C08C5
:102FA0008F3F21F40E94F50180937C08E0917C081A
:102FB0003FE0C32E37E2D32EEF3F99F08091FD0919
:102FC0009091FE0948E3C42ED12CC81AD90A3EE2DA
:102FD000E39FF0011124E453F74F81819281C81AD5
:102FE000D90A60E081E00E94B500B82E60E08FEF62
:102FF0000E94B500E82E80E798E00E94ED0F833034
:1030000071F09E2DEB2CB92EF3FE0CC0B80164516B
:103010007E4FC8018A519E4F0E94CD0B7CCE0FEA95
:1030200011E0F2CFF4FE21C085E280936E088FE7B5
:1030300090E09093710880937008E2E7F8E090E0E8
:1030400080E02191203461F48059974F2AE1DC011E
:1030500012962C9380917A088F5F80937A085BCECA
:1030600001968530910569F7F5CFF2FE09C0E110B0
:1030700007C0B80163527E4FC80188529E4FCCCF23
:10308000F6FE1BC0813091F0833009F044CE1C1451
:103090001D043CF462E973E081E993E0B1103BCE9A
:1030A000BBCF87ED91E00E94430235CE6FED71E01A
:1030B0008EED91E0E1102FCEAFCFF5FE2CCE81301A
:1030C00051F0833009F027CE6EE873E08DE893E08D
:1030D000E11021CEA1CFD7FE07C0B1101CCE63EE08
:1030E00071E082EE91E098CF86E893E0DCCF83FF39
:1030F00031C0943351F020F4933309F1F12C0BCE0D
:1031000096539230D8F784E32AC080917E088530A8
:1031100090F095E390936E08855080937E086AE066
:1031200080E00E942B02823020F480E080934205F0
:10313000E5CF88E6FBCF84E30E94C704DFCF809110
:103140004405809340050E942403809344058091A8
:103150006E08F2CF87FF06C083E3943379F680933D
:103160006E08CCCF84FF07C0933341F680917E0870
:10317000853020F2C8CF82FFC1CF8DEC890F82301D
:1031800008F0BCCF892FD8CF218132814091FD0931
:103190005091FE0983819481973009F4D2CD6581E5
:1031A0007681672B09F0CDCD240F351F23533109CC
:1031B0002331310508F0C5CD082E000C990B9C0178
:1031C0002F5F3F4F281539050CF0BBCD0396C8166D
:1031D000D9060CF0B6CDB682A5820E941710B1CDEB
:1031E000953209F0B4CDF3FEB2CD80917008909184
:1031F00071088E3AB1E09B0709F4BCC090F5863A9D
:10320000F1E09F0709F4B6C08A3A21E0920709F479
:10321000B1C08038910509F09ACD6EEF80E00E9430
:10322000B500E82E60E081E00E94B500182F6FEF36
:1032300082E00E94B500082FE6E2EE1609F487CD81
:10324000113009F479C085EE810F823008F474C022
:10325000173109F07BC021E040EE50E067ED70E0EF
:1032600070C0853533E0930789F140F58F32924085
:1032700009F06DCD6EEF80E00E94B500E82E60E0B1
:103280008FEF0E94B500182F6FEF8EEF0E94B500F0
:10329000082FF6E2EF1609F45ACD113009F4A5C053
:1032A00085EE810F823008F4A0C0173109F0A3C069
:1032B00021E04FE852E066E872E043C08935A3E0C0
:1032C0009A0721F08D35934009F041CD60E08FEFF2
:1032D0000E94B500D82E6FEF80E00E94B500082F45
:1032E0006FEF8FEF0E94B500182F6FEF8EEF0E94E7
:1032F000B500E82E8D2D0E94F101882309F427CD19
:10330000802F0E94F101882351F0812F0E94F1014A
:10331000882329F08E2D0E94EF008111C9CF802FC4
:103320000E94EF00882309F412CD812F0E94EF0044
:10333000882309F40CCD73C021E046E051E062E03F
:1033400071E080E798E00E94A70B01CD153309F4E6
:1033500082CF64E0812F0E948D01882329F0802F85
:103360000E94EF0081113BC021E04DEC50E067EC82
:1033700070E0E7CF60E081E00E94B500D82E6FEFEB
:1033800081E00E94B500082F6FEF82E00E94B50037
:10339000E82E6FEF83E00E94B500182F8D2D0E945C
:1033A000F101882309F4D3CC802F0E94F1018823F6
:1033B00051F08E2D0E94F101882329F0812F0E9467
:1033C000EF00811148CF802F0E94EF00882309F47D
:1033D000BECC812F0E94EF00882309F4B8CC21E0F5
:1033E00045ED50E06FEC70E0ACCF21E045EB52E0F2
:1033F00061EB72E0A6CF153309F45ACF64E0812F58
:103400000E948D01811106C021E04CE752E066E781
:1034100072E097CF802F0E94EF008823A9F321E06C
:1034200044E852E06EE772E08CCF0E9493038C0177
:10343000A6E5AA2EA9E0BA2E1D824F2D48704E8314
:10344000B0E84B2EB4E05B2E22242394312C8091E3
:103450007808F5E28F2E881A912CD5018C918B304B
:1034600009F06BC014969C91983009F069C0FD81F9
:10347000FF5FFD8329E0A20EB11CFE3041F7609191
:10348000810870918208603834E07307D1F0409170
:10349000830850918408403884E0580791F020E078
:1034A00080E798E00E94A70B80E894E09093820860
:1034B0008093810890938408809383080E949303EB
:1034C0008C010C3192E0190709F452C308F067C36C
:1034D0000B37B1E01B0708F06AC20937E1E01E07AD
:1034E00008F0D5C40D3C110509F436C208F029C214
:1034F0000738110509F430C208F0F2C10A35110588
:1035000009F455C40338110509F426C2000F111F30
:10351000B80180E06D5D704E8F4F0E9487030E945E
:10352000E6028C010E94F1020F3F100709F426CC3D
:10353000109371080093700821CC8F3309F49FCF4A
:10354000F501C180D2802091FD093091FE09C20EA3
:10355000D31EE3800E2C000CFF083701FFEF6F1A1B
:103560007F0A843109F457C108F06EC0853009F430
:1035700045C0E8F5882309F441C0843009F077CFCD
:1035800080917008909171088538A2E09A0708F43C
:1035900039C18039924008F46ACF80E798E00E94F0
:1035A000ED0F813009F463CFF50187819085892B78
:1035B00009F05DCFF4E3CF1AD10828E0C216D10498
:1035C00008F055CFC4014096681679060CF04FCF2D
:1035D00033E0E30EF11C8E149F040CF048CFD501AC
:1035E00018963C922E9217970E94171040CF893060
:1035F00029F08C3019F0873009F039CF80917A08A2
:10360000863008F034CFF1E3CF1AD10827E1C21693
:10361000D10408F02CCFC4014096681679060CF04E
:1036200026CF3FE0E30EF11C8E149F040CF01FCF59
:10363000D50117968D919C91892B09F018CFC50162
:103640000E94E30485E086C08D3208F053C08B32BF
:1036500008F083C08A3191F2893209F008CFB1E3D2
:10366000CB1AD108E7E1CE16D10408F000CF9401BF
:10367000205F3F4FC7010996821793070CF0F7CEE2
:10368000FBE0EF0EF11C8E149F040CF0F0CE809145
:103690006E088F3209F4EBCE20E12093430550925F
:1036A00082084092810850928408409283088FE2F9
:1036B00080936E088091E409A10102C0440F551F58
:1036C0008A95E2F7CA012091D4093091D509822B5D
:1036D000932B9093D5098093D4091092410562E110
:1036E0008AE00E942B028093420551E050934A05E4
:1036F00081E030C0873309F481CF8B3321F08333ED
:1037000009F0B5CE7BCF21E3C21AD10837E1C31649
:10371000D10408F0ACCEC4014096681679060CF0CE
:10372000A6CE4FE0E40EF11C8E149F040CF09FCE49
:10373000D50117968D919C91892B09F098CEC501E2
:103740000E94E30480917E08F5019581890F8093A2
:103750007E0886E00E940C068ACE91E3C91AD10841
:10376000A7E1CA16D10408F082CE9401205F3F4F32
:10377000621673060CF07BCEBFE0EB0EF11C8E14CC
:103780009F040CF074CEEE81EE2309F470CEF0E1CC
:10379000F093430550928208409281085092840829
:1037A000409283088B3249F58CE2D5018C9390E0EE
:1037B00080E04D814F5FF50125813681082E02C0E2
:1037C000359527950A94E2F720FF11C0E42FE80F02
:1037D00029E0E29FF0011124EA5AF64F1086178281
:1037E00020812D3211F02F3251F431E034830196D3
:1037F0008F30910501F783E0ADCF8BE2D6CF58E053
:103800005483F5CF863D910508F4C7CE813E9105DE
:1038100008F42DCEC2CE8091700890917108853841
:10382000B2E09B0708F450C08039924008F41FCEE4
:10383000F7E3CF1AD1082BE0C216D10408F017CE57
:103840009401205F3F4FC7010E96821793070CF03B
:103850000ECE30E1E30EF11C8E149F040CF007CE67
:1038600080917B0818160CF002CE10927B0880E73E
:1038700098E00E94ED0F813081F1EFEAEE2EFF24F7
:10388000F394833009F0F3CDD50113968C91B5E212
:10389000B81BB093780821E0A70148505E4FB701EC
:1038A00063517E4F80E798E00E94A70BF50181816C
:1038B0009091FD09890F877009F0D9CDC701865015
:1038C0009E4F0E944302D3CD863D910508F4B0CFB0
:1038D000813E910508F4CBCDABCFF12CE12CD4CFB8
:1038E000073A110541F00E3A110509F483C1053A72
:1038F000110509F00BCE6FEF80E00E94B500182F84
:103900006EEF80E00E94B500082F4FEF60E0812F3E
:103910000E945C01882309F45DC24EEF60E0802FB5
:103920000E945C01882309F4CAC267EA70E086EA53
:1039300090E00E94CD0B809179088F5F8093790889
:103940001DCA0B3E1105B9F218F5053D110521F010
:10395000003E110509F0DACD6FEF80E00E94B5005E
:10396000F82E6FEF81E00E94B500082F6FEF8FEF08
:103970000E94B500182F3CE1F312E0C10C3109F0B0
:10398000E7C169EA71E086EA91E00E94CD0BF6C9D1
:103990000036F1E01F0709F4AECF0D3621E0120723
:1039A00009F475C2063F110509F0B0CDA4CF083F58
:1039B00031E0130709F4DCC008F0CDC0013B51E051
:1039C000150709F498CF58F4023891E0190709F463
:1039D0005EC2093AA1E01A0709F4BECF97CD0E3CAA
:1039E000B1E01B0709F487CF0A3DE1E01E0709F0AB
:1039F0008DCD00917C085EE2059F80011124045367
:103A0000174FD8011396FC90139711962D913C9166
:103A1000C90137FD079673E0959587957A95E1F78B
:103A2000E12C82319105A4F04F2D0F2C000C550B89
:103A300063E0559547956A95E1F762E3649FF0016D
:103A4000659FF00D1124E80FF91FE45CFA4FE08048
:103A5000C901409697FD079643E0959587954A954D
:103A6000E1F7B12C82319105A4F04F2D0F2C000C01
:103A7000550BB3E055954795BA95E1F762E3649F1E
:103A8000F001659FF00D1124E80FF91FE45CFA4F77
:103A9000B080F8018781811171C9C090FD09D09073
:103AA000FE09C20ED31EC8010E946F09813019F4AD
:103AB000F2E0CF0ED11C80917008909171084CE417
:103AC00050E08A3D914011F043E350E08091780846
:103AD0004C155D050CF452C936E0C30ED11C4C15D3
:103AE0005D050CF04BC92F2DFF0C330B082E000C7D
:103AF000990B499744275527421B530B8417950769
:103B00000CF43CC940E150E0421B530B841795076D
:103B10000CF034C98CE0D80117968C9384E00E9495
:103B20000C0662E0C80106960E94750481114AC223
:103B3000C8010E946F09813009F43CC2833009F04A
:103B40001DC94FE354E06CE374E0B11017C9C8011C
:103B50000E94D82613C90630F2E01F0749F088F406
:103B60000E3F31E0130721F00230100709F0CECCF0
:103B700010927B0881E280936E081092410580E0EC
:103B800056C00E3052E0150799F3053182E0180750
:103B900079F30A3092E0190709F0B8CCE9CF0A327C
:103BA000A3E01A0708F083C00832B3E01B0708F04F
:103BB000B6C10C37E2E01E0709F4CECED8F50435C5
:103BC00022E0120709F454C058F4023342E014070B
:103BD00009F4C2CE063352E0150709F4BDCE96CCE7
:103BE000063582E0180709F443C00D3592E0190745
:103BF00009F08CCC8FE30E948E0029E0829FF001B7
:103C00001124EA5AF64F2091FD093091FE098CE308
:103C100090E0821B930B928381839091780885E2D8
:103C2000891B8383148282E090E0968385830E94BF
:103C30000C06A4C80A39A2E01A07D1F058F40438D7
:103C4000E2E01E0709F488CE0F38F2E01F0709F4FE
:103C500083CE5CCC0F3023E0120751F00C3133E0FF
:103C6000130709F45CC1053A42E0140709F04ECC91
:103C70006FEF80E00E94B500182F6EEF80E00E9489
:103C8000B500082F4FEF60E0812F0E945C01882370
:103C900009F48DC14EEF60E0802F0E945C01882303
:103CA00009F455C166E572E085E592E042CE0D3A31
:103CB00053E0150709F45CCF00F5003693E01907CF
:103CC000B9F258F40133B3E01B0709F428C10835F1
:103CD000E3E01E0709F440CE19CC0938F3E01F07D2
:103CE00009F487CE073A23E0120709F441CF0D37D4
:103CF00033E0130709F4BCCF09CC093B43E01407B8
:103D000009F436CF58F4013B83E0180709F430CFAB
:103D1000053B93E0190709F42BCFF8CB043CA3E053
:103D20001A0709F425CF0B3CB3E01B0709F420CF99
:103D30000D3BE3E01E0709F0E9CB1ACF4BE1F4128B
:103D40001DC88B3179F468E573E085E593E01DCEFD
:103D5000802F0E94EF00882371F06DEA71E08AEAFB
:103D600091E013CE0E94EF00882399F06CE573E098
:103D700089E593E00ACE802F0E94F101882311F497
:103D80000C94BE161092790861EB71E08EEA91E016
:103D9000FCCD812F0E94F101882311F40C94BE16F2
:103DA0001092790860E673E08DE593E0EECD6FEF59
:103DB00080E00E94B500182F6EEF80E00E94B500F1
:103DC000F82E812F0E94F10181110CC080EF810F2C
:103DD000823040F081E890E0909371088093700801
:103DE0000C94BE16009179080F5F009379088F2D0F
:103DF0000E94F10181110DC080EF8F0D823048F0DB
:103E000080EF810F823050F46EE770E083E690E03F
:103E1000BCCD6AE570E089E590E0B7CD133091F153
:103E20001652133078F10330D0F0053058F58091F8
:103E3000FD099091FE0987709927892B31F063E87D
:103E400070E082E890E00E94CD0B62E08BE798E0A2
:103E50000E94750462E670E08FE590E096CD809157
:103E6000FD099091FE0987709927892B31F063E84D
:103E700070E082E890E00E94CD0B6EE570E08BE58B
:103E800090E083CD66E072E083E092E0F4CF6FEFE4
:103E900080E00E94B500182F6EEF81E00E94B5000F
:103EA000143109F028CD843109F025CD8BEC98E050
:103EB0000E946B0462E871E08BE791E066CD1330FD
:103EC00059F466E072E083E092E00E94CD0B6BEA69
:103ED00070E088EA90E059CD165265E172E08FE01B
:103EE00092E0133008F451CD80917908833078F353
:103EF000853050F462E08BE798E00E9475046FEA29
:103F000070E08CEA90E041CD66E072E083E092E000
:103F10000E94CD0B67EA70E086EA90E036CD6FEF45
:103F200080E00E94B500182F6EEF8FEF0E94B50061
:103F3000163109F09DCE863109F09ACE8BEC98E0CF
:103F40000E946B0461E373E08AE293E01ECD1330BC
:103F500059F465EB73E082EB93E00E94CD0B6AE5C8
:103F600072E087E592E011CD165264EC73E08EEBBF
:103F700093E0133008F409CD80917908833078F309
:103F8000853050F462E08BE798E00E9475046EE59E
:103F900072E08BE592E0F9CC65EB73E082EB93E0A5
:103FA0000E94CD0B66E572E085E592E0EECC80E301
:103FB00092E012CFE1100C94BE1646E054E063E0AC
:103FC00074E0C5CD8091FD099091FE09A8E3EA2E29
:103FD000F12CE81AF90AF80181819281E81AF90AAC
:103FE00085E280936E0880E09AE00E946E04C8012A
:103FF0008D960E946B0480E798E00E94ED0F4EE2E0
:1040000052E0833011F04FE750E02091CB0823328B
:10401000E1F0822F90E0880F991F875B9A4FA9E407
:10402000B5E0A817B90751F0FC01E65CFC4F6081D0
:1040300071813296718360830297F3CF5093860823
:10404000409385082F5F2093CB08C8010E946F0919
:104050001E141F047CF040E654E064E574E08330F5
:1040600021F04DE654E061E674E0C8010E941516A7
:104070000C94BE1643E554E067E474E08330A9F382
:104080004AE754E06EE674E0F0CF98E10C943517FF
:10409000C701835294400E9710F00C944C174DEDCD
:1040A0004E0D68E876E180E00E945A03B82E8CE15C
:1040B0000E948E00B9E08B9FF0011124EA5AF64F5E
:1040C000B482E7E2EE16E4E0FE0611F00C944C1721
:1040D00063E080E00E942B02825ED80118968C93E8
:1040E000189750967C926E921F9788E790E01E96E4
:1040F0009C938E931D9713968C911397825F1B96BA
:104100008C931B9711968D919C91129740971A96BC
:104110009C938E9319970C944C17BBEFEB16B3E05E
:10412000FB0639F0E4E3EE16E4E0FE0611F00C9431
:104130004C1780917D0881110C944C17E0917C08FC
:10414000EF3F31F40E94F50180937C080C944C17EA
:104150002EE2E29FF0011124E453F74F60917808BA
:104160008481958146EF5FEF8433944011F041E103
:1041700050E080918008882321F0109280080C94F0
:104180004C17218132818091FD099091FE09820FA7
:10419000931F840F951FCD97069710F00C944C1722
:1041A000062E000C770B23818CE090E0821B910996
:1041B00027FD93959B01255231098217930714F42B
:1041C0000C944C17655171098617970714F00C94DD
:1041D0004C178CE080937D0883E00E940C06809150
:1041E000700890917108873D41E0940708F449C038
:1041F0008D3E51E0950728F086589340469708F089
:1042000040C064E081E00E942B02682F8BE798E0B9
:104210000E947504882311F40C944C178091FD09B9
:104220009091FE095401A81AB90AD80111968D91EE
:104230009C91A81AB90A8BEC98E00E946B04C80103
:104240000E946F09833001F58EE094E0F80125A506
:104250002E3029F137E13C9DF0013D9DF00D1124F8
:10426000E753FE4FE20FF11DEE0FFF1FE55BFA4F24
:10427000322F332361F05291429153834283315064
:10428000F8CF67E083E0BFCF85ED93E0DFCFD801C3
:1042900052969C938E9351972F5F9D962C9380E717
:1042A00098E00E94ED0F813099F0833011F00C946A
:1042B0004C1769EB73E086EB93E01A141B0424F4AB
:1042C0006DEB73E08AEB93E00E94CD0B0C944C17DE
:1042D0006AE072E087E092E01A141B04ACF36EE02F
:1042E00072E08BE092E0F0CF80917B08882311F49C
:1042F0000C946B1716968C911697882311F40C94D6
:1043000061171396EC91C901089797FD079673E022
:10431000959587957A95E1F7B12C82319105ACF0AE
:104320004E2F0E2E000C550B63E0559547956A9560
:10433000E1F7F2E3F49FB001F59F700D1124860FB1
:10434000971FDC01A45CBA4FBC90C901409697FD51
:104350000796B3E095958795BA95E1F7A12C823140
:104360009105A4F00E2E000CFF0BA3E0F595E79548
:10437000AA95E1F762E36E9FA0016F9F500D112493
:10438000840F951FFC01E45CFA4FA080F801408186
:10439000433009F447C0D0F4413011F00C94611758
:1043A0008091FD099091FE0940E450E0481B590BB3
:1043B000241735073CF5848195818232944011F0B1
:1043C0000C946117558244820C946117463010F0AA
:1043D0000C9461178091D6099091D70960E370E041
:1043E0000E948D39892B11F00C946117848195817D
:1043F000443009F065C38B37944009F09EC18CE7C7
:1044000094E096C14217530714F00C94611784810D
:104410009581893E934011F00C9461173582248276
:104420000C9461178091FD099091FE097401E81ABE
:10443000F90AE21AF30AC8010E946F09833009F0F1
:10444000C7C0B1101EC0D8011D968D919C91919549
:1044500081959109E816F90654F0BBEDEB16BFEF14
:10446000FB062CF449E354E068E374E085C0C7011F
:1044700085960A9730F465E080E00E942B0288233D
:1044800089F3C7014B96049708F061C080917008CA
:1044900090917108883DE1E09E0740F08B3DF1E08E
:1044A0009F0760F18E3D914008F443C0B1100C9419
:1044B0006117A1100C94611768E180E00E942B0243
:1044C00081110C94611764E00E942B02811107C0D6
:1044D0004DE354E06CE374E0C8010E9415164DE30F
:1044E00054E06CE374E0C8010E94151647E354E001
:1044F00062E374E0C8010E941516B4CF65E080E065
:104500000E942B02811115C047E354E066E374E07A
:10451000C8010E94151621E04DED51E06CED71E0EF
:1045200080E798E00E94A70BC8010E943B060C940C
:104530006117B1100C94611760E1A1100C94611720
:1045400080E00E942B0281110C946117C8CFC70133
:1045500047964497B0F4AA2029F0B1100C94611743
:104560006CE0EECF65E080E00E942B024DE354E06A
:104570006CE374E08111F1CFC8010E9415160C9410
:10458000611733E0E30EF11C4BEEE41643E0F40652
:1045900010F00C946117D8019D968C919D978E30E8
:1045A00011F40C94611797E19C9DF0019D9DF00D15
:1045B0001124E80FF11DEE0FFF1FE852F74F28EF0F
:1045C00033E0368325838F5F9D968C930C9461171F
:1045D000A1101AC032E2E316F10464F0D8011D966E
:1045E0008D919C918E159F052CF040E054E06FEF6B
:1045F00073E0C2CFC70144970E9730F465E080E0C6
:104600000E942B02882389F3C7010596499708F079
:1046100055C080917008909171088738B3E09B076E
:1046200038F08A38E3E09E0758F18D389340D8F18E
:10463000B1100C946117A1100C94611768E180E02F
:104640000E942B0281110C94611764E00E942B02DE
:10465000811107C044E054E063E074E0C8010E94A7
:10466000151644E054E063E074E0C8010E9415169A
:104670004EEF53E069EF73E0C8010E941516B5CF05
:1046800065E080E00E942B0281110DC04EEF53E0E7
:104690006DEF73E0C8010E94151621E04CE853E06D
:1046A0006BE873E03DCF60E1B1100C94611780E0DE
:1046B0000E942B0281110C946117D3CFC7010C9675
:1046C000079790F4AA2029F0B1100C9461176CE0C0
:1046D000EECF65E080E00E942B0244E054E063E00E
:1046E00074E08111F1CF48CF29E1E21A2CEFF20AF0
:1046F0003BEDE31633E0F30610F00C946117D8019C
:104700009D968C919D978E3011F40C94611797E1D2
:104710009C9DF0019D9DF00D1124E80FF11DEE0F01
:10472000FF1FE852F74F21E334E04BCF8EE794E0D0
:10473000F801958384830C9461178BE794E0F8CF9C
:1047400084E08093020A0CEC18E086E5682E89E08C
:10475000782E95E2592E21E2422E33E0C32ED12C41
:1047600044E2A42EB12C57E2852E912CD80111964B
:104770008D919C91892B09F1C80107960E946E04C6
:104780007801B8E0EB0EF11CF8018085893109F45D
:1047900094C008F064C0873109F48FC0D80118961E
:1047A0008C91813208F0BBC08E3108F02DC186316A
:1047B00009F4BCC0883109F4B9C0025D1F4F60160E
:1047C0007106A1F68DE798E00E946E048091410584
:1047D0008E3038F49091D60990FD03C08F5F80939E
:1047E000410580914305882319F08150809343054A
:1047F00080918008882359F02091D6093091D709FB
:1048000023703327232B19F4815080938008269638
:104810000FB6F894DEBF0FBECDBFDF91CF911F91D1
:104820000F91FF90EF90DF90CF90BF90AF909F904F
:104830008F907F906F905F904F903F902F90089552
:104840008091FF0987FD03C08E5F0C947C1784E084
:104850008093020A8091030A80936E0874CF8E5170
:10486000883008F09BCF85859685181619061CF4AC
:10487000019796878587F80185859685892B09F0AC
:104880008DCF80916E08813209F488CF85A5811182
:1048900085CF68E20E942B02811180CFC8010E945F
:1048A0006F0969E370E0833011F070E060E0AB0104
:1048B00049505C4F66517C4F2EC0D8011F968D9198
:1048C0009C915097009769F02091D6093091D709B3
:1048D00023703327232B29F4019750969C938E93B2
:1048E0001F97F80187859089892B09F057CF6CE3D2
:1048F00080E00E942B02811151CFC8010E946F09F4
:1049000069E370E0833011F070E060E0AB01475183
:104910005C4F63527C4FC8010E9415163FCF813314
:1049200009F04BCFC7010E94970947CFC7010E94EA
:10493000970940917808F8012385818592856091D7
:10494000FD097091FE09860F971FC697429708F0E0
:1049500034CF042E000C550B822F220F990BB5017A
:10496000681B790B9A01205F3F4F621773070CF0A9
:1049700024CF9401281B390B421753070CF01DCF8D
:1049800080918008882361F010928008D8011896E1
:104990008C9118978631A1F587E118968C930DCFED
:1049A00080917B0884300CF5F08480E798E00E94C9
:1049B000ED0FB8E1FB1212C06BEF71E0813011F026
:1049C0006EEA73E0F394F801F0866D5F7F4F21E0AB
:1049D000AB0180E798E00E94A70BD8CF6FEF71E0A2
:1049E000813081F36AEA73E0EDCF8CE080937D083B
:1049F00010927C0864E08BE798E00E947504C6CFB3
:104A000089E1F8018087D9CEC7010E9497092091DA
:104A10007808D8011996ED90FC901A971B963C9057
:104A20008091FD099091FE098E0D9F1DCB970D97EA
:104A300008F0C3CEB52DB21B2B2F30E0832D032CF5
:104A4000000C990BA901405F5F4F841795070CF08C
:104A5000B4CE0496281739070CF0AFCEF80187853D
:104A600090890197429708F0A8CE8091800888230A
:104A700019F010928008A1CE40861486D08AC7868D
:104A80008FE30E948E00B9E08B9FF0011124EA5A57
:104A9000F64FF282E1823382148280E798E00E942E
:104AA000ED0F6BE072E0813011F066EB73E06D5F4B
:104AB0007F4F21E0AB0180E798E00E94A70B7DCEFD
:104AC0008D37944009F432CE8DE794E031CE0F92C9
:104AD0000FB68F939F93EF93FF93809135058D5F72
:104AE0008D3708F08D5780933505E6E3F5E080813A
:104AF0008E4F808391819F4F918382818F4F8283DC
:104B000083818F4F8383EAE3F5E080818F5F808329
:104B100081818F4F818382818F4F828383818F4FE9
:104B200083838FB18F6066991C9B88278F3681F4B1
:104B300080913405981B963068F0E0E0F8E087E754
:104B40008083818388E180936000F0936000FFCFD1
:104B500090933405FF91EF919F918F910FBE0F902D
:104B600018951F920F920FB60F921124AF92BF9219
:104B7000CF92DF92FF920F931F932F933F934F9308
:104B80005F936F937F938F939F93AF93BF93EF93B5
:104B9000FF93CF93DF9300D01F92CDB7DEB7809104
:104BA0002E05882391F180912205811104C0809106
:104BB0002F05882351F14091980050919900569506
:104BC00047955695479580912205811141C030E067
:104BD00020E08FEF9EE360912F05662309F4ADC0BE
:104BE000E1E1F1E06191662309F4A7C0A191B191DF
:104BF000E0910F01F09110014E0F5F1F4A175B0704
:104C000008F475C04A1B5B0BF9CF8FEF9FEF9093B1
:104C10009900809398000F900F900F90DF91CF91A3
:104C2000FF91EF91BF91AF919F918F917F916F9184
:104C30005F914F913F912F911F910F91FF90DF90C6
:104C4000CF90BF90AF900F900FBE0F901F90189510
:104C5000A0911901B0911A0122E02983F5E1CF2E2C
:104C6000F1E0DF2E13E2A12E15E0B12E8FEF9EE3CF
:104C7000F501F190619171918B015F01F11019C003
:104C8000E2E0CE0ED11CF981F13081F460911F0574
:104C90006A9F90016B9F300D1124359527953595AE
:104CA0002795359527953595279595CF31E039830B
:104CB000DFCFF60120813181240F351F26173707FA
:104CC00010F0261B370B769567952617370718F4D3
:104CD000AF0DB11D8B01F601219331936F01021BC2
:104CE000130B0817190708F0CECFC801CCCFFD0170
:104CF000F695E79570E04E175F0720F07195619586
:104D00007109FD01AFE0B1E04D935D93E41BF50B3C
:104D1000E817F90708F4CF01E0911E05E69FA0010E
:104D2000E79F500D112455954795559547955595F5
:104D3000479555954795240F351F880F991F880F64
:104D4000991F813044E09407A8F0019788279C7F41
:104D50009C5F9093990080939800293731056CF4FB
:104D600028388FEF38075CF020581092BF0020934E
:104D7000CF0051CF80E094E0ECCF28E7F5CF28E8D2
:104D8000F3CF1F920F920FB60F9211248F939F9320
:104D900082E496E0909389008093880081E080937C
:104DA0001B059F918F910F900FBE0F901F9018952C
:104DB000DC0146175707F8F09D968C919D978E3031
:104DC000B9F0E82FF0E0EE0FFF1FEA0FFB1FAE1760
:104DD000BF0731F027853089328B218B3297F7CF8F
:104DE00052965C934E9351978F5F9D968C939D97AF
:104DF00041505109DECF089581E080934B058093A7
:104E00004C0587E080934D0510926E0810926F0854
:104E1000109271081092700886E0E0E0F1E0A2E7DD
:104E2000B8E001900D928A95E1F785E280937808C9
:104E300080E894E09093820880938108909384089E
:104E400080938308E5E8F8E01192119288E0EB3C4A
:104E5000F807D1F71092CB08ECECF8E08EE08683EF
:104E60001782DF0151969F01235D3F4F1D921D92D6
:104E70002A173B07D9F715A6BE9699E0E635F9073C
:104E800071F71092E3091092E2091092E80910926A
:104E9000E7091092FA091092F9091092FC09109290
:104EA000FB091092FE091092FD0984E08093020A2A
:104EB00086E28093030A0895CDB7DEB72C97DEBF54
:104EC000CDBF91E09093E0001092E2001092E100DB
:104ED00080E28093D8001092D700809165008068AE
:104EE00080936500789483E084BD83E085BD9093D2
:104EF0006E00E1E8F0E083E08083E0E881E0808319
:104F0000E1E983E08083E0E981E08083E1EC87E010
:104F10008083E3EC81E08083E0EC82E08083E2EC5C
:104F200081E08083EAE787E080838068808381EC8A
:104F300080937C0081EF85B987EE84B984E38BB9D7
:104F400084EF8AB9769A6E9880EF81BB10BA80E5BB
:104F50008CBD9DBD0E94F7025F9A0E94F7025C988B
:104F6000ECEAF0E085918EBD00000DB407FEFDCFA8
:104F7000E93BC1F75C9A81E88093640011E01093EB
:104F8000650068E089EB90E00E9408169FB7F894EE
:104F900022E436E0309389002093880083E08093F8
:104FA00080008BE180938100109285001092840034
:104FB00080916F00826080936F009FBF5E9AE4E1F2
:104FC000F0E089E69EEE60EF7FEF259135915591F7
:104FD00045912851354909F4CA0180933E059093C3
:104FE0003F0525913591559145912851354909F451
:104FF000BA0160934505709346058BEA0E946304ED
:105000000E94C70210926E080E94AB0586E582BF1F
:1050100082E48093C0001093C30080E48093C400B6
:105020001092BF008FE78093D1001092900089E02A
:105030008093910080914D0580931F0580931E05FC
:105040003E9A3F9A10932E055E98F89480911B0526
:10505000811109C083B7816083BF7894889583B735
:105060008E7F83BFF2CF10921B057894109120059C
:105070002FE741E050E061E07FEF8BE994E00E9490
:10508000930462E083EC90E00E9408162FEF47E063
:1050900051E061E07FEF8BE191E00E94930462E0D8
:1050A00081EC90E00E9408168EEF810F1F5F8E3F0B
:1050B00030F4809133058F5F8093330510E01093B7
:1050C00020055E9AD0902005D092210580916E082F
:1050D000803240F58C3108F004C3853009F416C2E3
:1050E00008F4AEC18A3108F418C28A3109F4F4C256
:1050F0000E944E06811104C080912D050E949206E7
:1051000080914D0590912F05992311F40C945D39F0
:10511000863008F486E0865080931F058AE08093ED
:105120001E0592CF883308F05AC1843208F0B2C00D
:10513000823208F4AFC08332D9F685E280936E08DC
:105140001092D7091092D6091092FE091092FD090B
:1051500023EE3FEF3093FC092093FB0929EA3FEF50
:105160003093E8092093E709809378088FE790E06F
:10517000909371088093700880E88093FF091092E3
:10518000000A1092010A84E08093020A86E280936A
:10519000030A4091E40964ED75E881E10E944C0343
:1051A0003B01882E2CE3E22E28E0F22E10E002E3F1
:1051B00020E0412F882DB3010E943F0362E370E09D
:1051C000C7010E9437030E94F1021F5F82E3E81AC1
:1051D000F108103161F74091E4096EEF75E881E163
:1051E0000E944C030E94870306E519E08EE0F82E2A
:1051F00080E090E4E92E8111AAC269E070E0C80164
:105200000E94370381E0D8019C919F3309F080E030
:10521000FA94075F1F4FF110EECF0E94F102409108
:10522000E40968E276E881E10E944C030E9487036A
:105230006EE270E08CEC98E00E9437036EE270E062
:105240008AEF98E00E9437036EE270E088E299E00E
:105250000E9437030E94F102B9EEEB2EB9E0FB2E5B
:1052600010E002E020E0412F6BE67AE380E00E944C
:105270003F030E94A302D7018D939D937D011F5F81
:10528000183079F781E0809349050E94B80480E0E6
:105290000E9492060E94AD0481110E942E168091F8
:1052A00078089BEE980FA5E2BA2E913148F095E36D
:1052B000980FF0E7BF2E9A3418F49BE3B92EB81A72
:1052C0004B2C512C1201B5E22B1A3108C1019595D6
:1052D000879595958795E0E8EE2EFF24FA948D2C1E
:1052E000912C6C01E8E0CE1AD1088091FB099091D5
:1052F000FC0984012FEE36E14EE0B6018E0D9F1DB4
:105300000E942109F0E8EF0EF11CE11401E0F00623
:1053100061F751EFE52E59E0F52E64E0A62E62010B
:1053200021E1C21AD1084A2D64E87BE481E10E94A0
:105330004C039B01482F8401B601D7018D919D91AB
:105340007D010E944D08A394B8E0AB12ECCF32016E
:10535000E1E0F0E0FE83ED83F2E1FF8304E40887FF
:105360004D815E8141505109C3010F9680359105F1
:1053700008F088C31F8182E3849F9001859F300DD0
:105380001124A901475B5A4F5A8749876D817E8155
:10539000869F9001879F300D1124C901875B9A4F2A
:1053A0009C878B879885191708F06CC3212F30E0F4
:1053B000F90143E0EE0FFF1F4A95E1F78091FD09E7
:1053C0009091FE09E80FF91F3497E13FAFEFFA071C
:1053D0000CF0C0C1B2E0B10FBF831E5FE3CF8833D2
:1053E00011F40C94F234823408F082CE0E94AD04A1
:1053F000882311F40C944835009144050E94BA04A6
:10540000182F8091D6099091D70901969093D709CA
:105410008093D60920916E08E7ECE20FE93010F096
:105420000C944835F0E0E95EF54D0C94B5399C36A6
:10543000A637873787378737873790379837FB34D2
:10544000E82EF12C8701000F111F0E0D1F1D0D0DF1
:10545000111D21EB32EE40E070E060E090E080E072
:105460000E9421098091D6099091D7090C9761F487
:105470001092D7091092D6090FEFE01AF00A23E034
:10548000E222FF24E0926E080E94AD04882309F412
:105490002FCE8091D6099091D70901969093D70984
:1054A0008093D60980914205803218F48F5F8093F3
:1054B00042050E94BA04882309F41ACE809142055D
:1054C000803209F015CE809164008E7F8093640055
:1054D00080917A00806480937A0080917A0086FDC2
:1054E000FCCF00917800109179000E940C03602796
:1054F000712770934805609347058091640081602F
:105500008093640085E080936E08F2CD8091490518
:1055100081110FC086E080936E0810916E088AEFAB
:10552000810F173020F0153130F0193160F0182F4D
:105530000AC08CE0F0CF90914B059111F8CF80918B
:105540004C0581111A5F0E94AD04882309F447C0FD
:105550008091D6099091D70901969093D7098093AD
:10556000D6090E94BA0483FF8DC0E0916E08E65010
:10557000E33108F02DC0F0E0E054F54D0C94B5395E
:10558000D32AE12AE82AD72A1E2B402BE32AD72A3E
:105590001E2BE82AE82AE82AE82AE82AE82ADE2A4E
:1055A000DE2ADE2ADE2A89E080936E0811C085E1BA
:1055B00080936E0880914A0581110AC00E943D05C2
:1055C00007C08BE0F1CF0E94C70280E88093FF09FB
:1055D00080914205883418F48F5F809342058D2CAA
:1055E000912CA40163E0169F400D511D11248A01E6
:1055F00023EB32E141E070E060E090E080E00E9467
:1056000021098091D6099091D7099695879596950D
:10561000879564E170E00E948D398C01000F111FA5
:10562000080F191F080D191D25E133E44AE066E152
:1056300070E084E190E00E944D085ACD80914C05C5
:1056400090914B05911113C0811106C081E08093A8
:105650004B0580934C0502C010924C0580914B0580
:10566000882359F080912D050E949206B1CF88239E
:10567000A9F310924B0581E0ECCF0E94AB05A8CFB7
:1056800087E092CF84FF13C080916E088E3048F47B
:105690008C3028F497EF980F923008F099CF8F5FF5
:1056A00083CF9BEE980F933008F092CFF8CF87FF0F
:1056B0008FCF80916E088F3048F48D3028F496EFAC
:1056C000980F923008F084CF81506ECF9AEE980FE9
:1056D000933008F07DCFF8CF109242058CE1809393
:1056E0006E080E94AD048823F9F0109142050E94D3
:1056F000BA042091D6093091D7092F5F3F4F3093DC
:10570000D7092093D60923703327232B41F41F5F39
:10571000109342051B3519F493E290936E0883FFB2
:1057200003C083E280936E08809142050D2D10E046
:1057300073E0879F000D111D112425EB32E642E036
:1057400070E060E090E080E00E942109D1CCF80197
:10575000E0825ECD8091FF098E171F060CF491C187
:1057600022513109A985BA85A20FB31F15968C91D4
:1057700041E0410F4251550BA985BA85A40FB51FD1
:1057800015967C91EB84FC842E0D3F1DD901159656
:105790009C914E0D5F1DDA0115966C91823061F47B
:1057A0007230A1F5913091F5613009F041C0C12C02
:1057B00022E836E041E156C0823109F465C0873005
:1057C00039F49C3019F5C12C2EE530E141E14AC095
:1057D0008C3051F4983009F45CC09C30B9F4C12C81
:1057E00022E231E141E13EC0C12C2CE939E441E142
:1057F0008133C1F1C12C2EEF39E441E1823391F1C3
:10580000C12C20E63AE441E1833361F19C31C1F0DF
:1058100020E83CE141E19B31B1F0813009F03EC02C
:10582000713009F047C0911145C0662309F4DAC010
:10583000613109F059C060E02CE834E141E1BEC0BB
:105840002EEF3AE141E18091D6099091D70968E1C4
:1058500070E00E948D3966E070E00E948D39C62E9E
:10586000CC0CC60EC80CD92CD11C7901042FB2E087
:10587000EB0EF11C011D92E0A92E20E140E1B301E5
:10588000CF010E94FA07A9CDC12C2EE435E141E1F8
:10589000E9CFC12C20EC30E141E1E4CF8A3209F4B8
:1058A000A5C08B3209F4A7C08E3209F4A9C0803399
:1058B00009F4ABC0903109F4ADC0613109F4BBCF3C
:1058C000863049F4653011F00C94613960E022EDC6
:1058D00035E441E173C07B3021F4993011F40C942C
:1058E00067398B3009F49BC0633011F40C94713923
:1058F000833009F499C0843309F49BC09D3009F4C6
:105900009DC06E3009F49FC09F3019F46F3009F4C8
:105910009FC0653009F4A1C06A3009F4A3C091307A
:1059200039F4633169F460E022E736E141E146C0D1
:10593000743119F4943109F49AC0953109F49CC07A
:10594000863149F4663111F00C94773960E028EB28
:1059500038E141E133C08F3149F49F3111F00C94AB
:10596000773960E022E03EE141E128C0803249F42D
:10597000703211F00C94773960E024EC3EE141E1A3
:105980001DC0613211F40C947B39863219F18732D3
:1059900029F12CE438E341E1883209F01ECD8091F1
:1059A000D6099091D70960E370E00E948D3963E0D9
:1059B00070E00E948D39C62ECC0C6C0D6401C60EB1
:1059C000D11C7901042F52E0E50EF11C011D83E08A
:1059D000A82E53CF28E430E241E1E1CF2AE43CE2B3
:1059E00041E1DDCF24EF3CE041E1E8CF60E02EE48F
:1059F00034E441E1E3CF60E020E135E441E1DECF92
:105A000060E026E537E441E1D9CF60E02AED38E4F3
:105A100041E1D4CF60E02AEC33E141E1CFCF60E057
:105A200028E73EE041E1CACF60E029ED3FE74AE0E8
:105A3000C5CF60E022EC3AE441E1C0CF60E024E869
:105A400031E141E1BBCF60E026E432E141E1B6CF94
:105A500060E028E033E141E1B1CF60E020E73BE0E6
:105A600041E1ACCF60E02AE33FE041E1A7CF60E055
:105A700024E337E141E1A2CF60E026EF37E141E1E5
:105A80009DCF188760E1661A71088D819E8102960C
:105A90009E838D83419709F063CC16E5612E19E052
:105AA000712E73010BEAA02ED7014C914F3309F4EC
:105AB0007EC011968D919C9112972091FD09309195
:105AC000FE09820F931FFC013497FE83ED838B96B2
:105AD0008F3A910508F062C013968C916201C81A42
